{
  "contractName": "CheemscoinFarm",
  "abi": [
    {
      "inputs": [
        {
          "internalType": "contract IERC20",
          "name": "_hsf",
          "type": "address"
        },
        {
          "internalType": "uint256[9]",
          "name": "_parameters",
          "type": "uint256[9]"
        }
      ],
      "stateMutability": "nonpayable",
      "type": "constructor"
    },
    {
      "anonymous": false,
      "inputs": [
        {
          "indexed": true,
          "internalType": "address",
          "name": "owner",
          "type": "address"
        },
        {
          "indexed": true,
          "internalType": "address",
          "name": "approved",
          "type": "address"
        },
        {
          "indexed": true,
          "internalType": "uint256",
          "name": "tokenId",
          "type": "uint256"
        }
      ],
      "name": "Approval",
      "type": "event"
    },
    {
      "anonymous": false,
      "inputs": [
        {
          "indexed": true,
          "internalType": "address",
          "name": "owner",
          "type": "address"
        },
        {
          "indexed": true,
          "internalType": "address",
          "name": "operator",
          "type": "address"
        },
        {
          "indexed": false,
          "internalType": "bool",
          "name": "approved",
          "type": "bool"
        }
      ],
      "name": "ApprovalForAll",
      "type": "event"
    },
    {
      "anonymous": false,
      "inputs": [
        {
          "indexed": true,
          "internalType": "address",
          "name": "downgrader",
          "type": "address"
        },
        {
          "indexed": true,
          "internalType": "uint256",
          "name": "depositId",
          "type": "uint256"
        },
        {
          "indexed": false,
          "internalType": "uint256",
          "name": "downgradeReward",
          "type": "uint256"
        }
      ],
      "name": "DepositDowngraded",
      "type": "event"
    },
    {
      "anonymous": false,
      "inputs": [],
      "name": "Disabled",
      "type": "event"
    },
    {
      "anonymous": false,
      "inputs": [
        {
          "indexed": true,
          "internalType": "address",
          "name": "previousOwner",
          "type": "address"
        },
        {
          "indexed": true,
          "internalType": "address",
          "name": "newOwner",
          "type": "address"
        }
      ],
      "name": "OwnershipTransferred",
      "type": "event"
    },
    {
      "anonymous": false,
      "inputs": [
        {
          "indexed": true,
          "internalType": "contract IERC20",
          "name": "poolToken",
          "type": "address"
        },
        {
          "indexed": false,
          "internalType": "uint256",
          "name": "allocation",
          "type": "uint256"
        }
      ],
      "name": "PoolAdded",
      "type": "event"
    },
    {
      "anonymous": false,
      "inputs": [
        {
          "indexed": true,
          "internalType": "contract IERC20",
          "name": "poolToken",
          "type": "address"
        }
      ],
      "name": "PoolRemoved",
      "type": "event"
    },
    {
      "anonymous": false,
      "inputs": [
        {
          "indexed": true,
          "internalType": "contract IERC20",
          "name": "poolToken",
          "type": "address"
        },
        {
          "indexed": false,
          "internalType": "uint256",
          "name": "allocation",
          "type": "uint256"
        }
      ],
      "name": "PoolUpdated",
      "type": "event"
    },
    {
      "anonymous": false,
      "inputs": [
        {
          "indexed": false,
          "internalType": "uint256",
          "name": "additionalRewardAmount",
          "type": "uint256"
        }
      ],
      "name": "RewardsAdded",
      "type": "event"
    },
    {
      "anonymous": false,
      "inputs": [
        {
          "indexed": true,
          "internalType": "uint256",
          "name": "depositId",
          "type": "uint256"
        },
        {
          "indexed": false,
          "internalType": "uint256",
          "name": "rewardAmount",
          "type": "uint256"
        }
      ],
      "name": "RewardsWithdraw",
      "type": "event"
    },
    {
      "anonymous": false,
      "inputs": [
        {
          "indexed": true,
          "internalType": "address",
          "name": "from",
          "type": "address"
        },
        {
          "indexed": true,
          "internalType": "address",
          "name": "to",
          "type": "address"
        },
        {
          "indexed": true,
          "internalType": "uint256",
          "name": "tokenId",
          "type": "uint256"
        }
      ],
      "name": "Transfer",
      "type": "event"
    },
    {
      "inputs": [],
      "name": "SCALE",
      "outputs": [
        {
          "internalType": "uint256",
          "name": "",
          "type": "uint256"
        }
      ],
      "stateMutability": "view",
      "type": "function",
      "constant": true
    },
    {
      "inputs": [
        {
          "internalType": "address",
          "name": "to",
          "type": "address"
        },
        {
          "internalType": "uint256",
          "name": "tokenId",
          "type": "uint256"
        }
      ],
      "name": "approve",
      "outputs": [],
      "stateMutability": "nonpayable",
      "type": "function"
    },
    {
      "inputs": [
        {
          "internalType": "address",
          "name": "owner",
          "type": "address"
        }
      ],
      "name": "balanceOf",
      "outputs": [
        {
          "internalType": "uint256",
          "name": "",
          "type": "uint256"
        }
      ],
      "stateMutability": "view",
      "type": "function",
      "constant": true
    },
    {
      "inputs": [],
      "name": "baseURI",
      "outputs": [
        {
          "internalType": "string",
          "name": "",
          "type": "string"
        }
      ],
      "stateMutability": "view",
      "type": "function",
      "constant": true
    },
    {
      "inputs": [],
      "name": "contractDisabledAt",
      "outputs": [
        {
          "internalType": "uint256",
          "name": "",
          "type": "uint256"
        }
      ],
      "stateMutability": "view",
      "type": "function",
      "constant": true
    },
    {
      "inputs": [
        {
          "internalType": "uint256",
          "name": "",
          "type": "uint256"
        }
      ],
      "name": "depositInfo",
      "outputs": [
        {
          "internalType": "uint256",
          "name": "amount",
          "type": "uint256"
        },
        {
          "internalType": "uint256",
          "name": "rewardDebt",
          "type": "uint256"
        },
        {
          "internalType": "uint256",
          "name": "unlockTime",
          "type": "uint256"
        },
        {
          "internalType": "uint256",
          "name": "rewardShare",
          "type": "uint256"
        },
        {
          "internalType": "uint256",
          "name": "setRewards",
          "type": "uint256"
        },
        {
          "internalType": "contract IERC20",
          "name": "pool",
          "type": "address"
        }
      ],
      "stateMutability": "view",
      "type": "function",
      "constant": true
    },
    {
      "inputs": [],
      "name": "distributionSlope",
      "outputs": [
        {
          "internalType": "uint256",
          "name": "",
          "type": "uint256"
        }
      ],
      "stateMutability": "view",
      "type": "function",
      "constant": true
    },
    {
      "inputs": [],
      "name": "downgradeFee",
      "outputs": [
        {
          "internalType": "uint256",
          "name": "",
          "type": "uint256"
        }
      ],
      "stateMutability": "view",
      "type": "function",
      "constant": true
    },
    {
      "inputs": [],
      "name": "endTime",
      "outputs": [
        {
          "internalType": "uint256",
          "name": "",
          "type": "uint256"
        }
      ],
      "stateMutability": "view",
      "type": "function",
      "constant": true
    },
    {
      "inputs": [
        {
          "internalType": "uint256",
          "name": "tokenId",
          "type": "uint256"
        }
      ],
      "name": "getApproved",
      "outputs": [
        {
          "internalType": "address",
          "name": "",
          "type": "address"
        }
      ],
      "stateMutability": "view",
      "type": "function",
      "constant": true
    },
    {
      "inputs": [],
      "name": "hsf",
      "outputs": [
        {
          "internalType": "contract IERC20",
          "name": "",
          "type": "address"
        }
      ],
      "stateMutability": "view",
      "type": "function",
      "constant": true
    },
    {
      "inputs": [
        {
          "internalType": "address",
          "name": "owner",
          "type": "address"
        },
        {
          "internalType": "address",
          "name": "operator",
          "type": "address"
        }
      ],
      "name": "isApprovedForAll",
      "outputs": [
        {
          "internalType": "bool",
          "name": "",
          "type": "bool"
        }
      ],
      "stateMutability": "view",
      "type": "function",
      "constant": true
    },
    {
      "inputs": [],
      "name": "maxTimeLock",
      "outputs": [
        {
          "internalType": "uint256",
          "name": "",
          "type": "uint256"
        }
      ],
      "stateMutability": "view",
      "type": "function",
      "constant": true
    },
    {
      "inputs": [],
      "name": "minTimeLock",
      "outputs": [
        {
          "internalType": "uint256",
          "name": "",
          "type": "uint256"
        }
      ],
      "stateMutability": "view",
      "type": "function",
      "constant": true
    },
    {
      "inputs": [],
      "name": "name",
      "outputs": [
        {
          "internalType": "string",
          "name": "",
          "type": "string"
        }
      ],
      "stateMutability": "view",
      "type": "function",
      "constant": true
    },
    {
      "inputs": [],
      "name": "owner",
      "outputs": [
        {
          "internalType": "address",
          "name": "",
          "type": "address"
        }
      ],
      "stateMutability": "view",
      "type": "function",
      "constant": true
    },
    {
      "inputs": [
        {
          "internalType": "uint256",
          "name": "tokenId",
          "type": "uint256"
        }
      ],
      "name": "ownerOf",
      "outputs": [
        {
          "internalType": "address",
          "name": "",
          "type": "address"
        }
      ],
      "stateMutability": "view",
      "type": "function",
      "constant": true
    },
    {
      "inputs": [
        {
          "internalType": "contract IERC20",
          "name": "",
          "type": "address"
        }
      ],
      "name": "poolInfo",
      "outputs": [
        {
          "internalType": "uint256",
          "name": "allocation",
          "type": "uint256"
        },
        {
          "internalType": "uint256",
          "name": "lastRewardTimestamp",
          "type": "uint256"
        },
        {
          "internalType": "uint256",
          "name": "accHsfPerShare",
          "type": "uint256"
        },
        {
          "internalType": "uint256",
          "name": "totalShares",
          "type": "uint256"
        }
      ],
      "stateMutability": "view",
      "type": "function",
      "constant": true
    },
    {
      "inputs": [],
      "name": "renounceOwnership",
      "outputs": [],
      "stateMutability": "nonpayable",
      "type": "function"
    },
    {
      "inputs": [
        {
          "internalType": "address",
          "name": "from",
          "type": "address"
        },
        {
          "internalType": "address",
          "name": "to",
          "type": "address"
        },
        {
          "internalType": "uint256",
          "name": "tokenId",
          "type": "uint256"
        }
      ],
      "name": "safeTransferFrom",
      "outputs": [],
      "stateMutability": "nonpayable",
      "type": "function"
    },
    {
      "inputs": [
        {
          "internalType": "address",
          "name": "from",
          "type": "address"
        },
        {
          "internalType": "address",
          "name": "to",
          "type": "address"
        },
        {
          "internalType": "uint256",
          "name": "tokenId",
          "type": "uint256"
        },
        {
          "internalType": "bytes",
          "name": "_data",
          "type": "bytes"
        }
      ],
      "name": "safeTransferFrom",
      "outputs": [],
      "stateMutability": "nonpayable",
      "type": "function"
    },
    {
      "inputs": [
        {
          "internalType": "address",
          "name": "operator",
          "type": "address"
        },
        {
          "internalType": "bool",
          "name": "approved",
          "type": "bool"
        }
      ],
      "name": "setApprovalForAll",
      "outputs": [],
      "stateMutability": "nonpayable",
      "type": "function"
    },
    {
      "inputs": [],
      "name": "startDistribution",
      "outputs": [
        {
          "internalType": "uint256",
          "name": "",
          "type": "uint256"
        }
      ],
      "stateMutability": "view",
      "type": "function",
      "constant": true
    },
    {
      "inputs": [],
      "name": "startTime",
      "outputs": [
        {
          "internalType": "uint256",
          "name": "",
          "type": "uint256"
        }
      ],
      "stateMutability": "view",
      "type": "function",
      "constant": true
    },
    {
      "inputs": [
        {
          "internalType": "bytes4",
          "name": "interfaceId",
          "type": "bytes4"
        }
      ],
      "name": "supportsInterface",
      "outputs": [
        {
          "internalType": "bool",
          "name": "",
          "type": "bool"
        }
      ],
      "stateMutability": "view",
      "type": "function",
      "constant": true
    },
    {
      "inputs": [],
      "name": "symbol",
      "outputs": [
        {
          "internalType": "string",
          "name": "",
          "type": "string"
        }
      ],
      "stateMutability": "view",
      "type": "function",
      "constant": true
    },
    {
      "inputs": [],
      "name": "timeLockConstant",
      "outputs": [
        {
          "internalType": "uint256",
          "name": "",
          "type": "uint256"
        }
      ],
      "stateMutability": "view",
      "type": "function",
      "constant": true
    },
    {
      "inputs": [],
      "name": "timeLockMultiplier",
      "outputs": [
        {
          "internalType": "uint256",
          "name": "",
          "type": "uint256"
        }
      ],
      "stateMutability": "view",
      "type": "function",
      "constant": true
    },
    {
      "inputs": [
        {
          "internalType": "uint256",
          "name": "index",
          "type": "uint256"
        }
      ],
      "name": "tokenByIndex",
      "outputs": [
        {
          "internalType": "uint256",
          "name": "",
          "type": "uint256"
        }
      ],
      "stateMutability": "view",
      "type": "function",
      "constant": true
    },
    {
      "inputs": [
        {
          "internalType": "address",
          "name": "owner",
          "type": "address"
        },
        {
          "internalType": "uint256",
          "name": "index",
          "type": "uint256"
        }
      ],
      "name": "tokenOfOwnerByIndex",
      "outputs": [
        {
          "internalType": "uint256",
          "name": "",
          "type": "uint256"
        }
      ],
      "stateMutability": "view",
      "type": "function",
      "constant": true
    },
    {
      "inputs": [
        {
          "internalType": "uint256",
          "name": "tokenId",
          "type": "uint256"
        }
      ],
      "name": "tokenURI",
      "outputs": [
        {
          "internalType": "string",
          "name": "",
          "type": "string"
        }
      ],
      "stateMutability": "view",
      "type": "function",
      "constant": true
    },
    {
      "inputs": [],
      "name": "totalAllocationPoints",
      "outputs": [
        {
          "internalType": "uint256",
          "name": "",
          "type": "uint256"
        }
      ],
      "stateMutability": "view",
      "type": "function",
      "constant": true
    },
    {
      "inputs": [],
      "name": "totalDeposits",
      "outputs": [
        {
          "internalType": "uint256",
          "name": "",
          "type": "uint256"
        }
      ],
      "stateMutability": "view",
      "type": "function",
      "constant": true
    },
    {
      "inputs": [],
      "name": "totalSupply",
      "outputs": [
        {
          "internalType": "uint256",
          "name": "",
          "type": "uint256"
        }
      ],
      "stateMutability": "view",
      "type": "function",
      "constant": true
    },
    {
      "inputs": [
        {
          "internalType": "address",
          "name": "from",
          "type": "address"
        },
        {
          "internalType": "address",
          "name": "to",
          "type": "address"
        },
        {
          "internalType": "uint256",
          "name": "tokenId",
          "type": "uint256"
        }
      ],
      "name": "transferFrom",
      "outputs": [],
      "stateMutability": "nonpayable",
      "type": "function"
    },
    {
      "inputs": [
        {
          "internalType": "address",
          "name": "newOwner",
          "type": "address"
        }
      ],
      "name": "transferOwnership",
      "outputs": [],
      "stateMutability": "nonpayable",
      "type": "function"
    },
    {
      "inputs": [],
      "name": "poolLength",
      "outputs": [
        {
          "internalType": "uint256",
          "name": "",
          "type": "uint256"
        }
      ],
      "stateMutability": "view",
      "type": "function",
      "constant": true
    },
    {
      "inputs": [
        {
          "internalType": "uint256",
          "name": "_index",
          "type": "uint256"
        }
      ],
      "name": "getPoolByIndex",
      "outputs": [
        {
          "components": [
            {
              "internalType": "contract IERC20",
              "name": "poolToken",
              "type": "address"
            },
            {
              "internalType": "uint256",
              "name": "allocation",
              "type": "uint256"
            },
            {
              "internalType": "uint256",
              "name": "lastRewardTimestamp",
              "type": "uint256"
            },
            {
              "internalType": "uint256",
              "name": "accHsfPerShare",
              "type": "uint256"
            },
            {
              "internalType": "uint256",
              "name": "totalShares",
              "type": "uint256"
            }
          ],
          "internalType": "struct CheemscoinFarm.PoolDetails",
          "name": "",
          "type": "tuple"
        }
      ],
      "stateMutability": "view",
      "type": "function",
      "constant": true
    },
    {
      "inputs": [],
      "name": "getAllPools",
      "outputs": [
        {
          "components": [
            {
              "internalType": "contract IERC20",
              "name": "poolToken",
              "type": "address"
            },
            {
              "internalType": "uint256",
              "name": "allocation",
              "type": "uint256"
            },
            {
              "internalType": "uint256",
              "name": "lastRewardTimestamp",
              "type": "uint256"
            },
            {
              "internalType": "uint256",
              "name": "accHsfPerShare",
              "type": "uint256"
            },
            {
              "internalType": "uint256",
              "name": "totalShares",
              "type": "uint256"
            }
          ],
          "internalType": "struct CheemscoinFarm.PoolDetails[]",
          "name": "",
          "type": "tuple[]"
        }
      ],
      "stateMutability": "view",
      "type": "function",
      "constant": true
    },
    {
      "inputs": [
        {
          "internalType": "address",
          "name": "_account",
          "type": "address"
        }
      ],
      "name": "getAccountDeposits",
      "outputs": [
        {
          "components": [
            {
              "internalType": "contract IERC20",
              "name": "poolToken",
              "type": "address"
            },
            {
              "internalType": "uint256",
              "name": "balance",
              "type": "uint256"
            },
            {
              "internalType": "uint256",
              "name": "unlockTime",
              "type": "uint256"
            },
            {
              "internalType": "uint256",
              "name": "pendingReward",
              "type": "uint256"
            }
          ],
          "internalType": "struct CheemscoinFarm.DepositDetails[]",
          "name": "",
          "type": "tuple[]"
        }
      ],
      "stateMutability": "view",
      "type": "function",
      "constant": true
    },
    {
      "inputs": [
        {
          "internalType": "string",
          "name": "baseURI_",
          "type": "string"
        }
      ],
      "name": "setBaseURI",
      "outputs": [],
      "stateMutability": "nonpayable",
      "type": "function"
    },
    {
      "inputs": [
        {
          "internalType": "address",
          "name": "_tokenRecipient",
          "type": "address"
        }
      ],
      "name": "disableContract",
      "outputs": [],
      "stateMutability": "nonpayable",
      "type": "function"
    },
    {
      "inputs": [
        {
          "internalType": "uint256",
          "name": "_depositAmount",
          "type": "uint256"
        }
      ],
      "name": "depositAdditionalRewards",
      "outputs": [],
      "stateMutability": "nonpayable",
      "type": "function"
    },
    {
      "inputs": [
        {
          "internalType": "contract IERC20",
          "name": "_lpToken",
          "type": "address"
        },
        {
          "internalType": "uint256",
          "name": "_allocation",
          "type": "uint256"
        }
      ],
      "name": "add",
      "outputs": [],
      "stateMutability": "nonpayable",
      "type": "function"
    },
    {
      "inputs": [
        {
          "internalType": "contract IERC20",
          "name": "_poolToken",
          "type": "address"
        },
        {
          "internalType": "uint256",
          "name": "_allocation",
          "type": "uint256"
        }
      ],
      "name": "set",
      "outputs": [],
      "stateMutability": "nonpayable",
      "type": "function"
    },
    {
      "inputs": [
        {
          "internalType": "uint256",
          "name": "_from",
          "type": "uint256"
        },
        {
          "internalType": "uint256",
          "name": "_to",
          "type": "uint256"
        }
      ],
      "name": "getDistribution",
      "outputs": [
        {
          "internalType": "uint256",
          "name": "",
          "type": "uint256"
        }
      ],
      "stateMutability": "view",
      "type": "function",
      "constant": true
    },
    {
      "inputs": [
        {
          "internalType": "uint256",
          "name": "_unlockTime",
          "type": "uint256"
        }
      ],
      "name": "getTimeMultiple",
      "outputs": [
        {
          "internalType": "uint256",
          "name": "",
          "type": "uint256"
        }
      ],
      "stateMutability": "view",
      "type": "function",
      "constant": true
    },
    {
      "inputs": [
        {
          "internalType": "uint256",
          "name": "_depositId",
          "type": "uint256"
        }
      ],
      "name": "pendingHsf",
      "outputs": [
        {
          "internalType": "uint256",
          "name": "",
          "type": "uint256"
        }
      ],
      "stateMutability": "view",
      "type": "function",
      "constant": true
    },
    {
      "inputs": [
        {
          "internalType": "contract IERC20",
          "name": "_poolToken",
          "type": "address"
        },
        {
          "internalType": "uint256",
          "name": "_amount",
          "type": "uint256"
        },
        {
          "internalType": "uint256",
          "name": "_unlockTime",
          "type": "uint256"
        }
      ],
      "name": "createDeposit",
      "outputs": [],
      "stateMutability": "nonpayable",
      "type": "function"
    },
    {
      "inputs": [
        {
          "internalType": "uint256",
          "name": "_depositId",
          "type": "uint256"
        }
      ],
      "name": "closeDeposit",
      "outputs": [],
      "stateMutability": "nonpayable",
      "type": "function"
    },
    {
      "inputs": [
        {
          "internalType": "uint256",
          "name": "_depositId",
          "type": "uint256"
        }
      ],
      "name": "withdrawRewards",
      "outputs": [],
      "stateMutability": "nonpayable",
      "type": "function"
    },
    {
      "inputs": [
        {
          "internalType": "contract IERC20",
          "name": "_token",
          "type": "address"
        }
      ],
      "name": "recoverToken",
      "outputs": [],
      "stateMutability": "nonpayable",
      "type": "function"
    },
    {
      "inputs": [
        {
          "internalType": "uint256",
          "name": "_depositId",
          "type": "uint256"
        }
      ],
      "name": "downgradeExpired",
      "outputs": [],
      "stateMutability": "nonpayable",
      "type": "function"
    },
    {
      "inputs": [],
      "name": "massUpdatePools",
      "outputs": [],
      "stateMutability": "nonpayable",
      "type": "function"
    },
    {
      "inputs": [
        {
          "internalType": "contract IERC20",
          "name": "_poolToken",
          "type": "address"
        }
      ],
      "name": "updatePool",
      "outputs": [],
      "stateMutability": "nonpayable",
      "type": "function"
    }
  ],
  "bytecode": "0x6101c06040523480156200001257600080fd5b50604051620051df380380620051df83398101604081905262000035916200095c565b6040518060400160405280601581526020017f436865656d734661726d204465706f73697420763100000000000000000000008152506040518060400160405280600381526020016210d19160ea1b8152506000620000996200034260201b60201c565b600080546001600160a01b0319166001600160a01b0383169081178255604051929350917f8be0079c531659141344cd1fd0a4f28419497f9722a3daafe3b4186f6b6457e0908290a350620000f56301ffc9a760e01b62000346565b81516200010a906007906020850190620008b0565b50805162000120906008906020840190620008b0565b50620001336380ac58cd60e01b62000346565b62000145635b5e139f60e01b62000346565b6200015763780e9d6360e01b62000346565b5050805160208201518181116200018b5760405162461bcd60e51b8152600401620001829062000a02565b60405180910390fd5b60408301516060808501519086901b6001600160601b031916608052610120849052610140839052620001d66001600160a01b038716333085620003ce602090811b620024c517901c565b6000620002766200021962000202670de0b6b3a7640000856200043460201b6200254d1790919060201c565b8787036200049860201b620025a71790919060201c565b62000262670de0b6b3a76400006200024e670de0b6b3a76400006200024e60028a6200049860201b620025a71790919060201c565b6200049860201b620025a71790919060201c565b620004f660201b620026001790919060201c565b9050620002db620002a0670de0b6b3a76400008787036200049860201b620025a71790919060201c565b62000262620002c685670de0b6b3a76400006200055f60201b620026671790919060201c565b846200049860201b620025a71790919060201c565b60a090815260c0829052608087015190870151808210620003105760405162461bcd60e51b8152600401620001829062000a39565b60e091825261010090815260c088015161016052908701516101805295909501516101a0525062000a70945050505050565b3390565b6001600160e01b03198082161415620003a6576040805162461bcd60e51b815260206004820152601c60248201527f4552433136353a20696e76616c696420696e7465726661636520696400000000604482015290519081900360640190fd5b6001600160e01b0319166000908152600160208190526040909120805460ff19169091179055565b604080516001600160a01b0380861660248301528416604482015260648082018490528251808303909101815260849091019091526020810180516001600160e01b039081166323b872dd60e01b179091526200042e918691620005bd16565b50505050565b6000828201838110156200048f576040805162461bcd60e51b815260206004820152601b60248201527f536166654d6174683a206164646974696f6e206f766572666c6f770000000000604482015290519081900360640190fd5b90505b92915050565b600082620004a95750600062000492565b82820282848281620004b757fe5b04146200048f5760405162461bcd60e51b8152600401808060200182810382526021815260200180620051946021913960400191505060405180910390fd5b60008082116200054d576040805162461bcd60e51b815260206004820152601a60248201527f536166654d6174683a206469766973696f6e206279207a65726f000000000000604482015290519081900360640190fd5b8183816200055757fe5b049392505050565b600082821115620005b7576040805162461bcd60e51b815260206004820152601e60248201527f536166654d6174683a207375627472616374696f6e206f766572666c6f770000604482015290519081900360640190fd5b50900390565b600062000619826040518060400160405280602081526020017f5361666545524332303a206c6f772d6c6576656c2063616c6c206661696c6564815250856001600160a01b03166200067e60201b620026c4179092919060201c565b80519091501562000679578080602001905160208110156200063a57600080fd5b5051620006795760405162461bcd60e51b815260040180806020018281038252602a815260200180620051b5602a913960400191505060405180910390fd5b505050565b60606200068f848460008562000699565b90505b9392505050565b606082471015620006dc5760405162461bcd60e51b81526004018080602001828103825260268152602001806200516e6026913960400191505060405180910390fd5b620006e78562000800565b62000739576040805162461bcd60e51b815260206004820152601d60248201527f416464726573733a2063616c6c20746f206e6f6e2d636f6e7472616374000000604482015290519081900360640190fd5b600080866001600160a01b031685876040518082805190602001908083835b60208310620007795780518252601f19909201916020918201910162000758565b6001836020036101000a03801982511681845116808217855250505050505090500191505060006040518083038185875af1925050503d8060008114620007dd576040519150601f19603f3d011682016040523d82523d6000602084013e620007e2565b606091505b509092509050620007f582828662000806565b979650505050505050565b3b151590565b606083156200081757508162000692565b825115620008285782518084602001fd5b8160405162461bcd60e51b81526004018080602001828103825283818151815260200191508051906020019080838360005b83811015620008745781810151838201526020016200085a565b50505050905090810190601f168015620008a25780820380516001836020036101000a031916815260200191505b509250505060405180910390fd5b828054600181600116156101000203166002900490600052602060002090601f016020900481019282620008e8576000855562000933565b82601f106200090357805160ff191683800117855562000933565b8280016001018555821562000933579182015b828111156200093357825182559160200191906001019062000916565b506200094192915062000945565b5090565b5b8082111562000941576000815560010162000946565b60008061014080848603121562000971578283fd5b83516001600160a01b038116811462000988578384fd5b92506020603f850186136200099b578283fd5b60405161012081016001600160401b0381118282101715620009b957fe5b60405280868301848801891015620009cf578586fd5b8594505b6009851015620009f4578051825260019490940193908301908301620009d3565b509497909650945050505050565b6020808252601c908201527f48463a20656e6454696d65206265666f726520737461727454696d6500000000604082015260600190565b60208082526017908201527f48463a20696e76616c6964206c6f636b206c696d697473000000000000000000604082015260600190565b60805160601c60a05160c05160e05161010051610120516101405161016051610180516101a05161463462000b3a600039806109cb5280612b78525080610dd3528061198b52508061131552806119b0525080610c1b52806111035280611bfe5250806110c25280611143528061116f52806115b052806123fc525080610af75280612183525080610ab852806120985250806111d652806120bc5250806111ac5280611df3525080610e1252806114a25280611a8b5280612d285280612dc752506146346000f3fe608060405234801561001057600080fd5b506004361061036d5760003560e01c806370a08231116101d3578063a154ce8211610104578063d88ff1f4116100a2578063e985e9c51161007c578063e985e9c5146106d1578063eced5526146106e4578063f2fde38b146106ec578063f5d82b6b146106ff5761036d565b8063d88ff1f4146106ac578063e1cf73b9146106c1578063e7f3fbde146106c95761036d565b8063baf941d0116100de578063baf941d014610681578063c87b56dd14610689578063d00a818f1461069c578063d83623dd146106a45761036d565b8063a154ce8214610648578063a22cb4651461065b578063b88d4fde1461066e5761036d565b806383b24c521161017157806395d89b411161014b57806395d89b41146105f757806398783572146105ff5780639a7b5f11146106125780639be65a60146106355761036d565b806383b24c52146105c95780638da5cb5b146105dc5780639342c8f4146105e45761036d565b806378e97925116101ad57806378e979251461059e5780637a46bd36146105a65780637b46c54f146105ae5780637d882097146105c15761036d565b806370a0823114610570578063715018a6146105835780637787c3381461058b5761036d565b80633825d828116102ad578063630b5ba11161024b5780636721d4ef116102255780636721d4ef1461052d5780636c0360eb146105405780636ce0c4b5146105485780637091ce72146105685761036d565b8063630b5ba1146104ff5780636352211e1461050757806364df19001461051a5761036d565b806344288f811161028757806344288f81146104b15780634f6ccce7146104b95780635081d952146104cc57806355f804b3146104ec5761036d565b80633825d8281461048357806338a91d021461049657806342842e0e1461049e5761036d565b80631be2055e1161031a5780632f745c59116102f45780632f745c59146104305780632f9c1df614610443578063317d7a2b146104565780633197cbb61461047b5761036d565b80631be2055e1461040257806323b872dd14610415578063258fa5c8146104285761036d565b8063081e3eda1161034b578063081e3eda146103d0578063095ea7b3146103e557806318160ddd146103fa5761036d565b806301ffc9a71461037257806306fdde031461039b578063081812fc146103b0575b600080fd5b610385610380366004613d55565b610712565b6040516103929190613f68565b60405180910390f35b6103a361074d565b6040516103929190613f73565b6103c36103be366004613e0f565b6107e3565b6040516103929190613e99565b6103d8610845565b60405161039291906142d6565b6103f86103f3366004613d2a565b610856565b005b6103d861092c565b6103d8610410366004613e0f565b610938565b6103f8610423366004613c3c565b610972565b6103d86109c9565b6103d861043e366004613d2a565b6109ed565b6103f8610451366004613d95565b610a18565b610469610464366004613e0f565b610bdb565b604051610392969594939291906142fa565b6103d8610c19565b6103f8610491366004613d2a565b610c3d565b6103d8610dd1565b6103f86104ac366004613c3c565b610df5565b6103c3610e10565b6103d86104c7366004613e0f565b610e34565b6104df6104da366004613be8565b610e4a565b6040516103929190613ead565b6103f86104fa366004613dc9565b610f87565b6103f8611007565b6103c3610515366004613e0f565b611036565b6103f8610528366004613e0f565b61105e565b6103d861053b366004613e3f565b6110ba565b6103a3611223565b61055b610556366004613e0f565b611284565b60405161039291906142c8565b6103d8611313565b6103d861057e366004613be8565b611337565b6103f861139f565b6103f8610599366004613e0f565b611475565b6103d86115ae565b6103d86115d2565b6103f86105bc366004613be8565b6115d8565b6103d8611685565b6103f86105d7366004613e0f565b61168b565b6103c36117d5565b6103f86105f2366004613e0f565b6117e4565b6103a3611901565b6103d861060d366004613e0f565b611962565b610625610620366004613be8565b6119db565b60405161039294939291906142df565b6103f8610643366004613be8565b611a02565b6103f8610656366004613be8565b611b5a565b6103f8610669366004613cf9565b611c70565b6103f861067c366004613c7c565b611d93565b6103d8611df1565b6103a3610697366004613e0f565b611e15565b6103d8612096565b6103d86120ba565b6106b46120de565b6040516103929190613f1a565b6103d8612181565b6103d86121a5565b6103856106df366004613c04565b6121ab565b6103d86121d9565b6103f86106fa366004613be8565b6121e5565b6103f861070d366004613d2a565b612311565b7fffffffff00000000000000000000000000000000000000000000000000000000811660009081526001602052604090205460ff165b919050565b60078054604080516020601f60026000196101006001881615020190951694909404938401819004810282018101909252828152606093909290918301828280156107d95780601f106107ae576101008083540402835291602001916107d9565b820191906000526020600020905b8154815290600101906020018083116107bc57829003601f168201915b5050505050905090565b60006107ee826126d3565b6108295760405162461bcd60e51b815260040180806020018281038252602c8152602001806144ff602c913960400191505060405180910390fd5b506000908152600560205260409020546001600160a01b031690565b6000610851600c6126e0565b905090565b600061086182611036565b9050806001600160a01b0316836001600160a01b031614156108b45760405162461bcd60e51b81526004018080602001828103825260218152602001806145836021913960400191505060405180910390fd5b806001600160a01b03166108c66126eb565b6001600160a01b031614806108e257506108e2816106df6126eb565b61091d5760405162461bcd60e51b81526004018080602001828103825260388152602001806144316038913960400191505060405180910390fd5b61092783836126ef565b505050565b600061085160036126e0565b600081815260106020908152604080832060058101546001600160a01b03168452600b909252822061096a8282612775565b949350505050565b61098361097d6126eb565b82612823565b6109be5760405162461bcd60e51b81526004018080602001828103825260318152602001806145a46031913960400191505060405180910390fd5b6109278383836128bf565b7f000000000000000000000000000000000000000000000000000000000000000081565b6001600160a01b0382166000908152600260205260408120610a0f9083612a0b565b90505b92915050565b60115415610a415760405162461bcd60e51b8152600401610a3890613fc6565b60405180910390fd5b60008211610a615760405162461bcd60e51b8152600401610a389061406b565b428111610a805760405162461bcd60e51b8152600401610a3890614034565b610a8b600c84612a17565b610aa75760405162461bcd60e51b8152600401610a3890613ffd565b6000610ab38242612667565b9050807f00000000000000000000000000000000000000000000000000000000000000001115610af55760405162461bcd60e51b8152600401610a38906140d9565b7f0000000000000000000000000000000000000000000000000000000000000000811115610b355760405162461bcd60e51b8152600401610a3890614223565b6001600160a01b0384166000908152600b60205260409020610b56856115d8565b610b6b6001600160a01b0386163330876124c5565b600f80546001810190915560008181526010602052604090208581556005810180547fffffffffffffffffffffffff0000000000000000000000000000000000000000166001600160a01b038916179055610bc881848888612a2c565b610bd23383612aa9565b50505050505050565b60106020526000908152604090208054600182015460028301546003840154600485015460059095015493949293919290916001600160a01b031686565b7f000000000000000000000000000000000000000000000000000000000000000081565b610c456126eb565b6001600160a01b0316610c566117d5565b6001600160a01b031614610cb1576040805162461bcd60e51b815260206004820181905260248201527f4f776e61626c653a2063616c6c6572206973206e6f7420746865206f776e6572604482015290519081900360640190fd5b60115415610cd15760405162461bcd60e51b8152600401610a3890613fc6565b610cdc600c83612a17565b610cf85760405162461bcd60e51b8152600401610a3890613ffd565b610d00611007565b6001600160a01b0382166000908152600b6020526040902054600e54610d31918391610d2b91612667565b9061254d565b600e556001600160a01b0382166000818152600b602052604090819020839055517f2f4ae87a584f00dc35b043dd1c5ac839c1f41cd3a66e834d4e13faa6251634e690610d7f9084906142d6565b60405180910390a280610dcd57610d97600c83612ac3565b506040516001600160a01b038316907f4106dfdaa577573db51c0ca93f766dbedfa0758faa2e7f5bcdb7c142be803c3f90600090a25b5050565b7f000000000000000000000000000000000000000000000000000000000000000081565b61092783838360405180602001604052806000815250611d93565b7f000000000000000000000000000000000000000000000000000000000000000081565b600080610e42600384612ad8565b509392505050565b60606000610e5783611337565b67ffffffffffffffff81118015610e6d57600080fd5b50604051908082528060200260200182016040528015610ea757816020015b610e94613a3a565b815260200190600190039081610e8c5790505b50905060005b610eb684611337565b811015610f80576000610ec985836109ed565b600081815260106020908152604091829020825160c081018452815481526001820154818401526002820154818501908152600383015460608084019190915260048401546080808501919091526005909401546001600160a01b0390811660a08501908152875195860188525116845282519484019490945251938201939093529293509091908101610f5c84610938565b815250848481518110610f6b57fe5b60209081029190910101525050600101610ead565b5092915050565b610f8f6126eb565b6001600160a01b0316610fa06117d5565b6001600160a01b031614610ffb576040805162461bcd60e51b815260206004820181905260248201527f4f776e61626c653a2063616c6c6572206973206e6f7420746865206f776e6572604482015290519081900360640190fd5b61100481612af4565b50565b6000611013600c6126e0565b905060005b81811015610dcd5761102e6105bc600c83612a0b565b600101611018565b6000610a12826040518060600160405280602981526020016144936029913960039190612b07565b6000818152601060205260409020600281015461108d5760405162461bcd60e51b8152600401610a38906141b5565b42816002015411156110b15760405162461bcd60e51b8152600401610a3890614147565b610dcd82612b14565b6000806110e77f000000000000000000000000000000000000000000000000000000000000000085612c02565b905060006111288460115460001461110157601154611123565b7f00000000000000000000000000000000000000000000000000000000000000005b612c19565b90508082111561113d57600092505050610a12565b611167827f0000000000000000000000000000000000000000000000000000000000000000612667565b9150611193817f0000000000000000000000000000000000000000000000000000000000000000612667565b905060026112126112026111d16111aa868661254d565b7f0000000000000000000000000000000000000000000000000000000000000000906125a7565b6111fc7f000000000000000000000000000000000000000000000000000000000000000060026125a7565b90612667565b61120c8486612667565b906125a7565b8161121957fe5b0495945050505050565b600a8054604080516020601f60026000196101006001881615020190951694909404938401819004810282018101909252828152606093909290918301828280156107d95780601f106107ae576101008083540402835291602001916107d9565b61128c613a6b565b6000611299600c84612a0b565b6001600160a01b03166000818152600b602090815260409182902082516080808201855282548252600183015482850190815260028401548387019081526003909401546060808501918252875160a081018952988952935195880195909552519486019490945290519084015251908201529392505050565b7f000000000000000000000000000000000000000000000000000000000000000081565b60006001600160a01b03821661137e5760405162461bcd60e51b815260040180806020018281038252602a815260200180614469602a913960400191505060405180910390fd5b6001600160a01b0382166000908152600260205260409020610a12906126e0565b6113a76126eb565b6001600160a01b03166113b86117d5565b6001600160a01b031614611413576040805162461bcd60e51b815260206004820181905260248201527f4f776e61626c653a2063616c6c6572206973206e6f7420746865206f776e6572604482015290519081900360640190fd5b600080546040516001600160a01b03909116907f8be0079c531659141344cd1fd0a4f28419497f9722a3daafe3b4186f6b6457e0908390a3600080547fffffffffffffffffffffffff0000000000000000000000000000000000000000169055565b600e54806114955760405162461bcd60e51b8152600401610a38906141ec565b6114ca6001600160a01b037f0000000000000000000000000000000000000000000000000000000000000000163330856124c5565b60006114d6600c6126e0565b905060005b818110156115715760006114f0600c83612a0b565b6001600160a01b0381166000908152600b602052604090206003810154919250908015611566578154600090829088906115369061120c8c670de0b6b3a76400006125a7565b8161153d57fe5b048161154557fe5b04905061155f81846002015461254d90919063ffffffff16565b6002840155505b5050506001016114db565b507ff8fad42e780bfa5459be3fe691e8ba1aec70342250112139c5771c3fd155f312836040516115a191906142d6565b60405180910390a1505050565b7f000000000000000000000000000000000000000000000000000000000000000081565b60115481565b6001600160a01b0381166000908152600b60205260409020600181015442116116015750611004565b600381015480611618575042600190910155611004565b60006116288360010154426110ba565b9050600061164f600e546116498660000154856125a790919063ffffffff16565b90612600565b9050600061165d8285612600565b600286015490915061166f908261254d565b6002860155505042600190930192909255505050565b600f5481565b3361169582611036565b6001600160a01b0316146116bb5760405162461bcd60e51b8152600401610a3890614291565b60008181526010602052604090206002810154421015806116de57506000601154115b6116fa5760405162461bcd60e51b8152600401610a38906140a2565b60058101546001600160a01b03166000818152600b6020526040902061171f826115d8565b600061172b8483612775565b90506117488460030154836003015461266790919063ffffffff16565b600383015561175685612c28565b6117603382612cf5565b8354611778906001600160a01b038516903390612dea565b505050600091825250601060205260408120818155600181018290556002810182905560038101829055600481019190915560050180547fffffffffffffffffffffffff0000000000000000000000000000000000000000169055565b6000546001600160a01b031690565b336117ee82611036565b6001600160a01b0316146118145760405162461bcd60e51b8152600401610a389061425a565b600081815260106020908152604080832060058101546001600160a01b03168452600b909252909120600282015480158015906118515750428111155b156118645761185f84612b14565b61187b565b600583015461187b906001600160a01b03166115d8565b60006118878484612775565b60006004860155600284015460038601549192506118b391670de0b6b3a76400009161164991906125a7565b60018501556118c23382612cf5565b847f7ed7f5937b354908f48cf038f68b4342cf1241b17d57850d6f715acc258ba2af826040516118f291906142d6565b60405180910390a25050505050565b60088054604080516020601f60026000196101006001881615020190951694909404938401819004810282018101909252828152606093909290918301828280156107d95780601f106107ae576101008083540402835291602001916107d9565b6000816119785750670de0b6b3a7640000610748565b60006119848342612667565b90506119d47f0000000000000000000000000000000000000000000000000000000000000000610d2b837f00000000000000000000000000000000000000000000000000000000000000006125a7565b9392505050565b600b6020526000908152604090208054600182015460028301546003909301549192909184565b611a0a6126eb565b6001600160a01b0316611a1b6117d5565b6001600160a01b031614611a76576040805162461bcd60e51b815260206004820181905260248201527f4f776e61626c653a2063616c6c6572206973206e6f7420746865206f776e6572604482015290519081900360640190fd5b611a81600c82612a17565b158015611ac057507f00000000000000000000000000000000000000000000000000000000000000006001600160a01b0316816001600160a01b031614155b611ac957600080fd5b61100433826001600160a01b03166370a08231306040518263ffffffff1660e01b8152600401611af99190613e99565b60206040518083038186803b158015611b1157600080fd5b505afa158015611b25573d6000803e3d6000fd5b505050506040513d601f19601f82011682018060405250810190611b499190613e27565b6001600160a01b0384169190612dea565b611b626126eb565b6001600160a01b0316611b736117d5565b6001600160a01b031614611bce576040805162461bcd60e51b815260206004820181905260248201527f4f776e61626c653a2063616c6c6572206973206e6f7420746865206f776e6572604482015290519081900360640190fd5b60115415611bee5760405162461bcd60e51b8152600401610a3890613fc6565b611bf6611007565b6000611c22427f00000000000000000000000000000000000000000000000000000000000000006110ba565b9050611c3f82611c3a83670de0b6b3a7640000612600565b612cf5565b426011556040517f75884cdadc4a89e8b545db800057f06ec7f5338a08183c7ba515f2bfdd9fe1e190600090a15050565b611c786126eb565b6001600160a01b0316826001600160a01b03161415611cde576040805162461bcd60e51b815260206004820152601960248201527f4552433732313a20617070726f766520746f2063616c6c657200000000000000604482015290519081900360640190fd5b8060066000611ceb6126eb565b6001600160a01b0390811682526020808301939093526040918201600090812091871680825291909352912080547fffffffffffffffffffffffffffffffffffffffffffffffffffffffffffffff001692151592909217909155611d4d6126eb565b6001600160a01b03167f17307eab39ab6107e8899845ad3d59bd9653f200f220920489ca2b5937696c318360405180821515815260200191505060405180910390a35050565b611da4611d9e6126eb565b83612823565b611ddf5760405162461bcd60e51b81526004018080602001828103825260318152602001806145a46031913960400191505060405180910390fd5b611deb84848484612e6a565b50505050565b7f000000000000000000000000000000000000000000000000000000000000000081565b6060611e20826126d3565b611e5b5760405162461bcd60e51b815260040180806020018281038252602f815260200180614554602f913960400191505060405180910390fd5b60008281526009602090815260408083208054825160026001831615610100026000190190921691909104601f810185900485028201850190935282815292909190830182828015611eee5780601f10611ec357610100808354040283529160200191611eee565b820191906000526020600020905b815481529060010190602001808311611ed157829003601f168201915b505050505090506000611eff611223565b9050805160001415611f1357509050610748565b815115611fd45780826040516020018083805190602001908083835b60208310611f4e5780518252601f199092019160209182019101611f2f565b51815160209384036101000a600019018019909216911617905285519190930192850191508083835b60208310611f965780518252601f199092019160209182019101611f77565b6001836020036101000a0380198251168184511680821785525050505050509050019250505060405160208183030381529060405292505050610748565b80611fde85612ebc565b6040516020018083805190602001908083835b602083106120105780518252601f199092019160209182019101611ff1565b51815160209384036101000a600019018019909216911617905285519190930192850191508083835b602083106120585780518252601f199092019160209182019101612039565b6001836020036101000a0380198251168184511680821785525050505050509050019250505060405160208183030381529060405292505050919050565b7f000000000000000000000000000000000000000000000000000000000000000081565b7f000000000000000000000000000000000000000000000000000000000000000081565b606060006120ec600c6126e0565b67ffffffffffffffff8111801561210257600080fd5b5060405190808252806020026020018201604052801561213c57816020015b612129613a6b565b8152602001906001900390816121215790505b50905060005b61214c600c6126e0565b81101561217b5761215c81611284565b82828151811061216857fe5b6020908102919091010152600101612142565b50905090565b7f000000000000000000000000000000000000000000000000000000000000000081565b600e5481565b6001600160a01b03918216600090815260066020908152604080832093909416825291909152205460ff1690565b670de0b6b3a764000081565b6121ed6126eb565b6001600160a01b03166121fe6117d5565b6001600160a01b031614612259576040805162461bcd60e51b815260206004820181905260248201527f4f776e61626c653a2063616c6c6572206973206e6f7420746865206f776e6572604482015290519081900360640190fd5b6001600160a01b03811661229e5760405162461bcd60e51b81526004018080602001828103825260268152602001806143956026913960400191505060405180910390fd5b600080546040516001600160a01b03808516939216917f8be0079c531659141344cd1fd0a4f28419497f9722a3daafe3b4186f6b6457e091a3600080547fffffffffffffffffffffffff0000000000000000000000000000000000000000166001600160a01b0392909216919091179055565b6123196126eb565b6001600160a01b031661232a6117d5565b6001600160a01b031614612385576040805162461bcd60e51b815260206004820181905260248201527f4f776e61626c653a2063616c6c6572206973206e6f7420746865206f776e6572604482015290519081900360640190fd5b601154156123a55760405162461bcd60e51b8152600401610a3890613fc6565b600081116123c55760405162461bcd60e51b8152600401610a3890614110565b6123cd611007565b6123d8600c83612fcb565b6123f45760405162461bcd60e51b8152600401610a389061417e565b6000612420427f0000000000000000000000000000000000000000000000000000000000000000612c02565b600e54909150612430908361254d565b600e556040805160808101825283815260208082018481526000838501818152606085018281526001600160a01b038a16808452600b909552918690209451855591516001850155905160028401555160039092019190915590517f0c98febfffcec480c66a977e13f14bafdb5199ea9603591a0715b0cabe0c3ae2906124b89085906142d6565b60405180910390a2505050565b604080516001600160a01b0380861660248301528416604482015260648082018490528251808303909101815260849091019091526020810180517bffffffffffffffffffffffffffffffffffffffffffffffffffffffff167f23b872dd00000000000000000000000000000000000000000000000000000000179052611deb908590612fe0565b600082820183811015610a0f576040805162461bcd60e51b815260206004820152601b60248201527f536166654d6174683a206164646974696f6e206f766572666c6f770000000000604482015290519081900360640190fd5b6000826125b657506000610a12565b828202828482816125c357fe5b0414610a0f5760405162461bcd60e51b81526004018080602001828103825260218152602001806144de6021913960400191505060405180910390fd5b6000808211612656576040805162461bcd60e51b815260206004820152601a60248201527f536166654d6174683a206469766973696f6e206279207a65726f000000000000604482015290519081900360640190fd5b81838161265f57fe5b049392505050565b6000828211156126be576040805162461bcd60e51b815260206004820152601e60248201527f536166654d6174683a207375627472616374696f6e206f766572666c6f770000604482015290519081900360640190fd5b50900390565b606061096a8484600085613091565b6000610a126003836131ec565b6000610a12826131f8565b3390565b600081815260056020526040902080547fffffffffffffffffffffffff0000000000000000000000000000000000000000166001600160a01b038416908117909155819061273c82611036565b6001600160a01b03167f8c5be1e5ebec7d5bd14f71427d1e84f3dd0314c0f7b2291e5b200ac8c7c3b92560405160405180910390a45050565b60028101546003820154600183015460009291904211801561279657508015155b156127e75760006127ab8560010154426110ba565b905060006127cc600e546116498860000154856125a790919063ffffffff16565b90506127e26127db8285612600565b859061254d565b935050505b61281a8560040154610d2b87600101546111fc670de0b6b3a7640000611649888c600301546125a790919063ffffffff16565b95945050505050565b600061282e826126d3565b6128695760405162461bcd60e51b815260040180806020018281038252602c815260200180614405602c913960400191505060405180910390fd5b600061287483611036565b9050806001600160a01b0316846001600160a01b031614806128af5750836001600160a01b03166128a4846107e3565b6001600160a01b0316145b8061096a575061096a81856121ab565b826001600160a01b03166128d282611036565b6001600160a01b0316146129175760405162461bcd60e51b815260040180806020018281038252602981526020018061452b6029913960400191505060405180910390fd5b6001600160a01b03821661295c5760405162461bcd60e51b81526004018080602001828103825260248152602001806143bb6024913960400191505060405180910390fd5b612967838383610927565b6129726000826126ef565b6001600160a01b038316600090815260026020526040902061299490826131fc565b506001600160a01b03821660009081526002602052604090206129b79082613208565b506129c460038284613214565b5080826001600160a01b0316846001600160a01b03167fddf252ad1be2c89b69c2b068fc378daa952ba7f163c4a11628f55a4df523b3ef60405160405180910390a4505050565b6000610a0f838361322a565b6000610a0f836001600160a01b03841661328e565b600284018190556000612a54670de0b6b3a7640000611649612a4d85611962565b86906125a7565b9050612a79670de0b6b3a76400006116498660020154846125a790919063ffffffff16565b600186015560038086015490850154612a97918391610d2b91612667565b60039485015593909201929092555050565b610dcd8282604051806020016040528060008152506132a6565b6000610a0f836001600160a01b0384166132f8565b6000808080612ae786866133be565b9097909650945050505050565b8051610dcd90600a906020840190613aa3565b600061096a848484613439565b600081815260106020908152604080832060058101546001600160a01b0316808552600b9093529220612b46826115d8565b612b508382612775565b60048401558254612b648483836000612a2c565b6000612b9c670de0b6b3a7640000611649847f00000000000000000000000000000000000000000000000000000000000000006125a7565b9050612bb26001600160a01b0385163383612dea565b612bbc8282612667565b8555604051869033907f4cdaca29662c1c6939de029e215bbebee084154866a8d05ad150e7503f167d2e90612bf29085906142d6565b60405180910390a3505050505050565b600081831015612c125781610a0f565b5090919050565b6000818310612c125781610a0f565b6000612c3382611036565b9050612c4181600084610927565b612c4c6000836126ef565b6000828152600960205260409020546002600019610100600184161502019091160415612c8a576000828152600960205260408120612c8a91613b2f565b6001600160a01b0381166000908152600260205260409020612cac90836131fc565b50612cb8600383613503565b5060405182906000906001600160a01b038416907fddf252ad1be2c89b69c2b068fc378daa952ba7f163c4a11628f55a4df523b3ef908390a45050565b6040517f70a082310000000000000000000000000000000000000000000000000000000081526000906001600160a01b037f000000000000000000000000000000000000000000000000000000000000000016906370a0823190612d5d903090600401613e99565b60206040518083038186803b158015612d7557600080fd5b505afa158015612d89573d6000803e3d6000fd5b505050506040513d601f19601f82011682018060405250810190612dad9190613e27565b905061092783612dbd8484612c19565b6001600160a01b037f00000000000000000000000000000000000000000000000000000000000000001691905b604080516001600160a01b038416602482015260448082018490528251808303909101815260649091019091526020810180517bffffffffffffffffffffffffffffffffffffffffffffffffffffffff167fa9059cbb00000000000000000000000000000000000000000000000000000000179052610927908490612fe0565b612e758484846128bf565b612e818484848461350f565b611deb5760405162461bcd60e51b81526004018080602001828103825260328152602001806143636032913960400191505060405180910390fd5b606081612efd575060408051808201909152600181527f30000000000000000000000000000000000000000000000000000000000000006020820152610748565b8160005b8115612f1557600101600a82049150612f01565b60008167ffffffffffffffff81118015612f2e57600080fd5b506040519080825280601f01601f191660200182016040528015612f59576020820181803683370190505b50859350905060001982015b8315612fc257600a840660300160f81b82828060019003935081518110612f8857fe5b60200101907effffffffffffffffffffffffffffffffffffffffffffffffffffffffffffff1916908160001a905350600a84049350612f65565b50949350505050565b6000610a0f836001600160a01b0384166136eb565b6000613035826040518060400160405280602081526020017f5361666545524332303a206c6f772d6c6576656c2063616c6c206661696c6564815250856001600160a01b03166126c49092919063ffffffff16565b8051909150156109275780806020019051602081101561305457600080fd5b50516109275760405162461bcd60e51b815260040180806020018281038252602a8152602001806145d5602a913960400191505060405180910390fd5b6060824710156130d25760405162461bcd60e51b81526004018080602001828103825260268152602001806143df6026913960400191505060405180910390fd5b6130db85613735565b61312c576040805162461bcd60e51b815260206004820152601d60248201527f416464726573733a2063616c6c20746f206e6f6e2d636f6e7472616374000000604482015290519081900360640190fd5b600080866001600160a01b031685876040518082805190602001908083835b6020831061316a5780518252601f19909201916020918201910161314b565b6001836020036101000a03801982511681845116808217855250505050505090500191505060006040518083038185875af1925050503d80600081146131cc576040519150601f19603f3d011682016040523d82523d6000602084013e6131d1565b606091505b50915091506131e182828661373b565b979650505050505050565b6000610a0f838361328e565b5490565b6000610a0f83836132f8565b6000610a0f83836136eb565b600061096a84846001600160a01b0385166137a1565b8154600090821061326c5760405162461bcd60e51b81526004018080602001828103825260228152602001806143416022913960400191505060405180910390fd5b82600001828154811061327b57fe5b9060005260206000200154905092915050565b60009081526001919091016020526040902054151590565b6132b08383613838565b6132bd600084848461350f565b6109275760405162461bcd60e51b81526004018080602001828103825260328152602001806143636032913960400191505060405180910390fd5b600081815260018301602052604081205480156133b4578354600019808301919081019060009087908390811061332b57fe5b906000526020600020015490508087600001848154811061334857fe5b60009182526020808320909101929092558281526001898101909252604090209084019055865487908061337857fe5b60019003818190600052602060002001600090559055866001016000878152602001908152602001600020600090556001945050505050610a12565b6000915050610a12565b8154600090819083106134025760405162461bcd60e51b81526004018080602001828103825260228152602001806144bc6022913960400191505060405180910390fd5b600084600001848154811061341357fe5b906000526020600020906002020190508060000154816001015492509250509250929050565b600082815260018401602052604081205482816134d45760405162461bcd60e51b81526004018080602001828103825283818151815260200191508051906020019080838360005b83811015613499578181015183820152602001613481565b50505050905090810190601f1680156134c65780820380516001836020036101000a031916815260200191505b509250505060405180910390fd5b508460000160018203815481106134e757fe5b9060005260206000209060020201600101549150509392505050565b6000610a0f8383613966565b6000613523846001600160a01b0316613735565b61352f5750600161096a565b60006136807f150b7a020000000000000000000000000000000000000000000000000000000061355d6126eb565b88878760405160240180856001600160a01b03168152602001846001600160a01b0316815260200183815260200180602001828103825283818151815260200191508051906020019080838360005b838110156135c45781810151838201526020016135ac565b50505050905090810190601f1680156135f15780820380516001836020036101000a031916815260200191505b5095505050505050604051602081830303815290604052907bffffffffffffffffffffffffffffffffffffffffffffffffffffffff19166020820180517bffffffffffffffffffffffffffffffffffffffffffffffffffffffff8381831617835250505050604051806060016040528060328152602001614363603291396001600160a01b03881691906126c4565b9050600081806020019051602081101561369957600080fd5b50517fffffffff00000000000000000000000000000000000000000000000000000000167f150b7a02000000000000000000000000000000000000000000000000000000001492505050949350505050565b60006136f7838361328e565b61372d57508154600181810184556000848152602080822090930184905584548482528286019093526040902091909155610a12565b506000610a12565b3b151590565b6060831561374a5750816119d4565b82511561375a5782518084602001fd5b60405162461bcd60e51b8152602060048201818152845160248401528451859391928392604401919085019080838360008315613499578181015183820152602001613481565b6000828152600184016020526040812054806138065750506040805180820182528381526020808201848152865460018181018955600089815284812095516002909302909501918255915190820155865486845281880190925292909120556119d4565b8285600001600183038154811061381957fe5b90600052602060002090600202016001018190555060009150506119d4565b6001600160a01b038216613893576040805162461bcd60e51b815260206004820181905260248201527f4552433732313a206d696e7420746f20746865207a65726f2061646472657373604482015290519081900360640190fd5b61389c816126d3565b156138ee576040805162461bcd60e51b815260206004820152601c60248201527f4552433732313a20746f6b656e20616c7265616479206d696e74656400000000604482015290519081900360640190fd5b6138fa60008383610927565b6001600160a01b038216600090815260026020526040902061391c9082613208565b5061392960038284613214565b5060405181906001600160a01b038416906000907fddf252ad1be2c89b69c2b068fc378daa952ba7f163c4a11628f55a4df523b3ef908290a45050565b600081815260018301602052604081205480156133b4578354600019808301919081019060009087908390811061399957fe5b90600052602060002090600202019050808760000184815481106139b957fe5b6000918252602080832084546002909302019182556001938401549184019190915583548252898301905260409020908401905586548790806139f857fe5b6000828152602080822060026000199094019384020182815560019081018390559290935588815289820190925260408220919091559450610a129350505050565b604051806080016040528060006001600160a01b031681526020016000815260200160008152602001600081525090565b6040518060a0016040528060006001600160a01b03168152602001600081526020016000815260200160008152602001600081525090565b828054600181600116156101000203166002900490600052602060002090601f016020900481019282613ad95760008555613b1f565b82601f10613af257805160ff1916838001178555613b1f565b82800160010185558215613b1f579182015b82811115613b1f578251825591602001919060010190613b04565b50613b2b929150613b6f565b5090565b50805460018160011615610100020316600290046000825580601f10613b555750611004565b601f01602090049060005260206000209081019061100491905b5b80821115613b2b5760008155600101613b70565b600067ffffffffffffffff80841115613b9957fe5b6040516020601f19601f8701168201018181108382111715613bb757fe5b604052848152915081838501861015613bcf57600080fd5b8484602083013760006020868301015250509392505050565b600060208284031215613bf9578081fd5b8135610a0f8161432b565b60008060408385031215613c16578081fd5b8235613c218161432b565b91506020830135613c318161432b565b809150509250929050565b600080600060608486031215613c50578081fd5b8335613c5b8161432b565b92506020840135613c6b8161432b565b929592945050506040919091013590565b60008060008060808587031215613c91578081fd5b8435613c9c8161432b565b93506020850135613cac8161432b565b925060408501359150606085013567ffffffffffffffff811115613cce578182fd5b8501601f81018713613cde578182fd5b613ced87823560208401613b84565b91505092959194509250565b60008060408385031215613d0b578182fd5b8235613d168161432b565b915060208301358015158114613c31578182fd5b60008060408385031215613d3c578182fd5b8235613d478161432b565b946020939093013593505050565b600060208284031215613d66578081fd5b81357fffffffff0000000000000000000000000000000000000000000000000000000081168114610a0f578182fd5b600080600060608486031215613da9578283fd5b8335613db48161432b565b95602085013595506040909401359392505050565b600060208284031215613dda578081fd5b813567ffffffffffffffff811115613df0578182fd5b8201601f81018413613e00578182fd5b61096a84823560208401613b84565b600060208284031215613e20578081fd5b5035919050565b600060208284031215613e38578081fd5b5051919050565b60008060408385031215613e51578182fd5b50508035926020909101359150565b6001600160a01b038151168252602081015160208301526040810151604083015260608101516060830152608081015160808301525050565b6001600160a01b0391909116815260200190565b602080825282518282018190526000919060409081850190868401855b82811015613f0d57815180516001600160a01b03168552868101518786015285810151868601526060908101519085015260809093019290850190600101613eca565b5091979650505050505050565b6020808252825182820181905260009190848201906040850190845b81811015613f5c57613f49838551613e60565b9284019260a09290920191600101613f36565b50909695505050505050565b901515815260200190565b6000602080835283518082850152825b81811015613f9f57858101830151858201604001528201613f83565b81811115613fb05783604083870101525b50601f01601f1916929092016040019392505050565b6020808252601d908201527f48463a20436f6e747261637420616c72656164792064697361626c6564000000604082015260600190565b60208082526015908201527f48463a204e6f6e2d6578697374616e7420706f6f6c0000000000000000000000604082015260600190565b60208082526017908201527f48463a20496e76616c696420756e6c6f636b2074696d65000000000000000000604082015260600190565b6020808252601a908201527f48463a204d757374206465706f73697420736f6d657468696e67000000000000604082015260600190565b60208082526018908201527f48463a204465706f736974207374696c6c206c6f636b65640000000000000000604082015260600190565b60208082526017908201527f48463a204c6f636b2074696d6520746f6f2073686f7274000000000000000000604082015260600190565b60208082526016908201527f48463a20546f6f206c6f7720616c6c6f636174696f6e00000000000000000000604082015260600190565b6020808252601f908201527f48463a206465706f73697420686173206e6f7420657870697265642079657400604082015260600190565b6020808252601a908201527f48463a204c5020706f6f6c20616c726561647920657869737473000000000000604082015260600190565b60208082526015908201527f48463a206e6f206c6f636b20746f206578706972650000000000000000000000604082015260600190565b60208082526014908201527f48463a206e6f20706f6f6c732063726561746564000000000000000000000000604082015260600190565b6020808252601d908201527f48463a204c6f636b2074696d652065786365656473206d6178696d756d000000604082015260600190565b6020808252601c908201527f48463a204d757374206265206f776e6572206f66206465706f73697400000000604082015260600190565b6020808252601d908201527f48463a204d757374206265206f776e657220746f207769746864726177000000604082015260600190565b60a08101610a128284613e60565b90815260200190565b93845260208401929092526040830152606082015260800190565b95865260208601949094526040850192909252606084015260808301526001600160a01b031660a082015260c00190565b6001600160a01b038116811461100457600080fdfe456e756d657261626c655365743a20696e646578206f7574206f6620626f756e64734552433732313a207472616e7366657220746f206e6f6e20455243373231526563656976657220696d706c656d656e7465724f776e61626c653a206e6577206f776e657220697320746865207a65726f20616464726573734552433732313a207472616e7366657220746f20746865207a65726f2061646472657373416464726573733a20696e73756666696369656e742062616c616e636520666f722063616c6c4552433732313a206f70657261746f7220717565727920666f72206e6f6e6578697374656e7420746f6b656e4552433732313a20617070726f76652063616c6c6572206973206e6f74206f776e6572206e6f7220617070726f76656420666f7220616c6c4552433732313a2062616c616e636520717565727920666f7220746865207a65726f20616464726573734552433732313a206f776e657220717565727920666f72206e6f6e6578697374656e7420746f6b656e456e756d657261626c654d61703a20696e646578206f7574206f6620626f756e6473536166654d6174683a206d756c7469706c69636174696f6e206f766572666c6f774552433732313a20617070726f76656420717565727920666f72206e6f6e6578697374656e7420746f6b656e4552433732313a207472616e73666572206f6620746f6b656e2074686174206973206e6f74206f776e4552433732314d657461646174613a2055524920717565727920666f72206e6f6e6578697374656e7420746f6b656e4552433732313a20617070726f76616c20746f2063757272656e74206f776e65724552433732313a207472616e736665722063616c6c6572206973206e6f74206f776e6572206e6f7220617070726f7665645361666545524332303a204552433230206f7065726174696f6e20646964206e6f742073756363656564a2646970667358221220056f36e6f573290d3ced6fedec497dc679bc05d0604d279d2bf27eb88a027de964736f6c63430007060033416464726573733a20696e73756666696369656e742062616c616e636520666f722063616c6c536166654d6174683a206d756c7469706c69636174696f6e206f766572666c6f775361666545524332303a204552433230206f7065726174696f6e20646964206e6f742073756363656564",
  "immutableReferences": {
    "69": [
      {
        "length": 32,
        "start": 3602
      },
      {
        "length": 32,
        "start": 5282
      },
      {
        "length": 32,
        "start": 6795
      },
      {
        "length": 32,
        "start": 11560
      },
      {
        "length": 32,
        "start": 11719
      }
    ],
    "85": [
      {
        "length": 32,
        "start": 4524
      },
      {
        "length": 32,
        "start": 7667
      }
    ],
    "87": [
      {
        "length": 32,
        "start": 4566
      },
      {
        "length": 32,
        "start": 8380
      }
    ],
    "89": [
      {
        "length": 32,
        "start": 2744
      },
      {
        "length": 32,
        "start": 8344
      }
    ],
    "91": [
      {
        "length": 32,
        "start": 2807
      },
      {
        "length": 32,
        "start": 8579
      }
    ],
    "93": [
      {
        "length": 32,
        "start": 4290
      },
      {
        "length": 32,
        "start": 4419
      },
      {
        "length": 32,
        "start": 4463
      },
      {
        "length": 32,
        "start": 5552
      },
      {
        "length": 32,
        "start": 9212
      }
    ],
    "95": [
      {
        "length": 32,
        "start": 3099
      },
      {
        "length": 32,
        "start": 4355
      },
      {
        "length": 32,
        "start": 7166
      }
    ],
    "97": [
      {
        "length": 32,
        "start": 4885
      },
      {
        "length": 32,
        "start": 6576
      }
    ],
    "99": [
      {
        "length": 32,
        "start": 3539
      },
      {
        "length": 32,
        "start": 6539
      }
    ],
    "101": [
      {
        "length": 32,
        "start": 2507
      },
      {
        "length": 32,
        "start": 11128
      }
    ]
  },
  "source": "// SPDX-License-Identifier: GPL-3.0-only\n// https://cheemsco.in/farm\n// https://github.com/cryptocheems/farm-contracts\npragma solidity 0.7.6;\npragma abicoder v2;\n\nimport \"@openzeppelin/contracts/token/ERC721/ERC721.sol\";\nimport \"@openzeppelin/contracts/token/ERC20/IERC20.sol\";\nimport \"@openzeppelin/contracts/token/ERC20/SafeERC20.sol\";\nimport \"@openzeppelin/contracts/utils/EnumerableSet.sol\";\nimport \"@openzeppelin/contracts/math/SafeMath.sol\";\nimport \"@openzeppelin/contracts/math/Math.sol\";\nimport \"@openzeppelin/contracts/access/Ownable.sol\";\n\n// Forked from the HoneyFarm v1 contract\n// https://github.com/1Hive/honeyswap-farm/blob/master/contracts/HoneyFarm.sol\ncontract CheemscoinFarm is Ownable, ERC721 {\n  using SafeMath for uint256;\n  using SafeERC20 for IERC20;\n  using EnumerableSet for EnumerableSet.AddressSet;\n\n  // Info of each deposit\n  struct DepositInfo {\n    uint256 amount; // How many LP tokens the user has provided.\n    uint256 rewardDebt; // Reward debt (value of accumulator)\n    uint256 unlockTime;\n    uint256 rewardShare;\n    uint256 setRewards;\n    IERC20 pool;\n  }\n\n  // Info of each pool.\n  struct PoolInfo {\n    uint256 allocation; // How many allocation points assigned to this pool.\n    // Last block timestamp that HSFs distribution occured, initially set to the startTime.\n    uint256 lastRewardTimestamp;\n    uint256 accHsfPerShare; // Accumulated HSFs per share, times SCALE.\n    uint256 totalShares; // total shares stored in pool\n  }\n\n  // Frontend view of pools\n  struct PoolDetails {\n    IERC20 poolToken;\n    uint256 allocation;\n    uint256 lastRewardTimestamp;\n    uint256 accHsfPerShare;\n    uint256 totalShares;\n  }\n\n  // Frontend view of deposit\n  struct DepositDetails {\n    IERC20 poolToken;\n    uint256 balance; // Amount of LP tokens  deposited\n    uint256 unlockTime;\n    uint256 pendingReward; // Cheems not paid yet\n  }\n\n  // What fractional numbers are scaled by\n  uint256 public constant SCALE = 1e18;\n  // The Farm token\n  IERC20 public immutable hsf;\n  // Info of each pool.\n  mapping(IERC20 => PoolInfo) public poolInfo;\n  // set of running pools\n  EnumerableSet.AddressSet internal pools;\n  // Total allocation points. Must be the sum of all allocation points in all pools.\n  uint256 public totalAllocationPoints;\n  // total deposits\n  uint256 public totalDeposits;\n  // data about infdividual deposits\n  mapping(uint256 => DepositInfo) public depositInfo;\n  /* the negative slope of the distribution line scaled by SCALE, how much\n  less is being distributed per unit of time. */\n  uint256 public immutable distributionSlope;\n  // starting distribution rate / unit time scaled by SCALE\n  uint256 public immutable startDistribution;\n  // minimum time someone can lock their liquidity for\n  uint256 public immutable minTimeLock;\n  // maximum time someone can lock their liquidity for\n  uint256 public immutable maxTimeLock;\n  // time at which coins begin being distributed\n  uint256 public immutable startTime;\n  // time at which coins finish being distributed\n  uint256 public immutable endTime;\n  // multiplier for time locked deposits / second locked scaled by SCALE\n  uint256 public immutable timeLockMultiplier;\n  // constant added to the timeLockMultiplier scaled by SCALE\n  uint256 public immutable timeLockConstant;\n  /* One time fee that is deducted from time-locked deposits given to whoever\n  downgrades it, scaled by SCALE */\n  uint256 public immutable downgradeFee;\n  // whether this contract has been disabled\n  uint256 public contractDisabledAt;\n\n  event PoolAdded(IERC20 indexed poolToken, uint256 allocation);\n  // fired when pool parameters are updated not when the updatePool() method is called\n  event PoolUpdated(IERC20 indexed poolToken, uint256 allocation);\n  event PoolRemoved(IERC20 indexed poolToken);\n  event Disabled();\n  event DepositDowngraded(\n    address indexed downgrader,\n    uint256 indexed depositId,\n    uint256 downgradeReward\n  );\n  event RewardsWithdraw(uint256 indexed depositId, uint256 rewardAmount);\n  event RewardsAdded(uint256 additionalRewardAmount);\n\n  // parameters passed as byte strings to mitigate stack too deep error\n  constructor(\n    IERC20 _hsf,\n    // uint256 _startTime,\n    // uint256 _endTime,\n    // uint256 _totalHsfToDistribute,\n    // uint256 _endDistributionFraction,\n    // uint256 _minTimeLock,\n    // uint256 _maxTimeLock,\n    // uint256 _timeLockMultiplier,\n    // uint256 _timeLockConstant,\n    // uint256 _downgradeFee\n    uint256[9] memory _parameters\n  ) ERC721(\"CheemsFarm Deposit v1\", \"CFD\") {\n    uint256 _startTime = _parameters[0];\n    uint256 _endTime = _parameters[1];\n    require(_endTime > _startTime, \"HF: endTime before startTime\");\n    uint256 _totalHsfToDistribute = _parameters[2];\n    uint256 _endDistributionFraction = _parameters[3];\n    hsf = _hsf;\n    startTime = _startTime;\n    endTime = _endTime;\n    _hsf.safeTransferFrom(msg.sender, address(this), _totalHsfToDistribute);\n\n    // check https://hackmd.io/BFrhyOTUQ3O9REs5PuZahQ for a breakdown of the maths\n    // ds = (2 * s) / (te * (r + 1))\n    uint256 startDistribution_ = _totalHsfToDistribute.mul(2).mul(SCALE).mul(SCALE).div(\n      (_endTime - _startTime).mul(_endDistributionFraction.add(SCALE))\n    );\n    // -m = ds * (1 - r) / te\n    distributionSlope = startDistribution_.mul(SCALE.sub(_endDistributionFraction)).div(\n      (_endTime - _startTime).mul(SCALE)\n    );\n    startDistribution = startDistribution_;\n\n    uint256 _minTimeLock = _parameters[4];\n    uint256 _maxTimeLock = _parameters[5];\n    require(_minTimeLock < _maxTimeLock, \"HF: invalid lock limits\");\n    minTimeLock = _minTimeLock;\n    maxTimeLock = _maxTimeLock;\n    timeLockMultiplier = _parameters[6];\n    timeLockConstant = _parameters[7];\n    downgradeFee = _parameters[8];\n  }\n\n  modifier notDisabled {\n    require(contractDisabledAt == 0, \"HF: Contract already disabled\");\n    _;\n  }\n\n  function poolLength() external view returns (uint256) {\n    return pools.length();\n  }\n\n  function getPoolByIndex(uint256 _index) public view returns (PoolDetails memory) {\n    IERC20 poolToken = IERC20(pools.at(_index));\n    PoolInfo memory pool = poolInfo[poolToken];\n    return\n      PoolDetails(\n        poolToken,\n        pool.allocation,\n        pool.lastRewardTimestamp,\n        pool.accHsfPerShare,\n        pool.totalShares\n      );\n  }\n\n  function getAllPools() external view returns (PoolDetails[] memory) {\n    PoolDetails[] memory allPools = new PoolDetails[](pools.length());\n    for (uint256 i = 0; i < pools.length(); i++) {\n      allPools[i] = getPoolByIndex(i);\n    }\n    return allPools;\n  }\n\n  function getAccountDeposits(address _account) external view returns (DepositDetails[] memory) {\n    DepositDetails[] memory allDeposits = new DepositDetails[](balanceOf(_account));\n    for (uint256 i = 0; i < balanceOf(_account); i++) {\n      uint256 depositIndex = tokenOfOwnerByIndex(_account, i);\n      DepositInfo memory d = depositInfo[depositIndex];\n      allDeposits[i] = DepositDetails(d.pool, d.amount, d.unlockTime, pendingHsf(depositIndex));\n    }\n    return allDeposits;\n  }\n\n  // underscore placed after to avoid collide with the ERC721._baseURI property\n  function setBaseURI(string memory baseURI_) external onlyOwner {\n    _setBaseURI(baseURI_);\n  }\n\n  function disableContract(address _tokenRecipient) external onlyOwner notDisabled {\n    massUpdatePools();\n    uint256 remainingTokens = getDistribution(block.timestamp, endTime);\n    _safeHsfTransfer(_tokenRecipient, remainingTokens.div(SCALE));\n    contractDisabledAt = block.timestamp;\n    emit Disabled();\n  }\n\n  function depositAdditionalRewards(uint256 _depositAmount) external {\n    uint256 totalAllocationPoints_ = totalAllocationPoints;\n    require(totalAllocationPoints_ > 0, \"HF: no pools created\");\n    hsf.safeTransferFrom(msg.sender, address(this), _depositAmount);\n    uint256 poolLen = pools.length();\n    for (uint256 i; i < poolLen; i++) {\n      IERC20 poolToken = IERC20(pools.at(i));\n      PoolInfo storage pool = poolInfo[poolToken];\n      uint256 poolTotalShares = pool.totalShares;\n      if (poolTotalShares > 0) {\n        uint256 poolScaledRewards = _depositAmount.mul(SCALE).mul(pool.allocation) /\n          totalAllocationPoints_ /\n          poolTotalShares;\n        pool.accHsfPerShare = pool.accHsfPerShare.add(poolScaledRewards);\n      }\n    }\n    emit RewardsAdded(_depositAmount);\n  }\n\n  // Add a new lp to the pool. Can only be called by the owner.\n  function add(IERC20 _lpToken, uint256 _allocation) public onlyOwner notDisabled {\n    require(_allocation > 0, \"HF: Too low allocation\");\n    massUpdatePools();\n    require(pools.add(address(_lpToken)), \"HF: LP pool already exists\");\n    uint256 lastRewardTimestamp = Math.max(block.timestamp, startTime);\n    totalAllocationPoints = totalAllocationPoints.add(_allocation);\n    poolInfo[_lpToken] = PoolInfo({\n      allocation: _allocation,\n      lastRewardTimestamp: lastRewardTimestamp,\n      accHsfPerShare: 0,\n      totalShares: 0\n    });\n    emit PoolAdded(_lpToken, _allocation);\n  }\n\n  // Update the given pool's allocation point. Can only be called by the owner.\n  function set(IERC20 _poolToken, uint256 _allocation) public onlyOwner notDisabled {\n    require(pools.contains(address(_poolToken)), \"HF: Non-existant pool\");\n    massUpdatePools();\n    totalAllocationPoints = totalAllocationPoints.sub(poolInfo[_poolToken].allocation).add(\n      _allocation\n    );\n    poolInfo[_poolToken].allocation = _allocation;\n    emit PoolUpdated(_poolToken, _allocation);\n    if (_allocation == 0) {\n      pools.remove(address(_poolToken));\n      emit PoolRemoved(_poolToken);\n    }\n  }\n\n  // get tokens to be distributed between two timestamps scaled by SCALE\n  function getDistribution(uint256 _from, uint256 _to) public view returns (uint256) {\n    uint256 from = Math.max(startTime, _from);\n    uint256 to = Math.min(_to, contractDisabledAt == 0 ? endTime : contractDisabledAt);\n\n    if (from > to) return uint256(0);\n\n    from = from.sub(startTime);\n    to = to.sub(startTime);\n\n    // check https://hackmd.io/BFrhyOTUQ3O9REs5PuZahQ for a breakdown of the maths\n    // d(t1, t2) = (t2 - t1) * (2 * ds - (-m) * (t2 + t1)) / 2\n    return to.sub(from).mul(startDistribution.mul(2).sub(distributionSlope.mul(from.add(to)))) / 2;\n  }\n\n  function getTimeMultiple(uint256 _unlockTime) public view returns (uint256) {\n    if (_unlockTime == 0) return SCALE;\n    uint256 timeDelta = _unlockTime.sub(block.timestamp);\n    return timeDelta.mul(timeLockMultiplier).add(timeLockConstant);\n  }\n\n  // View function to see pending HSFs on frontend.\n  function pendingHsf(uint256 _depositId) public view returns (uint256) {\n    DepositInfo storage deposit = depositInfo[_depositId];\n    PoolInfo storage pool = poolInfo[deposit.pool];\n    return _getPendingHsf(deposit, pool);\n  }\n\n  // Deposit LP tokens into the farm to earn HSF\n  function createDeposit(\n    IERC20 _poolToken,\n    uint256 _amount,\n    uint256 _unlockTime\n  ) external notDisabled {\n    require(_amount > 0, \"HF: Must deposit something\");\n    require(_unlockTime > block.timestamp, \"HF: Invalid unlock time\");\n    require(pools.contains(address(_poolToken)), \"HF: Non-existant pool\");\n    uint256 lockDuration = _unlockTime.sub(block.timestamp);\n    require(minTimeLock <= lockDuration, \"HF: Lock time too short\");\n    require(lockDuration <= maxTimeLock, \"HF: Lock time exceeds maximum\");\n\n    PoolInfo storage pool = poolInfo[_poolToken];\n    updatePool(_poolToken);\n    _poolToken.safeTransferFrom(address(msg.sender), address(this), _amount);\n    uint256 newDepositId = totalDeposits++;\n    DepositInfo storage newDeposit = depositInfo[newDepositId];\n    newDeposit.amount = _amount;\n    newDeposit.pool = _poolToken;\n    _resetRewardAccs(newDeposit, pool, _amount, _unlockTime);\n    _safeMint(msg.sender, newDepositId);\n  }\n\n  // Withdraw LP tokens along with reward\n  function closeDeposit(uint256 _depositId) external {\n    require(ownerOf(_depositId) == msg.sender, \"HF: Must be owner to withdraw\");\n    DepositInfo storage deposit = depositInfo[_depositId];\n    require(\n      deposit.unlockTime <= block.timestamp || contractDisabledAt > 0,\n      \"HF: Deposit still locked\"\n    );\n    // require(\n    //   deposit.unlockTime == 0 || deposit.unlockTime <= block.timestamp || contractDisabledAt > 0,\n    //   \"HF: Deposit still locked\"\n    // );\n    IERC20 poolToken = deposit.pool;\n    PoolInfo storage pool = poolInfo[poolToken];\n    updatePool(poolToken);\n\n    uint256 pending = _getPendingHsf(deposit, pool);\n    pool.totalShares = pool.totalShares.sub(deposit.rewardShare);\n    _burn(_depositId);\n    _safeHsfTransfer(msg.sender, pending);\n    poolToken.safeTransfer(msg.sender, deposit.amount);\n    delete depositInfo[_depositId];\n  }\n\n  function withdrawRewards(uint256 _depositId) external {\n    require(ownerOf(_depositId) == msg.sender, \"HF: Must be owner of deposit\");\n    DepositInfo storage deposit = depositInfo[_depositId];\n    PoolInfo storage pool = poolInfo[deposit.pool];\n    uint256 _unlockTime = deposit.unlockTime;\n    if (_unlockTime > 0 && _unlockTime <= block.timestamp) {\n      _downgradeExpired(_depositId);\n    } else {\n      updatePool(deposit.pool);\n    }\n    uint256 pendingRewards = _getPendingHsf(deposit, pool);\n    deposit.setRewards = uint256(0);\n    deposit.rewardDebt = deposit.rewardShare.mul(pool.accHsfPerShare).div(SCALE);\n    _safeHsfTransfer(msg.sender, pendingRewards);\n    emit RewardsWithdraw(_depositId, pendingRewards);\n  }\n\n  // This exists so if an ERC20 is accidentally sent to this contract, the funds can be recovered\n  function recoverToken(IERC20 _token) external onlyOwner {\n    // So owner cannot steal desposited funds\n    require(!pools.contains(address(_token)) && _token != hsf);\n    _token.safeTransfer(msg.sender, _token.balanceOf(address(this)));\n  }\n\n  function downgradeExpired(uint256 _depositId) public {\n    DepositInfo storage deposit = depositInfo[_depositId];\n    require(deposit.unlockTime > 0, \"HF: no lock to expire\");\n    require(deposit.unlockTime <= block.timestamp, \"HF: deposit has not expired yet\");\n    _downgradeExpired(_depositId);\n  }\n\n  // Update reward variables for all pools. Be careful of gas spending!\n  function massUpdatePools() public {\n    uint256 length = pools.length();\n    for (uint256 pid = 0; pid < length; pid++) {\n      updatePool(IERC20(pools.at(pid)));\n    }\n  }\n\n  // Update reward variables of the given pool to be up-to-date.\n  function updatePool(IERC20 _poolToken) public {\n    PoolInfo storage pool = poolInfo[_poolToken];\n    if (block.timestamp <= pool.lastRewardTimestamp) {\n      return;\n    }\n    uint256 totalShares = pool.totalShares;\n    if (totalShares == 0) {\n      pool.lastRewardTimestamp = block.timestamp;\n      return;\n    }\n    uint256 dist = getDistribution(pool.lastRewardTimestamp, block.timestamp);\n    uint256 hsfReward = dist.mul(pool.allocation).div(totalAllocationPoints);\n    uint256 poolScaledRewards = hsfReward.div(totalShares);\n    pool.accHsfPerShare = pool.accHsfPerShare.add(poolScaledRewards);\n    pool.lastRewardTimestamp = block.timestamp;\n  }\n\n  function _downgradeExpired(uint256 _depositId) internal {\n    DepositInfo storage deposit = depositInfo[_depositId];\n    IERC20 poolToken = deposit.pool;\n    PoolInfo storage pool = poolInfo[poolToken];\n    updatePool(poolToken);\n    deposit.setRewards = _getPendingHsf(deposit, pool);\n    uint256 amount = deposit.amount;\n    _resetRewardAccs(deposit, pool, amount, 0);\n    // TODO: look into this (refer to audit)\n    uint256 downgradeReward = amount.mul(downgradeFee).div(SCALE);\n    poolToken.safeTransfer(msg.sender, downgradeReward);\n    deposit.amount = amount.sub(downgradeReward);\n    emit DepositDowngraded(msg.sender, _depositId, downgradeReward);\n  }\n\n  function _getPendingHsf(DepositInfo storage _deposit, PoolInfo storage _pool)\n    internal\n    view\n    returns (uint256)\n  {\n    uint256 accHsfPerShare = _pool.accHsfPerShare;\n    uint256 totalShares = _pool.totalShares;\n    if (block.timestamp > _pool.lastRewardTimestamp && totalShares != 0) {\n      uint256 dist = getDistribution(_pool.lastRewardTimestamp, block.timestamp);\n      uint256 hsfReward = dist.mul(_pool.allocation).div(totalAllocationPoints);\n      accHsfPerShare = accHsfPerShare.add(hsfReward.div(totalShares));\n    }\n    return\n      _deposit.rewardShare.mul(accHsfPerShare).div(SCALE).sub(_deposit.rewardDebt).add(\n        _deposit.setRewards\n      );\n  }\n\n  function _resetRewardAccs(\n    DepositInfo storage _deposit,\n    PoolInfo storage _pool,\n    uint256 _amount,\n    uint256 _unlockTime\n  ) internal {\n    _deposit.unlockTime = _unlockTime;\n    uint256 newShares = _amount.mul(getTimeMultiple(_unlockTime)).div(SCALE);\n    _deposit.rewardDebt = newShares.mul(_pool.accHsfPerShare).div(SCALE);\n    _pool.totalShares = _pool.totalShares.sub(_deposit.rewardShare).add(newShares);\n    _deposit.rewardShare = newShares;\n  }\n\n  /* Safe hsf transfer function, just in case if rounding error causes pool\n  to not have enough HSFs. */\n  function _safeHsfTransfer(address _to, uint256 _amount) internal {\n    uint256 hsfBal = hsf.balanceOf(address(this));\n    hsf.safeTransfer(_to, Math.min(_amount, hsfBal));\n  }\n}\n",
  "sourcePath": "/Users/kaikurosawa/Desktop/code/farm-contracts/contracts/CheemscoinFarm.sol",
  "compiler": {
    "name": "solc",
    "version": "0.7.6+commit.7338295f.Emscripten.clang"
  },
  "schemaVersion": "3.3.3",
  "updatedAt": "2021-06-28T01:55:56.344Z",
  "networkType": "ethereum",
  "devdoc": {
    "kind": "dev",
    "methods": {
      "approve(address,uint256)": {
        "details": "See {IERC721-approve}."
      },
      "balanceOf(address)": {
        "details": "See {IERC721-balanceOf}."
      },
      "baseURI()": {
        "details": "Returns the base URI set via {_setBaseURI}. This will be automatically added as a prefix in {tokenURI} to each token's URI, or to the token ID if no specific URI is set for that token ID."
      },
      "getApproved(uint256)": {
        "details": "See {IERC721-getApproved}."
      },
      "isApprovedForAll(address,address)": {
        "details": "See {IERC721-isApprovedForAll}."
      },
      "name()": {
        "details": "See {IERC721Metadata-name}."
      },
      "owner()": {
        "details": "Returns the address of the current owner."
      },
      "ownerOf(uint256)": {
        "details": "See {IERC721-ownerOf}."
      },
      "renounceOwnership()": {
        "details": "Leaves the contract without owner. It will not be possible to call `onlyOwner` functions anymore. Can only be called by the current owner. NOTE: Renouncing ownership will leave the contract without an owner, thereby removing any functionality that is only available to the owner."
      },
      "safeTransferFrom(address,address,uint256)": {
        "details": "See {IERC721-safeTransferFrom}."
      },
      "safeTransferFrom(address,address,uint256,bytes)": {
        "details": "See {IERC721-safeTransferFrom}."
      },
      "setApprovalForAll(address,bool)": {
        "details": "See {IERC721-setApprovalForAll}."
      },
      "supportsInterface(bytes4)": {
        "details": "See {IERC165-supportsInterface}. Time complexity O(1), guaranteed to always use less than 30 000 gas."
      },
      "symbol()": {
        "details": "See {IERC721Metadata-symbol}."
      },
      "tokenByIndex(uint256)": {
        "details": "See {IERC721Enumerable-tokenByIndex}."
      },
      "tokenOfOwnerByIndex(address,uint256)": {
        "details": "See {IERC721Enumerable-tokenOfOwnerByIndex}."
      },
      "tokenURI(uint256)": {
        "details": "See {IERC721Metadata-tokenURI}."
      },
      "totalSupply()": {
        "details": "See {IERC721Enumerable-totalSupply}."
      },
      "transferFrom(address,address,uint256)": {
        "details": "See {IERC721-transferFrom}."
      },
      "transferOwnership(address)": {
        "details": "Transfers ownership of the contract to a new account (`newOwner`). Can only be called by the current owner."
      }
    },
    "version": 1
  },
  "userdoc": {
    "kind": "user",
    "methods": {},
    "version": 1
  }
}