{
  "contractName": "CheemscoinFarm",
  "abi": [
    {
      "inputs": [
        {
          "internalType": "contract IERC20",
          "name": "_hsf",
          "type": "address"
        },
        {
          "internalType": "uint256[9]",
          "name": "_parameters",
          "type": "uint256[9]"
        }
      ],
      "stateMutability": "nonpayable",
      "type": "constructor"
    },
    {
      "anonymous": false,
      "inputs": [
        {
          "indexed": true,
          "internalType": "address",
          "name": "owner",
          "type": "address"
        },
        {
          "indexed": true,
          "internalType": "address",
          "name": "approved",
          "type": "address"
        },
        {
          "indexed": true,
          "internalType": "uint256",
          "name": "tokenId",
          "type": "uint256"
        }
      ],
      "name": "Approval",
      "type": "event"
    },
    {
      "anonymous": false,
      "inputs": [
        {
          "indexed": true,
          "internalType": "address",
          "name": "owner",
          "type": "address"
        },
        {
          "indexed": true,
          "internalType": "address",
          "name": "operator",
          "type": "address"
        },
        {
          "indexed": false,
          "internalType": "bool",
          "name": "approved",
          "type": "bool"
        }
      ],
      "name": "ApprovalForAll",
      "type": "event"
    },
    {
      "anonymous": false,
      "inputs": [
        {
          "indexed": true,
          "internalType": "address",
          "name": "downgrader",
          "type": "address"
        },
        {
          "indexed": true,
          "internalType": "uint256",
          "name": "depositId",
          "type": "uint256"
        },
        {
          "indexed": false,
          "internalType": "uint256",
          "name": "downgradeReward",
          "type": "uint256"
        }
      ],
      "name": "DepositDowngraded",
      "type": "event"
    },
    {
      "anonymous": false,
      "inputs": [],
      "name": "Disabled",
      "type": "event"
    },
    {
      "anonymous": false,
      "inputs": [
        {
          "indexed": true,
          "internalType": "address",
          "name": "previousOwner",
          "type": "address"
        },
        {
          "indexed": true,
          "internalType": "address",
          "name": "newOwner",
          "type": "address"
        }
      ],
      "name": "OwnershipTransferred",
      "type": "event"
    },
    {
      "anonymous": false,
      "inputs": [
        {
          "indexed": true,
          "internalType": "contract IERC20",
          "name": "poolToken",
          "type": "address"
        },
        {
          "indexed": false,
          "internalType": "uint256",
          "name": "allocation",
          "type": "uint256"
        }
      ],
      "name": "PoolAdded",
      "type": "event"
    },
    {
      "anonymous": false,
      "inputs": [
        {
          "indexed": true,
          "internalType": "contract IERC20",
          "name": "poolToken",
          "type": "address"
        }
      ],
      "name": "PoolRemoved",
      "type": "event"
    },
    {
      "anonymous": false,
      "inputs": [
        {
          "indexed": true,
          "internalType": "contract IERC20",
          "name": "poolToken",
          "type": "address"
        },
        {
          "indexed": false,
          "internalType": "uint256",
          "name": "allocation",
          "type": "uint256"
        }
      ],
      "name": "PoolUpdated",
      "type": "event"
    },
    {
      "anonymous": false,
      "inputs": [
        {
          "indexed": false,
          "internalType": "uint256",
          "name": "additionalRewardAmount",
          "type": "uint256"
        }
      ],
      "name": "RewardsAdded",
      "type": "event"
    },
    {
      "anonymous": false,
      "inputs": [
        {
          "indexed": true,
          "internalType": "uint256",
          "name": "depositId",
          "type": "uint256"
        },
        {
          "indexed": false,
          "internalType": "uint256",
          "name": "rewardAmount",
          "type": "uint256"
        }
      ],
      "name": "RewardsWithdraw",
      "type": "event"
    },
    {
      "anonymous": false,
      "inputs": [
        {
          "indexed": true,
          "internalType": "address",
          "name": "from",
          "type": "address"
        },
        {
          "indexed": true,
          "internalType": "address",
          "name": "to",
          "type": "address"
        },
        {
          "indexed": true,
          "internalType": "uint256",
          "name": "tokenId",
          "type": "uint256"
        }
      ],
      "name": "Transfer",
      "type": "event"
    },
    {
      "inputs": [],
      "name": "SCALE",
      "outputs": [
        {
          "internalType": "uint256",
          "name": "",
          "type": "uint256"
        }
      ],
      "stateMutability": "view",
      "type": "function",
      "constant": true
    },
    {
      "inputs": [
        {
          "internalType": "address",
          "name": "to",
          "type": "address"
        },
        {
          "internalType": "uint256",
          "name": "tokenId",
          "type": "uint256"
        }
      ],
      "name": "approve",
      "outputs": [],
      "stateMutability": "nonpayable",
      "type": "function"
    },
    {
      "inputs": [
        {
          "internalType": "address",
          "name": "owner",
          "type": "address"
        }
      ],
      "name": "balanceOf",
      "outputs": [
        {
          "internalType": "uint256",
          "name": "",
          "type": "uint256"
        }
      ],
      "stateMutability": "view",
      "type": "function",
      "constant": true
    },
    {
      "inputs": [],
      "name": "baseURI",
      "outputs": [
        {
          "internalType": "string",
          "name": "",
          "type": "string"
        }
      ],
      "stateMutability": "view",
      "type": "function",
      "constant": true
    },
    {
      "inputs": [],
      "name": "contractDisabledAt",
      "outputs": [
        {
          "internalType": "uint256",
          "name": "",
          "type": "uint256"
        }
      ],
      "stateMutability": "view",
      "type": "function",
      "constant": true
    },
    {
      "inputs": [
        {
          "internalType": "uint256",
          "name": "",
          "type": "uint256"
        }
      ],
      "name": "depositInfo",
      "outputs": [
        {
          "internalType": "uint256",
          "name": "amount",
          "type": "uint256"
        },
        {
          "internalType": "uint256",
          "name": "rewardDebt",
          "type": "uint256"
        },
        {
          "internalType": "uint256",
          "name": "unlockTime",
          "type": "uint256"
        },
        {
          "internalType": "uint256",
          "name": "rewardShare",
          "type": "uint256"
        },
        {
          "internalType": "uint256",
          "name": "setRewards",
          "type": "uint256"
        },
        {
          "internalType": "contract IERC20",
          "name": "pool",
          "type": "address"
        }
      ],
      "stateMutability": "view",
      "type": "function",
      "constant": true
    },
    {
      "inputs": [],
      "name": "distributionSlope",
      "outputs": [
        {
          "internalType": "uint256",
          "name": "",
          "type": "uint256"
        }
      ],
      "stateMutability": "view",
      "type": "function",
      "constant": true
    },
    {
      "inputs": [],
      "name": "downgradeFee",
      "outputs": [
        {
          "internalType": "uint256",
          "name": "",
          "type": "uint256"
        }
      ],
      "stateMutability": "view",
      "type": "function",
      "constant": true
    },
    {
      "inputs": [],
      "name": "endTime",
      "outputs": [
        {
          "internalType": "uint256",
          "name": "",
          "type": "uint256"
        }
      ],
      "stateMutability": "view",
      "type": "function",
      "constant": true
    },
    {
      "inputs": [
        {
          "internalType": "uint256",
          "name": "tokenId",
          "type": "uint256"
        }
      ],
      "name": "getApproved",
      "outputs": [
        {
          "internalType": "address",
          "name": "",
          "type": "address"
        }
      ],
      "stateMutability": "view",
      "type": "function",
      "constant": true
    },
    {
      "inputs": [],
      "name": "hsf",
      "outputs": [
        {
          "internalType": "contract IERC20",
          "name": "",
          "type": "address"
        }
      ],
      "stateMutability": "view",
      "type": "function",
      "constant": true
    },
    {
      "inputs": [
        {
          "internalType": "address",
          "name": "owner",
          "type": "address"
        },
        {
          "internalType": "address",
          "name": "operator",
          "type": "address"
        }
      ],
      "name": "isApprovedForAll",
      "outputs": [
        {
          "internalType": "bool",
          "name": "",
          "type": "bool"
        }
      ],
      "stateMutability": "view",
      "type": "function",
      "constant": true
    },
    {
      "inputs": [],
      "name": "maxTimeLock",
      "outputs": [
        {
          "internalType": "uint256",
          "name": "",
          "type": "uint256"
        }
      ],
      "stateMutability": "view",
      "type": "function",
      "constant": true
    },
    {
      "inputs": [],
      "name": "minTimeLock",
      "outputs": [
        {
          "internalType": "uint256",
          "name": "",
          "type": "uint256"
        }
      ],
      "stateMutability": "view",
      "type": "function",
      "constant": true
    },
    {
      "inputs": [],
      "name": "name",
      "outputs": [
        {
          "internalType": "string",
          "name": "",
          "type": "string"
        }
      ],
      "stateMutability": "view",
      "type": "function",
      "constant": true
    },
    {
      "inputs": [],
      "name": "owner",
      "outputs": [
        {
          "internalType": "address",
          "name": "",
          "type": "address"
        }
      ],
      "stateMutability": "view",
      "type": "function",
      "constant": true
    },
    {
      "inputs": [
        {
          "internalType": "uint256",
          "name": "tokenId",
          "type": "uint256"
        }
      ],
      "name": "ownerOf",
      "outputs": [
        {
          "internalType": "address",
          "name": "",
          "type": "address"
        }
      ],
      "stateMutability": "view",
      "type": "function",
      "constant": true
    },
    {
      "inputs": [
        {
          "internalType": "contract IERC20",
          "name": "",
          "type": "address"
        }
      ],
      "name": "poolInfo",
      "outputs": [
        {
          "internalType": "uint256",
          "name": "allocation",
          "type": "uint256"
        },
        {
          "internalType": "uint256",
          "name": "lastRewardTimestamp",
          "type": "uint256"
        },
        {
          "internalType": "uint256",
          "name": "accHsfPerShare",
          "type": "uint256"
        },
        {
          "internalType": "uint256",
          "name": "totalShares",
          "type": "uint256"
        }
      ],
      "stateMutability": "view",
      "type": "function",
      "constant": true
    },
    {
      "inputs": [],
      "name": "renounceOwnership",
      "outputs": [],
      "stateMutability": "nonpayable",
      "type": "function"
    },
    {
      "inputs": [
        {
          "internalType": "address",
          "name": "from",
          "type": "address"
        },
        {
          "internalType": "address",
          "name": "to",
          "type": "address"
        },
        {
          "internalType": "uint256",
          "name": "tokenId",
          "type": "uint256"
        }
      ],
      "name": "safeTransferFrom",
      "outputs": [],
      "stateMutability": "nonpayable",
      "type": "function"
    },
    {
      "inputs": [
        {
          "internalType": "address",
          "name": "from",
          "type": "address"
        },
        {
          "internalType": "address",
          "name": "to",
          "type": "address"
        },
        {
          "internalType": "uint256",
          "name": "tokenId",
          "type": "uint256"
        },
        {
          "internalType": "bytes",
          "name": "_data",
          "type": "bytes"
        }
      ],
      "name": "safeTransferFrom",
      "outputs": [],
      "stateMutability": "nonpayable",
      "type": "function"
    },
    {
      "inputs": [
        {
          "internalType": "address",
          "name": "operator",
          "type": "address"
        },
        {
          "internalType": "bool",
          "name": "approved",
          "type": "bool"
        }
      ],
      "name": "setApprovalForAll",
      "outputs": [],
      "stateMutability": "nonpayable",
      "type": "function"
    },
    {
      "inputs": [],
      "name": "startDistribution",
      "outputs": [
        {
          "internalType": "uint256",
          "name": "",
          "type": "uint256"
        }
      ],
      "stateMutability": "view",
      "type": "function",
      "constant": true
    },
    {
      "inputs": [],
      "name": "startTime",
      "outputs": [
        {
          "internalType": "uint256",
          "name": "",
          "type": "uint256"
        }
      ],
      "stateMutability": "view",
      "type": "function",
      "constant": true
    },
    {
      "inputs": [
        {
          "internalType": "bytes4",
          "name": "interfaceId",
          "type": "bytes4"
        }
      ],
      "name": "supportsInterface",
      "outputs": [
        {
          "internalType": "bool",
          "name": "",
          "type": "bool"
        }
      ],
      "stateMutability": "view",
      "type": "function",
      "constant": true
    },
    {
      "inputs": [],
      "name": "symbol",
      "outputs": [
        {
          "internalType": "string",
          "name": "",
          "type": "string"
        }
      ],
      "stateMutability": "view",
      "type": "function",
      "constant": true
    },
    {
      "inputs": [],
      "name": "timeLockConstant",
      "outputs": [
        {
          "internalType": "uint256",
          "name": "",
          "type": "uint256"
        }
      ],
      "stateMutability": "view",
      "type": "function",
      "constant": true
    },
    {
      "inputs": [],
      "name": "timeLockMultiplier",
      "outputs": [
        {
          "internalType": "uint256",
          "name": "",
          "type": "uint256"
        }
      ],
      "stateMutability": "view",
      "type": "function",
      "constant": true
    },
    {
      "inputs": [
        {
          "internalType": "uint256",
          "name": "index",
          "type": "uint256"
        }
      ],
      "name": "tokenByIndex",
      "outputs": [
        {
          "internalType": "uint256",
          "name": "",
          "type": "uint256"
        }
      ],
      "stateMutability": "view",
      "type": "function",
      "constant": true
    },
    {
      "inputs": [
        {
          "internalType": "address",
          "name": "owner",
          "type": "address"
        },
        {
          "internalType": "uint256",
          "name": "index",
          "type": "uint256"
        }
      ],
      "name": "tokenOfOwnerByIndex",
      "outputs": [
        {
          "internalType": "uint256",
          "name": "",
          "type": "uint256"
        }
      ],
      "stateMutability": "view",
      "type": "function",
      "constant": true
    },
    {
      "inputs": [
        {
          "internalType": "uint256",
          "name": "tokenId",
          "type": "uint256"
        }
      ],
      "name": "tokenURI",
      "outputs": [
        {
          "internalType": "string",
          "name": "",
          "type": "string"
        }
      ],
      "stateMutability": "view",
      "type": "function",
      "constant": true
    },
    {
      "inputs": [],
      "name": "totalAllocationPoints",
      "outputs": [
        {
          "internalType": "uint256",
          "name": "",
          "type": "uint256"
        }
      ],
      "stateMutability": "view",
      "type": "function",
      "constant": true
    },
    {
      "inputs": [],
      "name": "totalDeposits",
      "outputs": [
        {
          "internalType": "uint256",
          "name": "",
          "type": "uint256"
        }
      ],
      "stateMutability": "view",
      "type": "function",
      "constant": true
    },
    {
      "inputs": [],
      "name": "totalSupply",
      "outputs": [
        {
          "internalType": "uint256",
          "name": "",
          "type": "uint256"
        }
      ],
      "stateMutability": "view",
      "type": "function",
      "constant": true
    },
    {
      "inputs": [
        {
          "internalType": "address",
          "name": "from",
          "type": "address"
        },
        {
          "internalType": "address",
          "name": "to",
          "type": "address"
        },
        {
          "internalType": "uint256",
          "name": "tokenId",
          "type": "uint256"
        }
      ],
      "name": "transferFrom",
      "outputs": [],
      "stateMutability": "nonpayable",
      "type": "function"
    },
    {
      "inputs": [
        {
          "internalType": "address",
          "name": "newOwner",
          "type": "address"
        }
      ],
      "name": "transferOwnership",
      "outputs": [],
      "stateMutability": "nonpayable",
      "type": "function"
    },
    {
      "inputs": [],
      "name": "poolLength",
      "outputs": [
        {
          "internalType": "uint256",
          "name": "",
          "type": "uint256"
        }
      ],
      "stateMutability": "view",
      "type": "function",
      "constant": true
    },
    {
      "inputs": [
        {
          "internalType": "uint256",
          "name": "_index",
          "type": "uint256"
        }
      ],
      "name": "getPoolByIndex",
      "outputs": [
        {
          "components": [
            {
              "internalType": "contract IERC20",
              "name": "poolToken",
              "type": "address"
            },
            {
              "internalType": "uint256",
              "name": "hsfInDay",
              "type": "uint256"
            },
            {
              "internalType": "uint256",
              "name": "poolTokenBalance",
              "type": "uint256"
            }
          ],
          "internalType": "struct CheemscoinFarm.PoolDetails",
          "name": "",
          "type": "tuple"
        }
      ],
      "stateMutability": "view",
      "type": "function",
      "constant": true
    },
    {
      "inputs": [],
      "name": "getAllPools",
      "outputs": [
        {
          "components": [
            {
              "internalType": "contract IERC20",
              "name": "poolToken",
              "type": "address"
            },
            {
              "internalType": "uint256",
              "name": "hsfInDay",
              "type": "uint256"
            },
            {
              "internalType": "uint256",
              "name": "poolTokenBalance",
              "type": "uint256"
            }
          ],
          "internalType": "struct CheemscoinFarm.PoolDetails[]",
          "name": "",
          "type": "tuple[]"
        }
      ],
      "stateMutability": "view",
      "type": "function",
      "constant": true
    },
    {
      "inputs": [
        {
          "internalType": "address",
          "name": "_account",
          "type": "address"
        }
      ],
      "name": "getAccountDeposits",
      "outputs": [
        {
          "components": [
            {
              "internalType": "contract IERC20",
              "name": "poolToken",
              "type": "address"
            },
            {
              "internalType": "uint256",
              "name": "balance",
              "type": "uint256"
            },
            {
              "internalType": "uint256",
              "name": "unlockTime",
              "type": "uint256"
            },
            {
              "internalType": "uint256",
              "name": "pendingReward",
              "type": "uint256"
            },
            {
              "internalType": "uint256",
              "name": "id",
              "type": "uint256"
            }
          ],
          "internalType": "struct CheemscoinFarm.DepositDetails[]",
          "name": "",
          "type": "tuple[]"
        }
      ],
      "stateMutability": "view",
      "type": "function",
      "constant": true
    },
    {
      "inputs": [],
      "name": "getExpiredDepositIds",
      "outputs": [
        {
          "components": [
            {
              "internalType": "uint256",
              "name": "id",
              "type": "uint256"
            },
            {
              "internalType": "contract IERC20",
              "name": "poolToken",
              "type": "address"
            },
            {
              "internalType": "uint256",
              "name": "reward",
              "type": "uint256"
            }
          ],
          "internalType": "struct CheemscoinFarm.ExpiredDeposit[]",
          "name": "",
          "type": "tuple[]"
        }
      ],
      "stateMutability": "view",
      "type": "function",
      "constant": true
    },
    {
      "inputs": [
        {
          "internalType": "string",
          "name": "baseURI_",
          "type": "string"
        }
      ],
      "name": "setBaseURI",
      "outputs": [],
      "stateMutability": "nonpayable",
      "type": "function"
    },
    {
      "inputs": [
        {
          "internalType": "address",
          "name": "_tokenRecipient",
          "type": "address"
        }
      ],
      "name": "disableContract",
      "outputs": [],
      "stateMutability": "nonpayable",
      "type": "function"
    },
    {
      "inputs": [
        {
          "internalType": "uint256",
          "name": "_depositAmount",
          "type": "uint256"
        }
      ],
      "name": "depositAdditionalRewards",
      "outputs": [],
      "stateMutability": "nonpayable",
      "type": "function"
    },
    {
      "inputs": [
        {
          "internalType": "contract IERC20",
          "name": "_lpToken",
          "type": "address"
        },
        {
          "internalType": "uint256",
          "name": "_allocation",
          "type": "uint256"
        }
      ],
      "name": "add",
      "outputs": [],
      "stateMutability": "nonpayable",
      "type": "function"
    },
    {
      "inputs": [
        {
          "internalType": "contract IERC20",
          "name": "_poolToken",
          "type": "address"
        },
        {
          "internalType": "uint256",
          "name": "_allocation",
          "type": "uint256"
        }
      ],
      "name": "set",
      "outputs": [],
      "stateMutability": "nonpayable",
      "type": "function"
    },
    {
      "inputs": [
        {
          "internalType": "uint256",
          "name": "_from",
          "type": "uint256"
        },
        {
          "internalType": "uint256",
          "name": "_to",
          "type": "uint256"
        }
      ],
      "name": "getDistribution",
      "outputs": [
        {
          "internalType": "uint256",
          "name": "",
          "type": "uint256"
        }
      ],
      "stateMutability": "view",
      "type": "function",
      "constant": true
    },
    {
      "inputs": [
        {
          "internalType": "uint256",
          "name": "_unlockTime",
          "type": "uint256"
        }
      ],
      "name": "getTimeMultiple",
      "outputs": [
        {
          "internalType": "uint256",
          "name": "",
          "type": "uint256"
        }
      ],
      "stateMutability": "view",
      "type": "function",
      "constant": true
    },
    {
      "inputs": [
        {
          "internalType": "uint256",
          "name": "_depositId",
          "type": "uint256"
        }
      ],
      "name": "pendingHsf",
      "outputs": [
        {
          "internalType": "uint256",
          "name": "",
          "type": "uint256"
        }
      ],
      "stateMutability": "view",
      "type": "function",
      "constant": true
    },
    {
      "inputs": [
        {
          "internalType": "contract IERC20",
          "name": "_poolToken",
          "type": "address"
        },
        {
          "internalType": "uint256",
          "name": "_amount",
          "type": "uint256"
        },
        {
          "internalType": "uint256",
          "name": "_unlockTime",
          "type": "uint256"
        }
      ],
      "name": "createDeposit",
      "outputs": [],
      "stateMutability": "nonpayable",
      "type": "function"
    },
    {
      "inputs": [
        {
          "internalType": "uint256",
          "name": "_depositId",
          "type": "uint256"
        }
      ],
      "name": "closeDeposit",
      "outputs": [],
      "stateMutability": "nonpayable",
      "type": "function"
    },
    {
      "inputs": [
        {
          "internalType": "uint256",
          "name": "_depositId",
          "type": "uint256"
        }
      ],
      "name": "withdrawRewards",
      "outputs": [],
      "stateMutability": "nonpayable",
      "type": "function"
    },
    {
      "inputs": [
        {
          "internalType": "contract IERC20",
          "name": "_token",
          "type": "address"
        }
      ],
      "name": "recoverToken",
      "outputs": [],
      "stateMutability": "nonpayable",
      "type": "function"
    },
    {
      "inputs": [
        {
          "internalType": "uint256",
          "name": "_depositId",
          "type": "uint256"
        }
      ],
      "name": "downgradeExpired",
      "outputs": [],
      "stateMutability": "nonpayable",
      "type": "function"
    },
    {
      "inputs": [],
      "name": "massUpdatePools",
      "outputs": [],
      "stateMutability": "nonpayable",
      "type": "function"
    },
    {
      "inputs": [
        {
          "internalType": "contract IERC20",
          "name": "_poolToken",
          "type": "address"
        }
      ],
      "name": "updatePool",
      "outputs": [],
      "stateMutability": "nonpayable",
      "type": "function"
    }
  ],
  "bytecode": "0x6101c06040523480156200001257600080fd5b50604051620054963803806200549683398101604081905262000035916200095c565b6040518060400160405280601581526020017f436865656d734661726d204465706f73697420763100000000000000000000008152506040518060400160405280600381526020016210d19160ea1b8152506000620000996200034260201b60201c565b600080546001600160a01b0319166001600160a01b0383169081178255604051929350917f8be0079c531659141344cd1fd0a4f28419497f9722a3daafe3b4186f6b6457e0908290a350620000f56301ffc9a760e01b62000346565b81516200010a906007906020850190620008b0565b50805162000120906008906020840190620008b0565b50620001336380ac58cd60e01b62000346565b62000145635b5e139f60e01b62000346565b6200015763780e9d6360e01b62000346565b5050805160208201518181116200018b5760405162461bcd60e51b8152600401620001829062000a02565b60405180910390fd5b60408301516060808501519086901b6001600160601b031916608052610120849052610140839052620001d66001600160a01b038716333085620003ce602090811b6200270c17901c565b6000620002766200021962000202670de0b6b3a7640000856200043460201b620027941790919060201c565b8787036200049860201b620027ee1790919060201c565b62000262670de0b6b3a76400006200024e670de0b6b3a76400006200024e60028a6200049860201b620027ee1790919060201c565b6200049860201b620027ee1790919060201c565b620004f660201b620028471790919060201c565b9050620002db620002a0670de0b6b3a76400008787036200049860201b620027ee1790919060201c565b62000262620002c685670de0b6b3a76400006200055f60201b620028ae1790919060201c565b846200049860201b620027ee1790919060201c565b60a090815260c0829052608087015190870151808210620003105760405162461bcd60e51b8152600401620001829062000a39565b60e091825261010090815260c088015161016052908701516101805295909501516101a0525062000a70945050505050565b3390565b6001600160e01b03198082161415620003a6576040805162461bcd60e51b815260206004820152601c60248201527f4552433136353a20696e76616c696420696e7465726661636520696400000000604482015290519081900360640190fd5b6001600160e01b0319166000908152600160208190526040909120805460ff19169091179055565b604080516001600160a01b0380861660248301528416604482015260648082018490528251808303909101815260849091019091526020810180516001600160e01b039081166323b872dd60e01b179091526200042e918691620005bd16565b50505050565b6000828201838110156200048f576040805162461bcd60e51b815260206004820152601b60248201527f536166654d6174683a206164646974696f6e206f766572666c6f770000000000604482015290519081900360640190fd5b90505b92915050565b600082620004a95750600062000492565b82820282848281620004b757fe5b04146200048f5760405162461bcd60e51b81526004018080602001828103825260218152602001806200544b6021913960400191505060405180910390fd5b60008082116200054d576040805162461bcd60e51b815260206004820152601a60248201527f536166654d6174683a206469766973696f6e206279207a65726f000000000000604482015290519081900360640190fd5b8183816200055757fe5b049392505050565b600082821115620005b7576040805162461bcd60e51b815260206004820152601e60248201527f536166654d6174683a207375627472616374696f6e206f766572666c6f770000604482015290519081900360640190fd5b50900390565b600062000619826040518060400160405280602081526020017f5361666545524332303a206c6f772d6c6576656c2063616c6c206661696c6564815250856001600160a01b03166200067e60201b6200290b179092919060201c565b80519091501562000679578080602001905160208110156200063a57600080fd5b5051620006795760405162461bcd60e51b815260040180806020018281038252602a8152602001806200546c602a913960400191505060405180910390fd5b505050565b60606200068f848460008562000699565b90505b9392505050565b606082471015620006dc5760405162461bcd60e51b8152600401808060200182810382526026815260200180620054256026913960400191505060405180910390fd5b620006e78562000800565b62000739576040805162461bcd60e51b815260206004820152601d60248201527f416464726573733a2063616c6c20746f206e6f6e2d636f6e7472616374000000604482015290519081900360640190fd5b600080866001600160a01b031685876040518082805190602001908083835b60208310620007795780518252601f19909201916020918201910162000758565b6001836020036101000a03801982511681845116808217855250505050505090500191505060006040518083038185875af1925050503d8060008114620007dd576040519150601f19603f3d011682016040523d82523d6000602084013e620007e2565b606091505b509092509050620007f582828662000806565b979650505050505050565b3b151590565b606083156200081757508162000692565b825115620008285782518084602001fd5b8160405162461bcd60e51b81526004018080602001828103825283818151815260200191508051906020019080838360005b83811015620008745781810151838201526020016200085a565b50505050905090810190601f168015620008a25780820380516001836020036101000a031916815260200191505b509250505060405180910390fd5b828054600181600116156101000203166002900490600052602060002090601f016020900481019282620008e8576000855562000933565b82601f106200090357805160ff191683800117855562000933565b8280016001018555821562000933579182015b828111156200093357825182559160200191906001019062000916565b506200094192915062000945565b5090565b5b8082111562000941576000815560010162000946565b60008061014080848603121562000971578283fd5b83516001600160a01b038116811462000988578384fd5b92506020603f850186136200099b578283fd5b60405161012081016001600160401b0381118282101715620009b957fe5b60405280868301848801891015620009cf578586fd5b8594505b6009851015620009f4578051825260019490940193908301908301620009d3565b509497909650945050505050565b6020808252601c908201527f48463a20656e6454696d65206265666f726520737461727454696d6500000000604082015260600190565b60208082526017908201527f48463a20696e76616c6964206c6f636b206c696d697473000000000000000000604082015260600190565b60805160601c60a05160c05160e05161010051610120516101405161016051610180516101a0516148e662000b3f600039806109eb528061110f5280612dbf525080610df35280611bd25250806115625280611bf7525080610c3b528061128f5280611e4552508061124e52806112cf52806112fb52806117fd5280612643525080610b1752806123ca525080610ad852806122df5250806113625280612303525080611338528061203a525080610e3252806116ef5280611cd25280612f6f528061300e52506148e66000f3fe608060405234801561001057600080fd5b50600436106103785760003560e01c806370a08231116101d3578063a154ce8211610104578063d88ff1f4116100a2578063e985e9c51161007c578063e985e9c5146106f1578063eced552614610704578063f2fde38b1461070c578063f5d82b6b1461071f57610378565b8063d88ff1f4146106cc578063e1cf73b9146106e1578063e7f3fbde146106e957610378565b8063baf941d0116100de578063baf941d0146106a1578063c87b56dd146106a9578063d00a818f146106bc578063d83623dd146106c457610378565b8063a154ce8214610668578063a22cb4651461067b578063b88d4fde1461068e57610378565b806383b24c521161017157806395d89b411161014b57806395d89b4114610617578063987835721461061f5780639a7b5f11146106325780639be65a601461065557610378565b806383b24c52146105e95780638da5cb5b146105fc5780639342c8f41461060457610378565b806378e97925116101ad57806378e97925146105be5780637a46bd36146105c65780637b46c54f146105ce5780637d882097146105e157610378565b806370a0823114610590578063715018a6146105a35780637787c338146105ab57610378565b806338a91d02116102ad578063630b5ba11161024b5780636721d4ef116102255780636721d4ef1461054d5780636c0360eb146105605780636ce0c4b5146105685780637091ce721461058857610378565b8063630b5ba11461051f5780636352211e1461052757806364df19001461053a57610378565b80634f6ccce7116102875780634f6ccce7146104c45780635081d952146104d757806355f804b3146104f7578063603f62e61461050a57610378565b806338a91d02146104a157806342842e0e146104a957806344288f81146104bc57610378565b806323b872dd1161031a5780632f9c1df6116102f45780632f9c1df61461044e578063317d7a2b146104615780633197cbb6146104865780633825d8281461048e57610378565b806323b872dd14610420578063258fa5c8146104335780632f745c591461043b57610378565b8063081e3eda11610356578063081e3eda146103db578063095ea7b3146103f057806318160ddd146104055780631be2055e1461040d57610378565b806301ffc9a71461037d57806306fdde03146103a6578063081812fc146103bb575b600080fd5b61039061038b366004613fbf565b610732565b60405161039d919061421a565b60405180910390f35b6103ae61076d565b60405161039d9190614225565b6103ce6103c9366004614079565b610803565b60405161039d91906140ec565b6103e3610865565b60405161039d9190614588565b6104036103fe366004613f94565b610876565b005b6103e361094c565b6103e361041b366004614079565b610958565b61040361042e366004613ea6565b610992565b6103e36109e9565b6103e3610449366004613f94565b610a0d565b61040361045c366004613fff565b610a38565b61047461046f366004614079565b610bfb565b60405161039d969594939291906145ac565b6103e3610c39565b61040361049c366004613f94565b610c5d565b6103e3610df1565b6104036104b7366004613ea6565b610e15565b6103ce610e30565b6103e36104d2366004614079565b610e54565b6104ea6104e5366004613e52565b610e6a565b60405161039d9190614100565b610403610505366004614033565b610fac565b61051261102c565b60405161039d9190614177565b610403611193565b6103ce610535366004614079565b6111c2565b610403610548366004614079565b6111ea565b6103e361055b3660046140a9565b611246565b6103ae6113af565b61057b610576366004614079565b611410565b60405161039d919061457a565b6103e3611560565b6103e361059e366004613e52565b611584565b6104036115ec565b6104036105b9366004614079565b6116c2565b6103e36117fb565b6103e361181f565b6104036105dc366004613e52565b611825565b6103e36118cc565b6104036105f7366004614079565b6118d2565b6103ce611a1c565b610403610612366004614079565b611a2b565b6103ae611b48565b6103e361062d366004614079565b611ba9565b610645610640366004613e52565b611c22565b60405161039d9493929190614591565b610403610663366004613e52565b611c49565b610403610676366004613e52565b611da1565b610403610689366004613f63565b611eb7565b61040361069c366004613ee6565b611fda565b6103e3612038565b6103ae6106b7366004614079565b61205c565b6103e36122dd565b6103e3612301565b6106d4612325565b60405161039d91906141cc565b6103e36123c8565b6103e36123ec565b6103906106ff366004613e6e565b6123f2565b6103e3612420565b61040361071a366004613e52565b61242c565b61040361072d366004613f94565b612558565b7fffffffff00000000000000000000000000000000000000000000000000000000811660009081526001602052604090205460ff165b919050565b60078054604080516020601f60026000196101006001881615020190951694909404938401819004810282018101909252828152606093909290918301828280156107f95780601f106107ce576101008083540402835291602001916107f9565b820191906000526020600020905b8154815290600101906020018083116107dc57829003601f168201915b5050505050905090565b600061080e8261291a565b6108495760405162461bcd60e51b815260040180806020018281038252602c8152602001806147b1602c913960400191505060405180910390fd5b506000908152600560205260409020546001600160a01b031690565b6000610871600c612927565b905090565b6000610881826111c2565b9050806001600160a01b0316836001600160a01b031614156108d45760405162461bcd60e51b81526004018080602001828103825260218152602001806148356021913960400191505060405180910390fd5b806001600160a01b03166108e6612932565b6001600160a01b031614806109025750610902816106ff612932565b61093d5760405162461bcd60e51b81526004018080602001828103825260388152602001806146e36038913960400191505060405180910390fd5b6109478383612936565b505050565b60006108716003612927565b600081815260106020908152604080832060058101546001600160a01b03168452600b909252822061098a82826129bc565b949350505050565b6109a361099d612932565b82612a6a565b6109de5760405162461bcd60e51b81526004018080602001828103825260318152602001806148566031913960400191505060405180910390fd5b610947838383612b06565b7f000000000000000000000000000000000000000000000000000000000000000081565b6001600160a01b0382166000908152600260205260408120610a2f9083612c52565b90505b92915050565b60115415610a615760405162461bcd60e51b8152600401610a5890614278565b60405180910390fd5b60008211610a815760405162461bcd60e51b8152600401610a589061431d565b428111610aa05760405162461bcd60e51b8152600401610a58906142e6565b610aab600c84612c5e565b610ac75760405162461bcd60e51b8152600401610a58906142af565b6000610ad382426128ae565b9050807f00000000000000000000000000000000000000000000000000000000000000001115610b155760405162461bcd60e51b8152600401610a589061438b565b7f0000000000000000000000000000000000000000000000000000000000000000811115610b555760405162461bcd60e51b8152600401610a58906144d5565b6001600160a01b0384166000908152600b60205260409020610b7685611825565b610b8b6001600160a01b03861633308761270c565b600f80546001810190915560008181526010602052604090208581556005810180547fffffffffffffffffffffffff0000000000000000000000000000000000000000166001600160a01b038916179055610be881848888612c73565b610bf23383612cf0565b50505050505050565b60106020526000908152604090208054600182015460028301546003840154600485015460059095015493949293919290916001600160a01b031686565b7f000000000000000000000000000000000000000000000000000000000000000081565b610c65612932565b6001600160a01b0316610c76611a1c565b6001600160a01b031614610cd1576040805162461bcd60e51b815260206004820181905260248201527f4f776e61626c653a2063616c6c6572206973206e6f7420746865206f776e6572604482015290519081900360640190fd5b60115415610cf15760405162461bcd60e51b8152600401610a5890614278565b610cfc600c83612c5e565b610d185760405162461bcd60e51b8152600401610a58906142af565b610d20611193565b6001600160a01b0382166000908152600b6020526040902054600e54610d51918391610d4b916128ae565b90612794565b600e556001600160a01b0382166000818152600b602052604090819020839055517f2f4ae87a584f00dc35b043dd1c5ac839c1f41cd3a66e834d4e13faa6251634e690610d9f908490614588565b60405180910390a280610ded57610db7600c83612d0a565b506040516001600160a01b038316907f4106dfdaa577573db51c0ca93f766dbedfa0758faa2e7f5bcdb7c142be803c3f90600090a25b5050565b7f000000000000000000000000000000000000000000000000000000000000000081565b61094783838360405180602001604052806000815250611fda565b7f000000000000000000000000000000000000000000000000000000000000000081565b600080610e62600384612d1f565b509392505050565b60606000610e7783611584565b67ffffffffffffffff81118015610e8d57600080fd5b50604051908082528060200260200182016040528015610ec757816020015b610eb4613c81565b815260200190600190039081610eac5790505b50905060005b610ed684611584565b811015610fa5576000610ee98583610a0d565b600081815260106020908152604091829020825160c0810184528154815260018201548184015260028201548185019081526003830154606080840191909152600484015460808401526005909301546001600160a01b0390811660a08085019182528751908101885290519091168152825194810194909452519383019390935292935090918101610f7b84610958565b815260200183815250848481518110610f9057fe5b60209081029190910101525050600101610ecd565b5092915050565b610fb4612932565b6001600160a01b0316610fc5611a1c565b6001600160a01b031614611020576040805162461bcd60e51b815260206004820181905260248201527f4f776e61626c653a2063616c6c6572206973206e6f7420746865206f776e6572604482015290519081900360640190fd5b61102981612d3b565b50565b60606000600f5467ffffffffffffffff8111801561104957600080fd5b5060405190808252806020026020018201604052801561108357816020015b611070613cb9565b8152602001906001900390816110685790505b5090506000805b600f5481101561118b57600081815260106020908152604091829020825160c0810184528154815260018201549281019290925260028101549282018390526003810154606083015260048101546080830152600501546001600160a01b031660a082015290421061118257805160009061113990670de0b6b3a764000090611133907f00000000000000000000000000000000000000000000000000000000000000006127ee565b90612847565b905060405180606001604052808481526020018360a001516001600160a01b031681526020018281525085858151811061116f57fe5b6020908102919091010152506001909201915b5060010161108a565b509091505090565b600061119f600c612927565b905060005b81811015610ded576111ba6105dc600c83612c52565b6001016111a4565b6000610a32826040518060600160405280602981526020016147456029913960039190612d4e565b600081815260106020526040902060028101546112195760405162461bcd60e51b8152600401610a5890614467565b428160020154111561123d5760405162461bcd60e51b8152600401610a58906143f9565b610ded82612d5b565b6000806112737f000000000000000000000000000000000000000000000000000000000000000085612e49565b905060006112b48460115460001461128d576011546112af565b7f00000000000000000000000000000000000000000000000000000000000000005b612e60565b9050808211156112c957600092505050610a32565b6112f3827f00000000000000000000000000000000000000000000000000000000000000006128ae565b915061131f817f00000000000000000000000000000000000000000000000000000000000000006128ae565b9050600261139e61138e61135d6113368686612794565b7f0000000000000000000000000000000000000000000000000000000000000000906127ee565b6113887f000000000000000000000000000000000000000000000000000000000000000060026127ee565b906128ae565b61139884866128ae565b906127ee565b816113a557fe5b0495945050505050565b600a8054604080516020601f60026000196101006001881615020190951694909404938401819004810282018101909252828152606093909290918301828280156107f95780601f106107ce576101008083540402835291602001916107f9565b611418613ce3565b6000611425600c84612c52565b6001600160a01b0381166000908152600b6020908152604080832081516080810183528154815260018201549381019390935260028101549183019190915260030154606082015291925061148d670de0b6b3a76400006111334261055b8162015180612794565b905060006114ae600e546111338560000151856127ee90919063ffffffff16565b90506000846001600160a01b03166370a08231306040518263ffffffff1660e01b81526004016114de91906140ec565b60206040518083038186803b1580156114f657600080fd5b505afa15801561150a573d6000803e3d6000fd5b505050506040513d601f19601f8201168201806040525081019061152e9190614091565b90506040518060600160405280866001600160a01b031681526020018381526020018281525095505050505050919050565b7f000000000000000000000000000000000000000000000000000000000000000081565b60006001600160a01b0382166115cb5760405162461bcd60e51b815260040180806020018281038252602a81526020018061471b602a913960400191505060405180910390fd5b6001600160a01b0382166000908152600260205260409020610a3290612927565b6115f4612932565b6001600160a01b0316611605611a1c565b6001600160a01b031614611660576040805162461bcd60e51b815260206004820181905260248201527f4f776e61626c653a2063616c6c6572206973206e6f7420746865206f776e6572604482015290519081900360640190fd5b600080546040516001600160a01b03909116907f8be0079c531659141344cd1fd0a4f28419497f9722a3daafe3b4186f6b6457e0908390a3600080547fffffffffffffffffffffffff0000000000000000000000000000000000000000169055565b600e54806116e25760405162461bcd60e51b8152600401610a589061449e565b6117176001600160a01b037f00000000000000000000000000000000000000000000000000000000000000001633308561270c565b6000611723600c612927565b905060005b818110156117be57600061173d600c83612c52565b6001600160a01b0381166000908152600b6020526040902060038101549192509080156117b357815460009082908890611783906113988c670de0b6b3a76400006127ee565b8161178a57fe5b048161179257fe5b0490506117ac81846002015461279490919063ffffffff16565b6002840155505b505050600101611728565b507ff8fad42e780bfa5459be3fe691e8ba1aec70342250112139c5771c3fd155f312836040516117ee9190614588565b60405180910390a1505050565b7f000000000000000000000000000000000000000000000000000000000000000081565b60115481565b6001600160a01b0381166000908152600b602052604090206001810154421161184e5750611029565b600381015480611865575042600190910155611029565b6000611875836001015442611246565b90506000611896600e546111338660000154856127ee90919063ffffffff16565b905060006118a48285612847565b60028601549091506118b69082612794565b6002860155505042600190930192909255505050565b600f5481565b336118dc826111c2565b6001600160a01b0316146119025760405162461bcd60e51b8152600401610a5890614543565b600081815260106020526040902060028101544210158061192557506000601154115b6119415760405162461bcd60e51b8152600401610a5890614354565b60058101546001600160a01b03166000818152600b6020526040902061196682611825565b600061197284836129bc565b905061198f846003015483600301546128ae90919063ffffffff16565b600383015561199d85612e6f565b6119a73382612f3c565b83546119bf906001600160a01b038516903390613031565b505050600091825250601060205260408120818155600181018290556002810182905560038101829055600481019190915560050180547fffffffffffffffffffffffff0000000000000000000000000000000000000000169055565b6000546001600160a01b031690565b33611a35826111c2565b6001600160a01b031614611a5b5760405162461bcd60e51b8152600401610a589061450c565b600081815260106020908152604080832060058101546001600160a01b03168452600b90925290912060028201548015801590611a985750428111155b15611aab57611aa684612d5b565b611ac2565b6005830154611ac2906001600160a01b0316611825565b6000611ace84846129bc565b6000600486015560028401546003860154919250611afa91670de0b6b3a76400009161113391906127ee565b6001850155611b093382612f3c565b847f7ed7f5937b354908f48cf038f68b4342cf1241b17d57850d6f715acc258ba2af82604051611b399190614588565b60405180910390a25050505050565b60088054604080516020601f60026000196101006001881615020190951694909404938401819004810282018101909252828152606093909290918301828280156107f95780601f106107ce576101008083540402835291602001916107f9565b600081611bbf5750670de0b6b3a7640000610768565b6000611bcb83426128ae565b9050611c1b7f0000000000000000000000000000000000000000000000000000000000000000610d4b837f00000000000000000000000000000000000000000000000000000000000000006127ee565b9392505050565b600b6020526000908152604090208054600182015460028301546003909301549192909184565b611c51612932565b6001600160a01b0316611c62611a1c565b6001600160a01b031614611cbd576040805162461bcd60e51b815260206004820181905260248201527f4f776e61626c653a2063616c6c6572206973206e6f7420746865206f776e6572604482015290519081900360640190fd5b611cc8600c82612c5e565b158015611d0757507f00000000000000000000000000000000000000000000000000000000000000006001600160a01b0316816001600160a01b031614155b611d1057600080fd5b61102933826001600160a01b03166370a08231306040518263ffffffff1660e01b8152600401611d4091906140ec565b60206040518083038186803b158015611d5857600080fd5b505afa158015611d6c573d6000803e3d6000fd5b505050506040513d601f19601f82011682018060405250810190611d909190614091565b6001600160a01b0384169190613031565b611da9612932565b6001600160a01b0316611dba611a1c565b6001600160a01b031614611e15576040805162461bcd60e51b815260206004820181905260248201527f4f776e61626c653a2063616c6c6572206973206e6f7420746865206f776e6572604482015290519081900360640190fd5b60115415611e355760405162461bcd60e51b8152600401610a5890614278565b611e3d611193565b6000611e69427f0000000000000000000000000000000000000000000000000000000000000000611246565b9050611e8682611e8183670de0b6b3a7640000612847565b612f3c565b426011556040517f75884cdadc4a89e8b545db800057f06ec7f5338a08183c7ba515f2bfdd9fe1e190600090a15050565b611ebf612932565b6001600160a01b0316826001600160a01b03161415611f25576040805162461bcd60e51b815260206004820152601960248201527f4552433732313a20617070726f766520746f2063616c6c657200000000000000604482015290519081900360640190fd5b8060066000611f32612932565b6001600160a01b0390811682526020808301939093526040918201600090812091871680825291909352912080547fffffffffffffffffffffffffffffffffffffffffffffffffffffffffffffff001692151592909217909155611f94612932565b6001600160a01b03167f17307eab39ab6107e8899845ad3d59bd9653f200f220920489ca2b5937696c318360405180821515815260200191505060405180910390a35050565b611feb611fe5612932565b83612a6a565b6120265760405162461bcd60e51b81526004018080602001828103825260318152602001806148566031913960400191505060405180910390fd5b612032848484846130b1565b50505050565b7f000000000000000000000000000000000000000000000000000000000000000081565b60606120678261291a565b6120a25760405162461bcd60e51b815260040180806020018281038252602f815260200180614806602f913960400191505060405180910390fd5b60008281526009602090815260408083208054825160026001831615610100026000190190921691909104601f8101859004850282018501909352828152929091908301828280156121355780601f1061210a57610100808354040283529160200191612135565b820191906000526020600020905b81548152906001019060200180831161211857829003601f168201915b5050505050905060006121466113af565b905080516000141561215a57509050610768565b81511561221b5780826040516020018083805190602001908083835b602083106121955780518252601f199092019160209182019101612176565b51815160209384036101000a600019018019909216911617905285519190930192850191508083835b602083106121dd5780518252601f1990920191602091820191016121be565b6001836020036101000a0380198251168184511680821785525050505050509050019250505060405160208183030381529060405292505050610768565b8061222585613103565b6040516020018083805190602001908083835b602083106122575780518252601f199092019160209182019101612238565b51815160209384036101000a600019018019909216911617905285519190930192850191508083835b6020831061229f5780518252601f199092019160209182019101612280565b6001836020036101000a0380198251168184511680821785525050505050509050019250505060405160208183030381529060405292505050919050565b7f000000000000000000000000000000000000000000000000000000000000000081565b7f000000000000000000000000000000000000000000000000000000000000000081565b60606000612333600c612927565b67ffffffffffffffff8111801561234957600080fd5b5060405190808252806020026020018201604052801561238357816020015b612370613ce3565b8152602001906001900390816123685790505b50905060005b612393600c612927565b8110156123c2576123a381611410565b8282815181106123af57fe5b6020908102919091010152600101612389565b50905090565b7f000000000000000000000000000000000000000000000000000000000000000081565b600e5481565b6001600160a01b03918216600090815260066020908152604080832093909416825291909152205460ff1690565b670de0b6b3a764000081565b612434612932565b6001600160a01b0316612445611a1c565b6001600160a01b0316146124a0576040805162461bcd60e51b815260206004820181905260248201527f4f776e61626c653a2063616c6c6572206973206e6f7420746865206f776e6572604482015290519081900360640190fd5b6001600160a01b0381166124e55760405162461bcd60e51b81526004018080602001828103825260268152602001806146476026913960400191505060405180910390fd5b600080546040516001600160a01b03808516939216917f8be0079c531659141344cd1fd0a4f28419497f9722a3daafe3b4186f6b6457e091a3600080547fffffffffffffffffffffffff0000000000000000000000000000000000000000166001600160a01b0392909216919091179055565b612560612932565b6001600160a01b0316612571611a1c565b6001600160a01b0316146125cc576040805162461bcd60e51b815260206004820181905260248201527f4f776e61626c653a2063616c6c6572206973206e6f7420746865206f776e6572604482015290519081900360640190fd5b601154156125ec5760405162461bcd60e51b8152600401610a5890614278565b6000811161260c5760405162461bcd60e51b8152600401610a58906143c2565b612614611193565b61261f600c83613212565b61263b5760405162461bcd60e51b8152600401610a5890614430565b6000612667427f0000000000000000000000000000000000000000000000000000000000000000612e49565b600e549091506126779083612794565b600e556040805160808101825283815260208082018481526000838501818152606085018281526001600160a01b038a16808452600b909552918690209451855591516001850155905160028401555160039092019190915590517f0c98febfffcec480c66a977e13f14bafdb5199ea9603591a0715b0cabe0c3ae2906126ff908590614588565b60405180910390a2505050565b604080516001600160a01b0380861660248301528416604482015260648082018490528251808303909101815260849091019091526020810180517bffffffffffffffffffffffffffffffffffffffffffffffffffffffff167f23b872dd00000000000000000000000000000000000000000000000000000000179052612032908590613227565b600082820183811015610a2f576040805162461bcd60e51b815260206004820152601b60248201527f536166654d6174683a206164646974696f6e206f766572666c6f770000000000604482015290519081900360640190fd5b6000826127fd57506000610a32565b8282028284828161280a57fe5b0414610a2f5760405162461bcd60e51b81526004018080602001828103825260218152602001806147906021913960400191505060405180910390fd5b600080821161289d576040805162461bcd60e51b815260206004820152601a60248201527f536166654d6174683a206469766973696f6e206279207a65726f000000000000604482015290519081900360640190fd5b8183816128a657fe5b049392505050565b600082821115612905576040805162461bcd60e51b815260206004820152601e60248201527f536166654d6174683a207375627472616374696f6e206f766572666c6f770000604482015290519081900360640190fd5b50900390565b606061098a84846000856132d8565b6000610a32600383613433565b6000610a328261343f565b3390565b600081815260056020526040902080547fffffffffffffffffffffffff0000000000000000000000000000000000000000166001600160a01b0384169081179091558190612983826111c2565b6001600160a01b03167f8c5be1e5ebec7d5bd14f71427d1e84f3dd0314c0f7b2291e5b200ac8c7c3b92560405160405180910390a45050565b6002810154600382015460018301546000929190421180156129dd57508015155b15612a2e5760006129f2856001015442611246565b90506000612a13600e546111338860000154856127ee90919063ffffffff16565b9050612a29612a228285612847565b8590612794565b935050505b612a618560040154610d4b8760010154611388670de0b6b3a7640000611133888c600301546127ee90919063ffffffff16565b95945050505050565b6000612a758261291a565b612ab05760405162461bcd60e51b815260040180806020018281038252602c8152602001806146b7602c913960400191505060405180910390fd5b6000612abb836111c2565b9050806001600160a01b0316846001600160a01b03161480612af65750836001600160a01b0316612aeb84610803565b6001600160a01b0316145b8061098a575061098a81856123f2565b826001600160a01b0316612b19826111c2565b6001600160a01b031614612b5e5760405162461bcd60e51b81526004018080602001828103825260298152602001806147dd6029913960400191505060405180910390fd5b6001600160a01b038216612ba35760405162461bcd60e51b815260040180806020018281038252602481526020018061466d6024913960400191505060405180910390fd5b612bae838383610947565b612bb9600082612936565b6001600160a01b0383166000908152600260205260409020612bdb9082613443565b506001600160a01b0382166000908152600260205260409020612bfe908261344f565b50612c0b6003828461345b565b5080826001600160a01b0316846001600160a01b03167fddf252ad1be2c89b69c2b068fc378daa952ba7f163c4a11628f55a4df523b3ef60405160405180910390a4505050565b6000610a2f8383613471565b6000610a2f836001600160a01b0384166134d5565b600284018190556000612c9b670de0b6b3a7640000611133612c9485611ba9565b86906127ee565b9050612cc0670de0b6b3a76400006111338660020154846127ee90919063ffffffff16565b600186015560038086015490850154612cde918391610d4b916128ae565b60039485015593909201929092555050565b610ded8282604051806020016040528060008152506134ed565b6000610a2f836001600160a01b03841661353f565b6000808080612d2e8686613605565b9097909650945050505050565b8051610ded90600a906020840190613d0d565b600061098a848484613680565b600081815260106020908152604080832060058101546001600160a01b0316808552600b9093529220612d8d82611825565b612d9783826129bc565b60048401558254612dab8483836000612c73565b6000612de3670de0b6b3a7640000611133847f00000000000000000000000000000000000000000000000000000000000000006127ee565b9050612df96001600160a01b0385163383613031565b612e0382826128ae565b8555604051869033907f4cdaca29662c1c6939de029e215bbebee084154866a8d05ad150e7503f167d2e90612e39908590614588565b60405180910390a3505050505050565b600081831015612e595781610a2f565b5090919050565b6000818310612e595781610a2f565b6000612e7a826111c2565b9050612e8881600084610947565b612e93600083612936565b6000828152600960205260409020546002600019610100600184161502019091160415612ed1576000828152600960205260408120612ed191613d99565b6001600160a01b0381166000908152600260205260409020612ef39083613443565b50612eff60038361374a565b5060405182906000906001600160a01b038416907fddf252ad1be2c89b69c2b068fc378daa952ba7f163c4a11628f55a4df523b3ef908390a45050565b6040517f70a082310000000000000000000000000000000000000000000000000000000081526000906001600160a01b037f000000000000000000000000000000000000000000000000000000000000000016906370a0823190612fa49030906004016140ec565b60206040518083038186803b158015612fbc57600080fd5b505afa158015612fd0573d6000803e3d6000fd5b505050506040513d601f19601f82011682018060405250810190612ff49190614091565b9050610947836130048484612e60565b6001600160a01b037f00000000000000000000000000000000000000000000000000000000000000001691905b604080516001600160a01b038416602482015260448082018490528251808303909101815260649091019091526020810180517bffffffffffffffffffffffffffffffffffffffffffffffffffffffff167fa9059cbb00000000000000000000000000000000000000000000000000000000179052610947908490613227565b6130bc848484612b06565b6130c884848484613756565b6120325760405162461bcd60e51b81526004018080602001828103825260328152602001806146156032913960400191505060405180910390fd5b606081613144575060408051808201909152600181527f30000000000000000000000000000000000000000000000000000000000000006020820152610768565b8160005b811561315c57600101600a82049150613148565b60008167ffffffffffffffff8111801561317557600080fd5b506040519080825280601f01601f1916602001820160405280156131a0576020820181803683370190505b50859350905060001982015b831561320957600a840660300160f81b828280600190039350815181106131cf57fe5b60200101907effffffffffffffffffffffffffffffffffffffffffffffffffffffffffffff1916908160001a905350600a840493506131ac565b50949350505050565b6000610a2f836001600160a01b038416613932565b600061327c826040518060400160405280602081526020017f5361666545524332303a206c6f772d6c6576656c2063616c6c206661696c6564815250856001600160a01b031661290b9092919063ffffffff16565b8051909150156109475780806020019051602081101561329b57600080fd5b50516109475760405162461bcd60e51b815260040180806020018281038252602a815260200180614887602a913960400191505060405180910390fd5b6060824710156133195760405162461bcd60e51b81526004018080602001828103825260268152602001806146916026913960400191505060405180910390fd5b6133228561397c565b613373576040805162461bcd60e51b815260206004820152601d60248201527f416464726573733a2063616c6c20746f206e6f6e2d636f6e7472616374000000604482015290519081900360640190fd5b600080866001600160a01b031685876040518082805190602001908083835b602083106133b15780518252601f199092019160209182019101613392565b6001836020036101000a03801982511681845116808217855250505050505090500191505060006040518083038185875af1925050503d8060008114613413576040519150601f19603f3d011682016040523d82523d6000602084013e613418565b606091505b5091509150613428828286613982565b979650505050505050565b6000610a2f83836134d5565b5490565b6000610a2f838361353f565b6000610a2f8383613932565b600061098a84846001600160a01b0385166139e8565b815460009082106134b35760405162461bcd60e51b81526004018080602001828103825260228152602001806145f36022913960400191505060405180910390fd5b8260000182815481106134c257fe5b9060005260206000200154905092915050565b60009081526001919091016020526040902054151590565b6134f78383613a7f565b6135046000848484613756565b6109475760405162461bcd60e51b81526004018080602001828103825260328152602001806146156032913960400191505060405180910390fd5b600081815260018301602052604081205480156135fb578354600019808301919081019060009087908390811061357257fe5b906000526020600020015490508087600001848154811061358f57fe5b6000918252602080832090910192909255828152600189810190925260409020908401905586548790806135bf57fe5b60019003818190600052602060002001600090559055866001016000878152602001908152602001600020600090556001945050505050610a32565b6000915050610a32565b8154600090819083106136495760405162461bcd60e51b815260040180806020018281038252602281526020018061476e6022913960400191505060405180910390fd5b600084600001848154811061365a57fe5b906000526020600020906002020190508060000154816001015492509250509250929050565b6000828152600184016020526040812054828161371b5760405162461bcd60e51b81526004018080602001828103825283818151815260200191508051906020019080838360005b838110156136e05781810151838201526020016136c8565b50505050905090810190601f16801561370d5780820380516001836020036101000a031916815260200191505b509250505060405180910390fd5b5084600001600182038154811061372e57fe5b9060005260206000209060020201600101549150509392505050565b6000610a2f8383613bad565b600061376a846001600160a01b031661397c565b6137765750600161098a565b60006138c77f150b7a02000000000000000000000000000000000000000000000000000000006137a4612932565b88878760405160240180856001600160a01b03168152602001846001600160a01b0316815260200183815260200180602001828103825283818151815260200191508051906020019080838360005b8381101561380b5781810151838201526020016137f3565b50505050905090810190601f1680156138385780820380516001836020036101000a031916815260200191505b5095505050505050604051602081830303815290604052907bffffffffffffffffffffffffffffffffffffffffffffffffffffffff19166020820180517bffffffffffffffffffffffffffffffffffffffffffffffffffffffff8381831617835250505050604051806060016040528060328152602001614615603291396001600160a01b038816919061290b565b905060008180602001905160208110156138e057600080fd5b50517fffffffff00000000000000000000000000000000000000000000000000000000167f150b7a02000000000000000000000000000000000000000000000000000000001492505050949350505050565b600061393e83836134d5565b61397457508154600181810184556000848152602080822090930184905584548482528286019093526040902091909155610a32565b506000610a32565b3b151590565b60608315613991575081611c1b565b8251156139a15782518084602001fd5b60405162461bcd60e51b81526020600482018181528451602484015284518593919283926044019190850190808383600083156136e05781810151838201526020016136c8565b600082815260018401602052604081205480613a4d575050604080518082018252838152602080820184815286546001818101895560008981528481209551600290930290950191825591519082015586548684528188019092529290912055611c1b565b82856000016001830381548110613a6057fe5b9060005260206000209060020201600101819055506000915050611c1b565b6001600160a01b038216613ada576040805162461bcd60e51b815260206004820181905260248201527f4552433732313a206d696e7420746f20746865207a65726f2061646472657373604482015290519081900360640190fd5b613ae38161291a565b15613b35576040805162461bcd60e51b815260206004820152601c60248201527f4552433732313a20746f6b656e20616c7265616479206d696e74656400000000604482015290519081900360640190fd5b613b4160008383610947565b6001600160a01b0382166000908152600260205260409020613b63908261344f565b50613b706003828461345b565b5060405181906001600160a01b038416906000907fddf252ad1be2c89b69c2b068fc378daa952ba7f163c4a11628f55a4df523b3ef908290a45050565b600081815260018301602052604081205480156135fb5783546000198083019190810190600090879083908110613be057fe5b9060005260206000209060020201905080876000018481548110613c0057fe5b600091825260208083208454600290930201918255600193840154918401919091558354825289830190526040902090840190558654879080613c3f57fe5b6000828152602080822060026000199094019384020182815560019081018390559290935588815289820190925260408220919091559450610a329350505050565b6040518060a0016040528060006001600160a01b03168152602001600081526020016000815260200160008152602001600081525090565b60405180606001604052806000815260200160006001600160a01b03168152602001600081525090565b604051806060016040528060006001600160a01b0316815260200160008152602001600081525090565b828054600181600116156101000203166002900490600052602060002090601f016020900481019282613d435760008555613d89565b82601f10613d5c57805160ff1916838001178555613d89565b82800160010185558215613d89579182015b82811115613d89578251825591602001919060010190613d6e565b50613d95929150613dd9565b5090565b50805460018160011615610100020316600290046000825580601f10613dbf5750611029565b601f01602090049060005260206000209081019061102991905b5b80821115613d955760008155600101613dda565b600067ffffffffffffffff80841115613e0357fe5b6040516020601f19601f8701168201018181108382111715613e2157fe5b604052848152915081838501861015613e3957600080fd5b8484602083013760006020868301015250509392505050565b600060208284031215613e63578081fd5b8135610a2f816145dd565b60008060408385031215613e80578081fd5b8235613e8b816145dd565b91506020830135613e9b816145dd565b809150509250929050565b600080600060608486031215613eba578081fd5b8335613ec5816145dd565b92506020840135613ed5816145dd565b929592945050506040919091013590565b60008060008060808587031215613efb578081fd5b8435613f06816145dd565b93506020850135613f16816145dd565b925060408501359150606085013567ffffffffffffffff811115613f38578182fd5b8501601f81018713613f48578182fd5b613f5787823560208401613dee565b91505092959194509250565b60008060408385031215613f75578182fd5b8235613f80816145dd565b915060208301358015158114613e9b578182fd5b60008060408385031215613fa6578182fd5b8235613fb1816145dd565b946020939093013593505050565b600060208284031215613fd0578081fd5b81357fffffffff0000000000000000000000000000000000000000000000000000000081168114610a2f578182fd5b600080600060608486031215614013578283fd5b833561401e816145dd565b95602085013595506040909401359392505050565b600060208284031215614044578081fd5b813567ffffffffffffffff81111561405a578182fd5b8201601f8101841361406a578182fd5b61098a84823560208401613dee565b60006020828403121561408a578081fd5b5035919050565b6000602082840312156140a2578081fd5b5051919050565b600080604083850312156140bb578182fd5b50508035926020909101359150565b80516001600160a01b0316825260208082015190830152604090810151910152565b6001600160a01b0391909116815260200190565b602080825282518282018190526000919060409081850190868401855b8281101561416a57815180516001600160a01b0316855286810151878601528581015186860152606080820151908601526080908101519085015260a0909301929085019060010161411d565b5091979650505050505050565b602080825282518282018190526000919060409081850190868401855b8281101561416a57815180518552868101516001600160a01b0316878601528501518585015260609093019290850190600101614194565b6020808252825182820181905260009190848201906040850190845b8181101561420e576141fb8385516140ca565b92840192606092909201916001016141e8565b50909695505050505050565b901515815260200190565b6000602080835283518082850152825b8181101561425157858101830151858201604001528201614235565b818111156142625783604083870101525b50601f01601f1916929092016040019392505050565b6020808252601d908201527f48463a20436f6e747261637420616c72656164792064697361626c6564000000604082015260600190565b60208082526015908201527f48463a204e6f6e2d6578697374616e7420706f6f6c0000000000000000000000604082015260600190565b60208082526017908201527f48463a20496e76616c696420756e6c6f636b2074696d65000000000000000000604082015260600190565b6020808252601a908201527f48463a204d757374206465706f73697420736f6d657468696e67000000000000604082015260600190565b60208082526018908201527f48463a204465706f736974207374696c6c206c6f636b65640000000000000000604082015260600190565b60208082526017908201527f48463a204c6f636b2074696d6520746f6f2073686f7274000000000000000000604082015260600190565b60208082526016908201527f48463a20546f6f206c6f7720616c6c6f636174696f6e00000000000000000000604082015260600190565b6020808252601f908201527f48463a206465706f73697420686173206e6f7420657870697265642079657400604082015260600190565b6020808252601a908201527f48463a204c5020706f6f6c20616c726561647920657869737473000000000000604082015260600190565b60208082526015908201527f48463a206e6f206c6f636b20746f206578706972650000000000000000000000604082015260600190565b60208082526014908201527f48463a206e6f20706f6f6c732063726561746564000000000000000000000000604082015260600190565b6020808252601d908201527f48463a204c6f636b2074696d652065786365656473206d6178696d756d000000604082015260600190565b6020808252601c908201527f48463a204d757374206265206f776e6572206f66206465706f73697400000000604082015260600190565b6020808252601d908201527f48463a204d757374206265206f776e657220746f207769746864726177000000604082015260600190565b60608101610a3282846140ca565b90815260200190565b93845260208401929092526040830152606082015260800190565b95865260208601949094526040850192909252606084015260808301526001600160a01b031660a082015260c00190565b6001600160a01b038116811461102957600080fdfe456e756d657261626c655365743a20696e646578206f7574206f6620626f756e64734552433732313a207472616e7366657220746f206e6f6e20455243373231526563656976657220696d706c656d656e7465724f776e61626c653a206e6577206f776e657220697320746865207a65726f20616464726573734552433732313a207472616e7366657220746f20746865207a65726f2061646472657373416464726573733a20696e73756666696369656e742062616c616e636520666f722063616c6c4552433732313a206f70657261746f7220717565727920666f72206e6f6e6578697374656e7420746f6b656e4552433732313a20617070726f76652063616c6c6572206973206e6f74206f776e6572206e6f7220617070726f76656420666f7220616c6c4552433732313a2062616c616e636520717565727920666f7220746865207a65726f20616464726573734552433732313a206f776e657220717565727920666f72206e6f6e6578697374656e7420746f6b656e456e756d657261626c654d61703a20696e646578206f7574206f6620626f756e6473536166654d6174683a206d756c7469706c69636174696f6e206f766572666c6f774552433732313a20617070726f76656420717565727920666f72206e6f6e6578697374656e7420746f6b656e4552433732313a207472616e73666572206f6620746f6b656e2074686174206973206e6f74206f776e4552433732314d657461646174613a2055524920717565727920666f72206e6f6e6578697374656e7420746f6b656e4552433732313a20617070726f76616c20746f2063757272656e74206f776e65724552433732313a207472616e736665722063616c6c6572206973206e6f74206f776e6572206e6f7220617070726f7665645361666545524332303a204552433230206f7065726174696f6e20646964206e6f742073756363656564a2646970667358221220e1df233dbb9093922c80d6b2671b0623385e57a0e04d829ab26d2a68124cf08764736f6c63430007060033416464726573733a20696e73756666696369656e742062616c616e636520666f722063616c6c536166654d6174683a206d756c7469706c69636174696f6e206f766572666c6f775361666545524332303a204552433230206f7065726174696f6e20646964206e6f742073756363656564",
  "immutableReferences": {
    "74": [
      {
        "length": 32,
        "start": 3634
      },
      {
        "length": 32,
        "start": 5871
      },
      {
        "length": 32,
        "start": 7378
      },
      {
        "length": 32,
        "start": 12143
      },
      {
        "length": 32,
        "start": 12302
      }
    ],
    "90": [
      {
        "length": 32,
        "start": 4920
      },
      {
        "length": 32,
        "start": 8250
      }
    ],
    "92": [
      {
        "length": 32,
        "start": 4962
      },
      {
        "length": 32,
        "start": 8963
      }
    ],
    "94": [
      {
        "length": 32,
        "start": 2776
      },
      {
        "length": 32,
        "start": 8927
      }
    ],
    "96": [
      {
        "length": 32,
        "start": 2839
      },
      {
        "length": 32,
        "start": 9162
      }
    ],
    "98": [
      {
        "length": 32,
        "start": 4686
      },
      {
        "length": 32,
        "start": 4815
      },
      {
        "length": 32,
        "start": 4859
      },
      {
        "length": 32,
        "start": 6141
      },
      {
        "length": 32,
        "start": 9795
      }
    ],
    "100": [
      {
        "length": 32,
        "start": 3131
      },
      {
        "length": 32,
        "start": 4751
      },
      {
        "length": 32,
        "start": 7749
      }
    ],
    "102": [
      {
        "length": 32,
        "start": 5474
      },
      {
        "length": 32,
        "start": 7159
      }
    ],
    "104": [
      {
        "length": 32,
        "start": 3571
      },
      {
        "length": 32,
        "start": 7122
      }
    ],
    "106": [
      {
        "length": 32,
        "start": 2539
      },
      {
        "length": 32,
        "start": 4367
      },
      {
        "length": 32,
        "start": 11711
      }
    ]
  },
  "source": "// SPDX-License-Identifier: GPL-3.0-only\n// https://cheemsco.in/farm\n// https://github.com/cryptocheems/farm-contracts\npragma solidity 0.7.6;\npragma abicoder v2;\n\nimport \"@openzeppelin/contracts/token/ERC721/ERC721.sol\";\nimport \"@openzeppelin/contracts/token/ERC20/IERC20.sol\";\nimport \"@openzeppelin/contracts/token/ERC20/SafeERC20.sol\";\nimport \"@openzeppelin/contracts/utils/EnumerableSet.sol\";\nimport \"@openzeppelin/contracts/math/SafeMath.sol\";\nimport \"@openzeppelin/contracts/math/Math.sol\";\nimport \"@openzeppelin/contracts/access/Ownable.sol\";\n\n// Forked from the HoneyFarm v1 contract\n// https://github.com/1Hive/honeyswap-farm/blob/master/contracts/HoneyFarm.sol\ncontract CheemscoinFarm is Ownable, ERC721 {\n  using SafeMath for uint256;\n  using SafeERC20 for IERC20;\n  using EnumerableSet for EnumerableSet.AddressSet;\n\n  // Info of each deposit\n  struct DepositInfo {\n    uint256 amount; // How many LP tokens the user has provided.\n    uint256 rewardDebt; // Reward debt (value of accumulator)\n    uint256 unlockTime;\n    uint256 rewardShare;\n    uint256 setRewards;\n    IERC20 pool;\n  }\n\n  // Info of each pool.\n  struct PoolInfo {\n    uint256 allocation; // How many allocation points assigned to this pool.\n    // Last block timestamp that HSFs distribution occured, initially set to the startTime.\n    uint256 lastRewardTimestamp;\n    uint256 accHsfPerShare; // Accumulated HSFs per share, times SCALE.\n    uint256 totalShares; // total shares stored in pool\n  }\n\n  // Frontend view of pools\n  struct PoolDetails {\n    IERC20 poolToken;\n    uint256 hsfInDay;\n    uint256 poolTokenBalance;\n  }\n\n  // Frontend view of deposit\n  struct DepositDetails {\n    IERC20 poolToken;\n    uint256 balance; // Amount of LP tokens  deposited\n    uint256 unlockTime;\n    uint256 pendingReward; // Cheems not paid yet\n    uint256 id; // ERC721 id\n  }\n\n  struct ExpiredDeposit {\n    uint256 id;\n    IERC20 poolToken;\n    uint256 reward;\n  }\n\n  // What fractional numbers are scaled by\n  uint256 public constant SCALE = 1e18;\n  // The Farm token\n  IERC20 public immutable hsf;\n  // Info of each pool.\n  mapping(IERC20 => PoolInfo) public poolInfo;\n  // set of running pools\n  EnumerableSet.AddressSet internal pools;\n  // Total allocation points. Must be the sum of all allocation points in all pools.\n  uint256 public totalAllocationPoints;\n  // total deposits\n  uint256 public totalDeposits;\n  // data about individual deposits\n  mapping(uint256 => DepositInfo) public depositInfo;\n  /* the negative slope of the distribution line scaled by SCALE, how much\n  less is being distributed per unit of time. */\n  uint256 public immutable distributionSlope;\n  // starting distribution rate / unit time scaled by SCALE\n  uint256 public immutable startDistribution;\n  // minimum time someone can lock their liquidity for\n  uint256 public immutable minTimeLock;\n  // maximum time someone can lock their liquidity for\n  uint256 public immutable maxTimeLock;\n  // time at which coins begin being distributed\n  uint256 public immutable startTime;\n  // time at which coins finish being distributed\n  uint256 public immutable endTime;\n  // multiplier for time locked deposits / second locked scaled by SCALE\n  uint256 public immutable timeLockMultiplier;\n  // constant added to the timeLockMultiplier scaled by SCALE\n  uint256 public immutable timeLockConstant;\n  /* One time fee that is deducted from time-locked deposits given to whoever\n  downgrades it, scaled by SCALE */\n  uint256 public immutable downgradeFee;\n  // whether this contract has been disabled\n  uint256 public contractDisabledAt;\n\n  event PoolAdded(IERC20 indexed poolToken, uint256 allocation);\n  // fired when pool parameters are updated not when the updatePool() method is called\n  event PoolUpdated(IERC20 indexed poolToken, uint256 allocation);\n  event PoolRemoved(IERC20 indexed poolToken);\n  event Disabled();\n  event DepositDowngraded(\n    address indexed downgrader,\n    uint256 indexed depositId,\n    uint256 downgradeReward\n  );\n  event RewardsWithdraw(uint256 indexed depositId, uint256 rewardAmount);\n  event RewardsAdded(uint256 additionalRewardAmount);\n\n  // parameters passed as byte strings to mitigate stack too deep error\n  constructor(\n    IERC20 _hsf,\n    // uint256 _startTime,\n    // uint256 _endTime,\n    // uint256 _totalHsfToDistribute,\n    // uint256 _endDistributionFraction,\n    // uint256 _minTimeLock,\n    // uint256 _maxTimeLock,\n    // uint256 _timeLockMultiplier,\n    // uint256 _timeLockConstant,\n    // uint256 _downgradeFee\n    uint256[9] memory _parameters\n  ) ERC721(\"CheemsFarm Deposit v1\", \"CFD\") {\n    uint256 _startTime = _parameters[0];\n    uint256 _endTime = _parameters[1];\n    require(_endTime > _startTime, \"HF: endTime before startTime\");\n    uint256 _totalHsfToDistribute = _parameters[2];\n    uint256 _endDistributionFraction = _parameters[3];\n    hsf = _hsf;\n    startTime = _startTime;\n    endTime = _endTime;\n    _hsf.safeTransferFrom(msg.sender, address(this), _totalHsfToDistribute);\n\n    // check https://hackmd.io/BFrhyOTUQ3O9REs5PuZahQ for a breakdown of the maths\n    // ds = (2 * s) / (te * (r + 1))\n    uint256 startDistribution_ = _totalHsfToDistribute.mul(2).mul(SCALE).mul(SCALE).div(\n      (_endTime - _startTime).mul(_endDistributionFraction.add(SCALE))\n    );\n    // -m = ds * (1 - r) / te\n    distributionSlope = startDistribution_.mul(SCALE.sub(_endDistributionFraction)).div(\n      (_endTime - _startTime).mul(SCALE)\n    );\n    startDistribution = startDistribution_;\n\n    uint256 _minTimeLock = _parameters[4];\n    uint256 _maxTimeLock = _parameters[5];\n    require(_minTimeLock < _maxTimeLock, \"HF: invalid lock limits\");\n    minTimeLock = _minTimeLock;\n    maxTimeLock = _maxTimeLock;\n    timeLockMultiplier = _parameters[6];\n    timeLockConstant = _parameters[7];\n    downgradeFee = _parameters[8];\n  }\n\n  modifier notDisabled {\n    require(contractDisabledAt == 0, \"HF: Contract already disabled\");\n    _;\n  }\n\n  function poolLength() external view returns (uint256) {\n    return pools.length();\n  }\n\n  function getPoolByIndex(uint256 _index) public view returns (PoolDetails memory) {\n    IERC20 poolToken = IERC20(pools.at(_index));\n    PoolInfo memory pool = poolInfo[poolToken];\n    uint256 hsfInDay = getDistribution(block.timestamp, block.timestamp.add(24 * 3600)).div(SCALE);\n    uint256 poolHsfInDay = hsfInDay.mul(pool.allocation).div(totalAllocationPoints);\n    uint256 poolTokenBalance = poolToken.balanceOf(address(this));\n    return PoolDetails(poolToken, poolHsfInDay, poolTokenBalance);\n  }\n\n  function getAllPools() external view returns (PoolDetails[] memory) {\n    PoolDetails[] memory allPools = new PoolDetails[](pools.length());\n    for (uint256 i = 0; i < pools.length(); i++) {\n      allPools[i] = getPoolByIndex(i);\n    }\n    return allPools;\n  }\n\n  function getAccountDeposits(address _account) external view returns (DepositDetails[] memory) {\n    DepositDetails[] memory allDeposits = new DepositDetails[](balanceOf(_account));\n    for (uint256 i = 0; i < balanceOf(_account); i++) {\n      uint256 dIndex = tokenOfOwnerByIndex(_account, i);\n      DepositInfo memory d = depositInfo[dIndex];\n      allDeposits[i] = DepositDetails(d.pool, d.amount, d.unlockTime, pendingHsf(dIndex), dIndex);\n    }\n    return allDeposits;\n  }\n\n  function getExpiredDepositIds() public view returns (ExpiredDeposit[] memory) {\n    ExpiredDeposit[] memory ids = new ExpiredDeposit[](totalDeposits);\n    uint256 j = 0;\n    for (uint256 i = 0; i < totalDeposits; i++) {\n      DepositInfo memory d = depositInfo[i];\n      if (d.unlockTime <= block.timestamp) {\n        uint256 reward = d.amount.mul(downgradeFee).div(SCALE);\n        ids[j] = ExpiredDeposit(i, d.pool, reward);\n        j++;\n      }\n    }\n    return ids;\n  }\n\n  // underscore placed after to avoid collide with the ERC721._baseURI property\n  function setBaseURI(string memory baseURI_) external onlyOwner {\n    _setBaseURI(baseURI_);\n  }\n\n  function disableContract(address _tokenRecipient) external onlyOwner notDisabled {\n    massUpdatePools();\n    uint256 remainingTokens = getDistribution(block.timestamp, endTime);\n    _safeHsfTransfer(_tokenRecipient, remainingTokens.div(SCALE));\n    contractDisabledAt = block.timestamp;\n    emit Disabled();\n  }\n\n  // Retroactively reward stakers. Does not contribute to future rewards\n  function depositAdditionalRewards(uint256 _depositAmount) external {\n    uint256 totalAllocationPoints_ = totalAllocationPoints;\n    require(totalAllocationPoints_ > 0, \"HF: no pools created\");\n    hsf.safeTransferFrom(msg.sender, address(this), _depositAmount);\n    uint256 poolLen = pools.length();\n    for (uint256 i; i < poolLen; i++) {\n      IERC20 poolToken = IERC20(pools.at(i));\n      PoolInfo storage pool = poolInfo[poolToken];\n      uint256 poolTotalShares = pool.totalShares;\n      if (poolTotalShares > 0) {\n        uint256 poolScaledRewards = _depositAmount.mul(SCALE).mul(pool.allocation) /\n          totalAllocationPoints_ /\n          poolTotalShares;\n        pool.accHsfPerShare = pool.accHsfPerShare.add(poolScaledRewards);\n      }\n    }\n    emit RewardsAdded(_depositAmount);\n  }\n\n  // Add a new lp to the pool. Can only be called by the owner.\n  function add(IERC20 _lpToken, uint256 _allocation) public onlyOwner notDisabled {\n    require(_allocation > 0, \"HF: Too low allocation\");\n    massUpdatePools();\n    require(pools.add(address(_lpToken)), \"HF: LP pool already exists\");\n    uint256 lastRewardTimestamp = Math.max(block.timestamp, startTime);\n    totalAllocationPoints = totalAllocationPoints.add(_allocation);\n    poolInfo[_lpToken] = PoolInfo({\n      allocation: _allocation,\n      lastRewardTimestamp: lastRewardTimestamp,\n      accHsfPerShare: 0,\n      totalShares: 0\n    });\n    emit PoolAdded(_lpToken, _allocation);\n  }\n\n  // Update the given pool's allocation point. Can only be called by the owner.\n  function set(IERC20 _poolToken, uint256 _allocation) public onlyOwner notDisabled {\n    require(pools.contains(address(_poolToken)), \"HF: Non-existant pool\");\n    massUpdatePools();\n    totalAllocationPoints = totalAllocationPoints.sub(poolInfo[_poolToken].allocation).add(\n      _allocation\n    );\n    poolInfo[_poolToken].allocation = _allocation;\n    emit PoolUpdated(_poolToken, _allocation);\n    if (_allocation == 0) {\n      pools.remove(address(_poolToken));\n      emit PoolRemoved(_poolToken);\n    }\n  }\n\n  // get tokens to be distributed between two timestamps scaled by SCALE\n  function getDistribution(uint256 _from, uint256 _to) public view returns (uint256) {\n    uint256 from = Math.max(startTime, _from);\n    uint256 to = Math.min(_to, contractDisabledAt == 0 ? endTime : contractDisabledAt);\n\n    if (from > to) return uint256(0);\n\n    from = from.sub(startTime);\n    to = to.sub(startTime);\n\n    // check https://hackmd.io/BFrhyOTUQ3O9REs5PuZahQ for a breakdown of the maths\n    // d(t1, t2) = (t2 - t1) * (2 * ds - (-m) * (t2 + t1)) / 2\n    return to.sub(from).mul(startDistribution.mul(2).sub(distributionSlope.mul(from.add(to)))) / 2;\n  }\n\n  function getTimeMultiple(uint256 _unlockTime) public view returns (uint256) {\n    if (_unlockTime == 0) return SCALE;\n    uint256 timeDelta = _unlockTime.sub(block.timestamp);\n    return timeDelta.mul(timeLockMultiplier).add(timeLockConstant);\n  }\n\n  // View function to see pending HSFs on frontend.\n  function pendingHsf(uint256 _depositId) public view returns (uint256) {\n    DepositInfo storage deposit = depositInfo[_depositId];\n    PoolInfo storage pool = poolInfo[deposit.pool];\n    return _getPendingHsf(deposit, pool);\n  }\n\n  // Deposit LP tokens into the farm to earn HSF\n  function createDeposit(\n    IERC20 _poolToken,\n    uint256 _amount,\n    uint256 _unlockTime\n  ) external notDisabled {\n    require(_amount > 0, \"HF: Must deposit something\");\n    require(_unlockTime > block.timestamp, \"HF: Invalid unlock time\");\n    require(pools.contains(address(_poolToken)), \"HF: Non-existant pool\");\n    uint256 lockDuration = _unlockTime.sub(block.timestamp);\n    require(minTimeLock <= lockDuration, \"HF: Lock time too short\");\n    require(lockDuration <= maxTimeLock, \"HF: Lock time exceeds maximum\");\n\n    PoolInfo storage pool = poolInfo[_poolToken];\n    updatePool(_poolToken);\n    _poolToken.safeTransferFrom(address(msg.sender), address(this), _amount);\n    uint256 newDepositId = totalDeposits++;\n    DepositInfo storage newDeposit = depositInfo[newDepositId];\n    newDeposit.amount = _amount;\n    newDeposit.pool = _poolToken;\n    _resetRewardAccs(newDeposit, pool, _amount, _unlockTime);\n    _safeMint(msg.sender, newDepositId);\n  }\n\n  // Withdraw LP tokens along with reward\n  function closeDeposit(uint256 _depositId) external {\n    require(ownerOf(_depositId) == msg.sender, \"HF: Must be owner to withdraw\");\n    DepositInfo storage deposit = depositInfo[_depositId];\n    require(\n      deposit.unlockTime <= block.timestamp || contractDisabledAt > 0,\n      \"HF: Deposit still locked\"\n    );\n    IERC20 poolToken = deposit.pool;\n    PoolInfo storage pool = poolInfo[poolToken];\n    updatePool(poolToken);\n\n    uint256 pending = _getPendingHsf(deposit, pool);\n    pool.totalShares = pool.totalShares.sub(deposit.rewardShare);\n    _burn(_depositId);\n    _safeHsfTransfer(msg.sender, pending);\n    poolToken.safeTransfer(msg.sender, deposit.amount);\n    delete depositInfo[_depositId];\n  }\n\n  function withdrawRewards(uint256 _depositId) external {\n    require(ownerOf(_depositId) == msg.sender, \"HF: Must be owner of deposit\");\n    DepositInfo storage deposit = depositInfo[_depositId];\n    PoolInfo storage pool = poolInfo[deposit.pool];\n    uint256 _unlockTime = deposit.unlockTime;\n    if (_unlockTime > 0 && _unlockTime <= block.timestamp) {\n      _downgradeExpired(_depositId);\n    } else {\n      updatePool(deposit.pool);\n    }\n    uint256 pendingRewards = _getPendingHsf(deposit, pool);\n    deposit.setRewards = uint256(0);\n    deposit.rewardDebt = deposit.rewardShare.mul(pool.accHsfPerShare).div(SCALE);\n    _safeHsfTransfer(msg.sender, pendingRewards);\n    emit RewardsWithdraw(_depositId, pendingRewards);\n  }\n\n  // This exists so if an ERC20 is accidentally sent to this contract, the funds can be recovered\n  function recoverToken(IERC20 _token) external onlyOwner {\n    // So owner cannot steal desposited funds\n    require(!pools.contains(address(_token)) && _token != hsf);\n    _token.safeTransfer(msg.sender, _token.balanceOf(address(this)));\n  }\n\n  /* If the lock has expired, when this is called, the deposit's multiplier is set to 1 and\n  the downgradeFee (probably 0.01%) is deducted from the deposit LP and sent to whoever calls this*/\n  function downgradeExpired(uint256 _depositId) public {\n    DepositInfo storage deposit = depositInfo[_depositId];\n    require(deposit.unlockTime > 0, \"HF: no lock to expire\");\n    require(deposit.unlockTime <= block.timestamp, \"HF: deposit has not expired yet\");\n    _downgradeExpired(_depositId);\n  }\n\n  // Update reward variables for all pools. Be careful of gas spending!\n  function massUpdatePools() public {\n    uint256 length = pools.length();\n    for (uint256 pid = 0; pid < length; pid++) {\n      updatePool(IERC20(pools.at(pid)));\n    }\n  }\n\n  // Update reward variables of the given pool to be up-to-date.\n  function updatePool(IERC20 _poolToken) public {\n    PoolInfo storage pool = poolInfo[_poolToken];\n    if (block.timestamp <= pool.lastRewardTimestamp) {\n      return;\n    }\n    uint256 totalShares = pool.totalShares;\n    if (totalShares == 0) {\n      pool.lastRewardTimestamp = block.timestamp;\n      return;\n    }\n    uint256 dist = getDistribution(pool.lastRewardTimestamp, block.timestamp);\n    uint256 hsfReward = dist.mul(pool.allocation).div(totalAllocationPoints);\n    uint256 poolScaledRewards = hsfReward.div(totalShares);\n    pool.accHsfPerShare = pool.accHsfPerShare.add(poolScaledRewards);\n    pool.lastRewardTimestamp = block.timestamp;\n  }\n\n  function _downgradeExpired(uint256 _depositId) internal {\n    DepositInfo storage deposit = depositInfo[_depositId];\n    IERC20 poolToken = deposit.pool;\n    PoolInfo storage pool = poolInfo[poolToken];\n    updatePool(poolToken);\n    deposit.setRewards = _getPendingHsf(deposit, pool);\n    uint256 amount = deposit.amount;\n    _resetRewardAccs(deposit, pool, amount, 0);\n    uint256 downgradeReward = amount.mul(downgradeFee).div(SCALE);\n    poolToken.safeTransfer(msg.sender, downgradeReward);\n    deposit.amount = amount.sub(downgradeReward);\n    emit DepositDowngraded(msg.sender, _depositId, downgradeReward);\n  }\n\n  function _getPendingHsf(DepositInfo storage _deposit, PoolInfo storage _pool)\n    internal\n    view\n    returns (uint256)\n  {\n    uint256 accHsfPerShare = _pool.accHsfPerShare;\n    uint256 totalShares = _pool.totalShares;\n    if (block.timestamp > _pool.lastRewardTimestamp && totalShares != 0) {\n      uint256 dist = getDistribution(_pool.lastRewardTimestamp, block.timestamp);\n      uint256 hsfReward = dist.mul(_pool.allocation).div(totalAllocationPoints);\n      accHsfPerShare = accHsfPerShare.add(hsfReward.div(totalShares));\n    }\n    return\n      _deposit.rewardShare.mul(accHsfPerShare).div(SCALE).sub(_deposit.rewardDebt).add(\n        _deposit.setRewards\n      );\n  }\n\n  function _resetRewardAccs(\n    DepositInfo storage _deposit,\n    PoolInfo storage _pool,\n    uint256 _amount,\n    uint256 _unlockTime\n  ) internal {\n    _deposit.unlockTime = _unlockTime;\n    uint256 newShares = _amount.mul(getTimeMultiple(_unlockTime)).div(SCALE);\n    _deposit.rewardDebt = newShares.mul(_pool.accHsfPerShare).div(SCALE);\n    _pool.totalShares = _pool.totalShares.sub(_deposit.rewardShare).add(newShares);\n    _deposit.rewardShare = newShares;\n  }\n\n  /* Safe hsf transfer function, just in case if rounding error causes pool\n  to not have enough HSFs. */\n  function _safeHsfTransfer(address _to, uint256 _amount) internal {\n    uint256 hsfBal = hsf.balanceOf(address(this));\n    hsf.safeTransfer(_to, Math.min(_amount, hsfBal));\n  }\n}\n",
  "sourcePath": "/Users/kaikurosawa/Desktop/code/farm-contracts/contracts/CheemscoinFarm.sol",
  "compiler": {
    "name": "solc",
    "version": "0.7.6+commit.7338295f.Emscripten.clang"
  },
  "schemaVersion": "3.3.3",
  "updatedAt": "2021-07-03T13:35:29.949Z",
  "networkType": "ethereum",
  "devdoc": {
    "kind": "dev",
    "methods": {
      "approve(address,uint256)": {
        "details": "See {IERC721-approve}."
      },
      "balanceOf(address)": {
        "details": "See {IERC721-balanceOf}."
      },
      "baseURI()": {
        "details": "Returns the base URI set via {_setBaseURI}. This will be automatically added as a prefix in {tokenURI} to each token's URI, or to the token ID if no specific URI is set for that token ID."
      },
      "getApproved(uint256)": {
        "details": "See {IERC721-getApproved}."
      },
      "isApprovedForAll(address,address)": {
        "details": "See {IERC721-isApprovedForAll}."
      },
      "name()": {
        "details": "See {IERC721Metadata-name}."
      },
      "owner()": {
        "details": "Returns the address of the current owner."
      },
      "ownerOf(uint256)": {
        "details": "See {IERC721-ownerOf}."
      },
      "renounceOwnership()": {
        "details": "Leaves the contract without owner. It will not be possible to call `onlyOwner` functions anymore. Can only be called by the current owner. NOTE: Renouncing ownership will leave the contract without an owner, thereby removing any functionality that is only available to the owner."
      },
      "safeTransferFrom(address,address,uint256)": {
        "details": "See {IERC721-safeTransferFrom}."
      },
      "safeTransferFrom(address,address,uint256,bytes)": {
        "details": "See {IERC721-safeTransferFrom}."
      },
      "setApprovalForAll(address,bool)": {
        "details": "See {IERC721-setApprovalForAll}."
      },
      "supportsInterface(bytes4)": {
        "details": "See {IERC165-supportsInterface}. Time complexity O(1), guaranteed to always use less than 30 000 gas."
      },
      "symbol()": {
        "details": "See {IERC721Metadata-symbol}."
      },
      "tokenByIndex(uint256)": {
        "details": "See {IERC721Enumerable-tokenByIndex}."
      },
      "tokenOfOwnerByIndex(address,uint256)": {
        "details": "See {IERC721Enumerable-tokenOfOwnerByIndex}."
      },
      "tokenURI(uint256)": {
        "details": "See {IERC721Metadata-tokenURI}."
      },
      "totalSupply()": {
        "details": "See {IERC721Enumerable-totalSupply}."
      },
      "transferFrom(address,address,uint256)": {
        "details": "See {IERC721-transferFrom}."
      },
      "transferOwnership(address)": {
        "details": "Transfers ownership of the contract to a new account (`newOwner`). Can only be called by the current owner."
      }
    },
    "version": 1
  },
  "userdoc": {
    "kind": "user",
    "methods": {},
    "version": 1
  }
}