{
  "contractName": "CheemscoinFarm",
  "abi": [
    {
      "inputs": [
        {
          "internalType": "contract IERC20",
          "name": "_hsf",
          "type": "address"
        },
        {
          "internalType": "uint256[9]",
          "name": "_parameters",
          "type": "uint256[9]"
        }
      ],
      "stateMutability": "nonpayable",
      "type": "constructor"
    },
    {
      "anonymous": false,
      "inputs": [
        {
          "indexed": true,
          "internalType": "address",
          "name": "owner",
          "type": "address"
        },
        {
          "indexed": true,
          "internalType": "address",
          "name": "approved",
          "type": "address"
        },
        {
          "indexed": true,
          "internalType": "uint256",
          "name": "tokenId",
          "type": "uint256"
        }
      ],
      "name": "Approval",
      "type": "event"
    },
    {
      "anonymous": false,
      "inputs": [
        {
          "indexed": true,
          "internalType": "address",
          "name": "owner",
          "type": "address"
        },
        {
          "indexed": true,
          "internalType": "address",
          "name": "operator",
          "type": "address"
        },
        {
          "indexed": false,
          "internalType": "bool",
          "name": "approved",
          "type": "bool"
        }
      ],
      "name": "ApprovalForAll",
      "type": "event"
    },
    {
      "anonymous": false,
      "inputs": [
        {
          "indexed": true,
          "internalType": "address",
          "name": "downgrader",
          "type": "address"
        },
        {
          "indexed": true,
          "internalType": "uint256",
          "name": "depositId",
          "type": "uint256"
        },
        {
          "indexed": false,
          "internalType": "uint256",
          "name": "downgradeReward",
          "type": "uint256"
        }
      ],
      "name": "DepositDowngraded",
      "type": "event"
    },
    {
      "anonymous": false,
      "inputs": [],
      "name": "Disabled",
      "type": "event"
    },
    {
      "anonymous": false,
      "inputs": [
        {
          "indexed": true,
          "internalType": "address",
          "name": "previousOwner",
          "type": "address"
        },
        {
          "indexed": true,
          "internalType": "address",
          "name": "newOwner",
          "type": "address"
        }
      ],
      "name": "OwnershipTransferred",
      "type": "event"
    },
    {
      "anonymous": false,
      "inputs": [
        {
          "indexed": true,
          "internalType": "contract IERC20",
          "name": "poolToken",
          "type": "address"
        },
        {
          "indexed": false,
          "internalType": "uint256",
          "name": "allocation",
          "type": "uint256"
        }
      ],
      "name": "PoolAdded",
      "type": "event"
    },
    {
      "anonymous": false,
      "inputs": [
        {
          "indexed": true,
          "internalType": "contract IERC20",
          "name": "poolToken",
          "type": "address"
        }
      ],
      "name": "PoolRemoved",
      "type": "event"
    },
    {
      "anonymous": false,
      "inputs": [
        {
          "indexed": true,
          "internalType": "contract IERC20",
          "name": "poolToken",
          "type": "address"
        },
        {
          "indexed": false,
          "internalType": "uint256",
          "name": "allocation",
          "type": "uint256"
        }
      ],
      "name": "PoolUpdated",
      "type": "event"
    },
    {
      "anonymous": false,
      "inputs": [
        {
          "indexed": false,
          "internalType": "uint256",
          "name": "additionalRewardAmount",
          "type": "uint256"
        }
      ],
      "name": "RewardsAdded",
      "type": "event"
    },
    {
      "anonymous": false,
      "inputs": [
        {
          "indexed": true,
          "internalType": "uint256",
          "name": "depositId",
          "type": "uint256"
        },
        {
          "indexed": false,
          "internalType": "uint256",
          "name": "rewardAmount",
          "type": "uint256"
        }
      ],
      "name": "RewardsWithdraw",
      "type": "event"
    },
    {
      "anonymous": false,
      "inputs": [
        {
          "indexed": true,
          "internalType": "address",
          "name": "from",
          "type": "address"
        },
        {
          "indexed": true,
          "internalType": "address",
          "name": "to",
          "type": "address"
        },
        {
          "indexed": true,
          "internalType": "uint256",
          "name": "tokenId",
          "type": "uint256"
        }
      ],
      "name": "Transfer",
      "type": "event"
    },
    {
      "inputs": [],
      "name": "SCALE",
      "outputs": [
        {
          "internalType": "uint256",
          "name": "",
          "type": "uint256"
        }
      ],
      "stateMutability": "view",
      "type": "function"
    },
    {
      "inputs": [
        {
          "internalType": "address",
          "name": "to",
          "type": "address"
        },
        {
          "internalType": "uint256",
          "name": "tokenId",
          "type": "uint256"
        }
      ],
      "name": "approve",
      "outputs": [],
      "stateMutability": "nonpayable",
      "type": "function"
    },
    {
      "inputs": [
        {
          "internalType": "address",
          "name": "owner",
          "type": "address"
        }
      ],
      "name": "balanceOf",
      "outputs": [
        {
          "internalType": "uint256",
          "name": "",
          "type": "uint256"
        }
      ],
      "stateMutability": "view",
      "type": "function"
    },
    {
      "inputs": [],
      "name": "baseURI",
      "outputs": [
        {
          "internalType": "string",
          "name": "",
          "type": "string"
        }
      ],
      "stateMutability": "view",
      "type": "function"
    },
    {
      "inputs": [],
      "name": "contractDisabledAt",
      "outputs": [
        {
          "internalType": "uint256",
          "name": "",
          "type": "uint256"
        }
      ],
      "stateMutability": "view",
      "type": "function"
    },
    {
      "inputs": [
        {
          "internalType": "uint256",
          "name": "",
          "type": "uint256"
        }
      ],
      "name": "depositInfo",
      "outputs": [
        {
          "internalType": "uint256",
          "name": "amount",
          "type": "uint256"
        },
        {
          "internalType": "uint256",
          "name": "rewardDebt",
          "type": "uint256"
        },
        {
          "internalType": "uint256",
          "name": "unlockTime",
          "type": "uint256"
        },
        {
          "internalType": "uint256",
          "name": "rewardShare",
          "type": "uint256"
        },
        {
          "internalType": "uint256",
          "name": "setRewards",
          "type": "uint256"
        },
        {
          "internalType": "contract IERC20",
          "name": "pool",
          "type": "address"
        }
      ],
      "stateMutability": "view",
      "type": "function"
    },
    {
      "inputs": [],
      "name": "distributionSlope",
      "outputs": [
        {
          "internalType": "uint256",
          "name": "",
          "type": "uint256"
        }
      ],
      "stateMutability": "view",
      "type": "function"
    },
    {
      "inputs": [],
      "name": "downgradeFee",
      "outputs": [
        {
          "internalType": "uint256",
          "name": "",
          "type": "uint256"
        }
      ],
      "stateMutability": "view",
      "type": "function"
    },
    {
      "inputs": [],
      "name": "endTime",
      "outputs": [
        {
          "internalType": "uint256",
          "name": "",
          "type": "uint256"
        }
      ],
      "stateMutability": "view",
      "type": "function"
    },
    {
      "inputs": [
        {
          "internalType": "uint256",
          "name": "tokenId",
          "type": "uint256"
        }
      ],
      "name": "getApproved",
      "outputs": [
        {
          "internalType": "address",
          "name": "",
          "type": "address"
        }
      ],
      "stateMutability": "view",
      "type": "function"
    },
    {
      "inputs": [],
      "name": "hsf",
      "outputs": [
        {
          "internalType": "contract IERC20",
          "name": "",
          "type": "address"
        }
      ],
      "stateMutability": "view",
      "type": "function"
    },
    {
      "inputs": [
        {
          "internalType": "address",
          "name": "owner",
          "type": "address"
        },
        {
          "internalType": "address",
          "name": "operator",
          "type": "address"
        }
      ],
      "name": "isApprovedForAll",
      "outputs": [
        {
          "internalType": "bool",
          "name": "",
          "type": "bool"
        }
      ],
      "stateMutability": "view",
      "type": "function"
    },
    {
      "inputs": [],
      "name": "maxTimeLock",
      "outputs": [
        {
          "internalType": "uint256",
          "name": "",
          "type": "uint256"
        }
      ],
      "stateMutability": "view",
      "type": "function"
    },
    {
      "inputs": [],
      "name": "minTimeLock",
      "outputs": [
        {
          "internalType": "uint256",
          "name": "",
          "type": "uint256"
        }
      ],
      "stateMutability": "view",
      "type": "function"
    },
    {
      "inputs": [],
      "name": "name",
      "outputs": [
        {
          "internalType": "string",
          "name": "",
          "type": "string"
        }
      ],
      "stateMutability": "view",
      "type": "function"
    },
    {
      "inputs": [],
      "name": "owner",
      "outputs": [
        {
          "internalType": "address",
          "name": "",
          "type": "address"
        }
      ],
      "stateMutability": "view",
      "type": "function"
    },
    {
      "inputs": [
        {
          "internalType": "uint256",
          "name": "tokenId",
          "type": "uint256"
        }
      ],
      "name": "ownerOf",
      "outputs": [
        {
          "internalType": "address",
          "name": "",
          "type": "address"
        }
      ],
      "stateMutability": "view",
      "type": "function"
    },
    {
      "inputs": [
        {
          "internalType": "contract IERC20",
          "name": "",
          "type": "address"
        }
      ],
      "name": "poolInfo",
      "outputs": [
        {
          "internalType": "uint256",
          "name": "allocation",
          "type": "uint256"
        },
        {
          "internalType": "uint256",
          "name": "lastRewardTimestamp",
          "type": "uint256"
        },
        {
          "internalType": "uint256",
          "name": "accHsfPerShare",
          "type": "uint256"
        },
        {
          "internalType": "uint256",
          "name": "totalShares",
          "type": "uint256"
        }
      ],
      "stateMutability": "view",
      "type": "function"
    },
    {
      "inputs": [],
      "name": "renounceOwnership",
      "outputs": [],
      "stateMutability": "nonpayable",
      "type": "function"
    },
    {
      "inputs": [
        {
          "internalType": "address",
          "name": "from",
          "type": "address"
        },
        {
          "internalType": "address",
          "name": "to",
          "type": "address"
        },
        {
          "internalType": "uint256",
          "name": "tokenId",
          "type": "uint256"
        }
      ],
      "name": "safeTransferFrom",
      "outputs": [],
      "stateMutability": "nonpayable",
      "type": "function"
    },
    {
      "inputs": [
        {
          "internalType": "address",
          "name": "from",
          "type": "address"
        },
        {
          "internalType": "address",
          "name": "to",
          "type": "address"
        },
        {
          "internalType": "uint256",
          "name": "tokenId",
          "type": "uint256"
        },
        {
          "internalType": "bytes",
          "name": "_data",
          "type": "bytes"
        }
      ],
      "name": "safeTransferFrom",
      "outputs": [],
      "stateMutability": "nonpayable",
      "type": "function"
    },
    {
      "inputs": [
        {
          "internalType": "address",
          "name": "operator",
          "type": "address"
        },
        {
          "internalType": "bool",
          "name": "approved",
          "type": "bool"
        }
      ],
      "name": "setApprovalForAll",
      "outputs": [],
      "stateMutability": "nonpayable",
      "type": "function"
    },
    {
      "inputs": [],
      "name": "startDistribution",
      "outputs": [
        {
          "internalType": "uint256",
          "name": "",
          "type": "uint256"
        }
      ],
      "stateMutability": "view",
      "type": "function"
    },
    {
      "inputs": [],
      "name": "startTime",
      "outputs": [
        {
          "internalType": "uint256",
          "name": "",
          "type": "uint256"
        }
      ],
      "stateMutability": "view",
      "type": "function"
    },
    {
      "inputs": [
        {
          "internalType": "bytes4",
          "name": "interfaceId",
          "type": "bytes4"
        }
      ],
      "name": "supportsInterface",
      "outputs": [
        {
          "internalType": "bool",
          "name": "",
          "type": "bool"
        }
      ],
      "stateMutability": "view",
      "type": "function"
    },
    {
      "inputs": [],
      "name": "symbol",
      "outputs": [
        {
          "internalType": "string",
          "name": "",
          "type": "string"
        }
      ],
      "stateMutability": "view",
      "type": "function"
    },
    {
      "inputs": [],
      "name": "timeLockConstant",
      "outputs": [
        {
          "internalType": "uint256",
          "name": "",
          "type": "uint256"
        }
      ],
      "stateMutability": "view",
      "type": "function"
    },
    {
      "inputs": [],
      "name": "timeLockMultiplier",
      "outputs": [
        {
          "internalType": "uint256",
          "name": "",
          "type": "uint256"
        }
      ],
      "stateMutability": "view",
      "type": "function"
    },
    {
      "inputs": [
        {
          "internalType": "uint256",
          "name": "index",
          "type": "uint256"
        }
      ],
      "name": "tokenByIndex",
      "outputs": [
        {
          "internalType": "uint256",
          "name": "",
          "type": "uint256"
        }
      ],
      "stateMutability": "view",
      "type": "function"
    },
    {
      "inputs": [
        {
          "internalType": "address",
          "name": "owner",
          "type": "address"
        },
        {
          "internalType": "uint256",
          "name": "index",
          "type": "uint256"
        }
      ],
      "name": "tokenOfOwnerByIndex",
      "outputs": [
        {
          "internalType": "uint256",
          "name": "",
          "type": "uint256"
        }
      ],
      "stateMutability": "view",
      "type": "function"
    },
    {
      "inputs": [
        {
          "internalType": "uint256",
          "name": "tokenId",
          "type": "uint256"
        }
      ],
      "name": "tokenURI",
      "outputs": [
        {
          "internalType": "string",
          "name": "",
          "type": "string"
        }
      ],
      "stateMutability": "view",
      "type": "function"
    },
    {
      "inputs": [],
      "name": "totalAllocationPoints",
      "outputs": [
        {
          "internalType": "uint256",
          "name": "",
          "type": "uint256"
        }
      ],
      "stateMutability": "view",
      "type": "function"
    },
    {
      "inputs": [],
      "name": "totalDeposits",
      "outputs": [
        {
          "internalType": "uint256",
          "name": "",
          "type": "uint256"
        }
      ],
      "stateMutability": "view",
      "type": "function"
    },
    {
      "inputs": [],
      "name": "totalSupply",
      "outputs": [
        {
          "internalType": "uint256",
          "name": "",
          "type": "uint256"
        }
      ],
      "stateMutability": "view",
      "type": "function"
    },
    {
      "inputs": [
        {
          "internalType": "address",
          "name": "from",
          "type": "address"
        },
        {
          "internalType": "address",
          "name": "to",
          "type": "address"
        },
        {
          "internalType": "uint256",
          "name": "tokenId",
          "type": "uint256"
        }
      ],
      "name": "transferFrom",
      "outputs": [],
      "stateMutability": "nonpayable",
      "type": "function"
    },
    {
      "inputs": [
        {
          "internalType": "address",
          "name": "newOwner",
          "type": "address"
        }
      ],
      "name": "transferOwnership",
      "outputs": [],
      "stateMutability": "nonpayable",
      "type": "function"
    },
    {
      "inputs": [],
      "name": "poolLength",
      "outputs": [
        {
          "internalType": "uint256",
          "name": "",
          "type": "uint256"
        }
      ],
      "stateMutability": "view",
      "type": "function"
    },
    {
      "inputs": [
        {
          "internalType": "uint256",
          "name": "_index",
          "type": "uint256"
        }
      ],
      "name": "getPoolByIndex",
      "outputs": [
        {
          "internalType": "contract IERC20",
          "name": "poolToken",
          "type": "address"
        },
        {
          "internalType": "uint256",
          "name": "allocation",
          "type": "uint256"
        },
        {
          "internalType": "uint256",
          "name": "lastRewardTimestamp",
          "type": "uint256"
        },
        {
          "internalType": "uint256",
          "name": "accHsfPerShare",
          "type": "uint256"
        },
        {
          "internalType": "uint256",
          "name": "totalShares",
          "type": "uint256"
        }
      ],
      "stateMutability": "view",
      "type": "function"
    },
    {
      "inputs": [
        {
          "internalType": "string",
          "name": "baseURI_",
          "type": "string"
        }
      ],
      "name": "setBaseURI",
      "outputs": [],
      "stateMutability": "nonpayable",
      "type": "function"
    },
    {
      "inputs": [
        {
          "internalType": "address",
          "name": "_tokenRecipient",
          "type": "address"
        }
      ],
      "name": "disableContract",
      "outputs": [],
      "stateMutability": "nonpayable",
      "type": "function"
    },
    {
      "inputs": [
        {
          "internalType": "uint256",
          "name": "_depositAmount",
          "type": "uint256"
        }
      ],
      "name": "depositAdditionalRewards",
      "outputs": [],
      "stateMutability": "nonpayable",
      "type": "function"
    },
    {
      "inputs": [
        {
          "internalType": "contract IERC20",
          "name": "_lpToken",
          "type": "address"
        },
        {
          "internalType": "uint256",
          "name": "_allocation",
          "type": "uint256"
        }
      ],
      "name": "add",
      "outputs": [],
      "stateMutability": "nonpayable",
      "type": "function"
    },
    {
      "inputs": [
        {
          "internalType": "contract IERC20",
          "name": "_poolToken",
          "type": "address"
        },
        {
          "internalType": "uint256",
          "name": "_allocation",
          "type": "uint256"
        }
      ],
      "name": "set",
      "outputs": [],
      "stateMutability": "nonpayable",
      "type": "function"
    },
    {
      "inputs": [
        {
          "internalType": "uint256",
          "name": "_from",
          "type": "uint256"
        },
        {
          "internalType": "uint256",
          "name": "_to",
          "type": "uint256"
        }
      ],
      "name": "getDistribution",
      "outputs": [
        {
          "internalType": "uint256",
          "name": "",
          "type": "uint256"
        }
      ],
      "stateMutability": "view",
      "type": "function"
    },
    {
      "inputs": [
        {
          "internalType": "uint256",
          "name": "_unlockTime",
          "type": "uint256"
        }
      ],
      "name": "getTimeMultiple",
      "outputs": [
        {
          "internalType": "uint256",
          "name": "",
          "type": "uint256"
        }
      ],
      "stateMutability": "view",
      "type": "function"
    },
    {
      "inputs": [
        {
          "internalType": "uint256",
          "name": "_depositId",
          "type": "uint256"
        }
      ],
      "name": "pendingHsf",
      "outputs": [
        {
          "internalType": "uint256",
          "name": "",
          "type": "uint256"
        }
      ],
      "stateMutability": "view",
      "type": "function"
    },
    {
      "inputs": [
        {
          "internalType": "contract IERC20",
          "name": "_poolToken",
          "type": "address"
        },
        {
          "internalType": "uint256",
          "name": "_amount",
          "type": "uint256"
        },
        {
          "internalType": "uint256",
          "name": "_unlockTime",
          "type": "uint256"
        }
      ],
      "name": "createDeposit",
      "outputs": [],
      "stateMutability": "nonpayable",
      "type": "function"
    },
    {
      "inputs": [
        {
          "internalType": "uint256",
          "name": "_depositId",
          "type": "uint256"
        }
      ],
      "name": "closeDeposit",
      "outputs": [],
      "stateMutability": "nonpayable",
      "type": "function"
    },
    {
      "inputs": [
        {
          "internalType": "uint256",
          "name": "_depositId",
          "type": "uint256"
        }
      ],
      "name": "withdrawRewards",
      "outputs": [],
      "stateMutability": "nonpayable",
      "type": "function"
    },
    {
      "inputs": [
        {
          "internalType": "contract IERC20",
          "name": "_token",
          "type": "address"
        }
      ],
      "name": "recoverToken",
      "outputs": [],
      "stateMutability": "nonpayable",
      "type": "function"
    },
    {
      "inputs": [
        {
          "internalType": "uint256",
          "name": "_depositId",
          "type": "uint256"
        }
      ],
      "name": "downgradeExpired",
      "outputs": [],
      "stateMutability": "nonpayable",
      "type": "function"
    },
    {
      "inputs": [],
      "name": "massUpdatePools",
      "outputs": [],
      "stateMutability": "nonpayable",
      "type": "function"
    },
    {
      "inputs": [
        {
          "internalType": "contract IERC20",
          "name": "_poolToken",
          "type": "address"
        }
      ],
      "name": "updatePool",
      "outputs": [],
      "stateMutability": "nonpayable",
      "type": "function"
    }
  ],
  "bytecode": "0x6101c06040523480156200001257600080fd5b5060405162004f0738038062004f0783398181016040526101408110156200003957600080fd5b508051604080518082018252601a81527f436865656d73636f696e4661726d204465706f736974732076310000000000006020828101919091528251808401909352600383526210d19160ea1b83820152929392909201919060006200009e620003a4565b600080546001600160a01b0319166001600160a01b0383169081178255604051929350917f8be0079c531659141344cd1fd0a4f28419497f9722a3daafe3b4186f6b6457e0908290a350620000fa6301ffc9a760e01b620003a8565b81516200010f90600790602085019062000912565b5080516200012590600890602084019062000912565b50620001386380ac58cd60e01b620003a8565b6200014a635b5e139f60e01b620003a8565b6200015c63780e9d6360e01b620003a8565b505080516020820151818111620001ba576040805162461bcd60e51b815260206004820152601c60248201527f48463a20656e6454696d65206265666f726520737461727454696d6500000000604482015290519081900360640190fd5b60408301516060808501519086901b6001600160601b031916608052610120849052610140839052620002056001600160a01b03871633308562000430602090811b62002ac817901c565b6000620002a56200024862000231670de0b6b3a7640000856200049660201b62002b501790919060201c565b878703620004fa60201b62002baa1790919060201c565b62000291670de0b6b3a76400006200027d670de0b6b3a76400006200027d60028a620004fa60201b62002baa1790919060201c565b620004fa60201b62002baa1790919060201c565b6200055860201b62002c031790919060201c565b90506200030a620002cf670de0b6b3a7640000878703620004fa60201b62002baa1790919060201c565b62000291620002f585670de0b6b3a7640000620005c160201b62002c6a1790919060201c565b84620004fa60201b62002baa1790919060201c565b60a090815260c082905260808701519087015180821062000372576040805162461bcd60e51b815260206004820152601760248201527f48463a20696e76616c6964206c6f636b206c696d697473000000000000000000604482015290519081900360640190fd5b60e091825261010090815260c088015161016052908701516101805295909501516101a05250620009be945050505050565b3390565b6001600160e01b0319808216141562000408576040805162461bcd60e51b815260206004820152601c60248201527f4552433136353a20696e76616c696420696e7465726661636520696400000000604482015290519081900360640190fd5b6001600160e01b0319166000908152600160208190526040909120805460ff19169091179055565b604080516001600160a01b0380861660248301528416604482015260648082018490528251808303909101815260849091019091526020810180516001600160e01b039081166323b872dd60e01b17909152620004909186916200061f16565b50505050565b600082820183811015620004f1576040805162461bcd60e51b815260206004820152601b60248201527f536166654d6174683a206164646974696f6e206f766572666c6f770000000000604482015290519081900360640190fd5b90505b92915050565b6000826200050b57506000620004f4565b828202828482816200051957fe5b0414620004f15760405162461bcd60e51b815260040180806020018281038252602181526020018062004ebc6021913960400191505060405180910390fd5b6000808211620005af576040805162461bcd60e51b815260206004820152601a60248201527f536166654d6174683a206469766973696f6e206279207a65726f000000000000604482015290519081900360640190fd5b818381620005b957fe5b049392505050565b60008282111562000619576040805162461bcd60e51b815260206004820152601e60248201527f536166654d6174683a207375627472616374696f6e206f766572666c6f770000604482015290519081900360640190fd5b50900390565b60006200067b826040518060400160405280602081526020017f5361666545524332303a206c6f772d6c6576656c2063616c6c206661696c6564815250856001600160a01b0316620006e060201b62002cc7179092919060201c565b805190915015620006db578080602001905160208110156200069c57600080fd5b5051620006db5760405162461bcd60e51b815260040180806020018281038252602a81526020018062004edd602a913960400191505060405180910390fd5b505050565b6060620006f18484600085620006fb565b90505b9392505050565b6060824710156200073e5760405162461bcd60e51b815260040180806020018281038252602681526020018062004e966026913960400191505060405180910390fd5b620007498562000862565b6200079b576040805162461bcd60e51b815260206004820152601d60248201527f416464726573733a2063616c6c20746f206e6f6e2d636f6e7472616374000000604482015290519081900360640190fd5b600080866001600160a01b031685876040518082805190602001908083835b60208310620007db5780518252601f199092019160209182019101620007ba565b6001836020036101000a03801982511681845116808217855250505050505090500191505060006040518083038185875af1925050503d80600081146200083f576040519150601f19603f3d011682016040523d82523d6000602084013e62000844565b606091505b5090925090506200085782828662000868565b979650505050505050565b3b151590565b6060831562000879575081620006f4565b8251156200088a5782518084602001fd5b8160405162461bcd60e51b81526004018080602001828103825283818151815260200191508051906020019080838360005b83811015620008d6578181015183820152602001620008bc565b50505050905090810190601f168015620009045780820380516001836020036101000a031916815260200191505b509250505060405180910390fd5b828054600181600116156101000203166002900490600052602060002090601f0160209004810192826200094a576000855562000995565b82601f106200096557805160ff191683800117855562000995565b8280016001018555821562000995579182015b828111156200099557825182559160200191906001019062000978565b50620009a3929150620009a7565b5090565b5b80821115620009a35760008155600101620009a8565b60805160601c60a05160c05160e05161010051610120516101405161016051610180516101a05161440e62000a8860003980610dd2528061317b5250806113765280611eec5250806117a85280611f1152508061115752806115d85280612191525080611597528061161852806116445280611a745280612a03525080610ffe52806126eb525080610f8a52806126a35250806116ab52806126c752508061168152806123865250806113b5528061196a5280611fec52806132f752806133a8525061440e6000f3fe608060405234801561001057600080fd5b50600436106103575760003560e01c806370a08231116101c85780639be65a6011610104578063d83623dd116100a2578063e985e9c51161007c578063e985e9c514610a8c578063eced552614610aba578063f2fde38b14610ac2578063f5d82b6b14610ae857610357565b8063d83623dd14610a74578063e1cf73b914610a7c578063e7f3fbde14610a8457610357565b8063b88d4fde116100de578063b88d4fde14610981578063baf941d014610a47578063c87b56dd14610a4f578063d00a818f14610a6c57610357565b80639be65a6014610907578063a154ce821461092d578063a22cb4651461095357610357565b80637d882097116101715780639342c8f41161014b5780639342c8f41461087957806395d89b4114610896578063987835721461089e5780639a7b5f11146108bb57610357565b80637d8820971461084c57806383b24c52146108545780638da5cb5b1461087157610357565b806378e97925116101a257806378e97925146108165780637a46bd361461081e5780637b46c54f1461082657610357565b806370a08231146107cb578063715018a6146107f15780637787c338146107f957610357565b80633825d82811610297578063630b5ba1116102405780636721d4ef1161021a5780636721d4ef146107465780636c0360eb146107695780636ce0c4b5146107715780637091ce72146107c357610357565b8063630b5ba1146107045780636352211e1461070c57806364df19001461072957610357565b806344288f811161027157806344288f81146106395780634f6ccce71461064157806355f804b31461065e57610357565b80633825d828146105cf57806338a91d02146105fb57806342842e0e1461060357610357565b80631be2055e116103045780632f745c59116102de5780632f745c59146105105780632f9c1df61461053c578063317d7a2b1461056e5780633197cbb6146105c757610357565b80631be2055e146104b557806323b872dd146104d2578063258fa5c81461050857610357565b8063081e3eda11610335578063081e3eda14610465578063095ea7b31461047f57806318160ddd146104ad57610357565b806301ffc9a71461035c57806306fdde03146103af578063081812fc1461042c575b600080fd5b61039b6004803603602081101561037257600080fd5b50357fffffffff0000000000000000000000000000000000000000000000000000000016610b14565b604080519115158252519081900360200190f35b6103b7610b4f565b6040805160208082528351818301528351919283929083019185019080838360005b838110156103f15781810151838201526020016103d9565b50505050905090810190601f16801561041e5780820380516001836020036101000a031916815260200191505b509250505060405180910390f35b6104496004803603602081101561044257600080fd5b5035610be5565b604080516001600160a01b039092168252519081900360200190f35b61046d610c47565b60408051918252519081900360200190f35b6104ab6004803603604081101561049557600080fd5b506001600160a01b038135169060200135610c58565b005b61046d610d33565b61046d600480360360208110156104cb57600080fd5b5035610d3f565b6104ab600480360360608110156104e857600080fd5b506001600160a01b03813581169160208101359091169060400135610d79565b61046d610dd0565b61046d6004803603604081101561052657600080fd5b506001600160a01b038135169060200135610df4565b6104ab6004803603606081101561055257600080fd5b506001600160a01b038135169060208101359060400135610e1f565b61058b6004803603602081101561058457600080fd5b5035611117565b60408051968752602087019590955285850193909352606085019190915260808401526001600160a01b031660a0830152519081900360c00190f35b61046d611155565b6104ab600480360360408110156105e557600080fd5b506001600160a01b038135169060200135611179565b61046d611374565b6104ab6004803603606081101561061957600080fd5b506001600160a01b03813581169160208101359091169060400135611398565b6104496113b3565b61046d6004803603602081101561065757600080fd5b50356113d7565b6104ab6004803603602081101561067457600080fd5b81019060208101813564010000000081111561068f57600080fd5b8201836020820111156106a157600080fd5b803590602001918460018302840111640100000000831117156106c357600080fd5b91908080601f0160208091040260200160405190810160405280939291908181526020018383808284376000920191909152509295506113ed945050505050565b6104ab61146d565b6104496004803603602081101561072257600080fd5b50356114a1565b6104ab6004803603602081101561073f57600080fd5b50356114c9565b61046d6004803603604081101561075c57600080fd5b508035906020013561158f565b6103b76116f8565b61078e6004803603602081101561078757600080fd5b5035611759565b604080516001600160a01b03909616865260208601949094528484019290925260608401526080830152519081900360a00190f35b61046d6117a6565b61046d600480360360208110156107e157600080fd5b50356001600160a01b03166117ca565b6104ab611832565b6104ab6004803603602081101561080f57600080fd5b5035611908565b61046d611a72565b61046d611a96565b6104ab6004803603602081101561083c57600080fd5b50356001600160a01b0316611a9c565b61046d611b49565b6104ab6004803603602081101561086a57600080fd5b5035611b4f565b610449611d03565b6104ab6004803603602081101561088f57600080fd5b5035611d12565b6103b7611e62565b61046d600480360360208110156108b457600080fd5b5035611ec3565b6108e1600480360360208110156108d157600080fd5b50356001600160a01b0316611f3c565b604080519485526020850193909352838301919091526060830152519081900360800190f35b6104ab6004803603602081101561091d57600080fd5b50356001600160a01b0316611f63565b6104ab6004803603602081101561094357600080fd5b50356001600160a01b03166120b8565b6104ab6004803603604081101561096957600080fd5b506001600160a01b0381351690602001351515612203565b6104ab6004803603608081101561099757600080fd5b6001600160a01b038235811692602081013590911691604082013591908101906080810160608201356401000000008111156109d257600080fd5b8201836020820111156109e457600080fd5b80359060200191846001830284011164010000000083111715610a0657600080fd5b91908080601f016020809104026020016040519081016040528093929190818152602001838380828437600092019190915250929550612326945050505050565b61046d612384565b6103b760048036036020811015610a6557600080fd5b50356123a8565b61046d6126a1565b61046d6126c5565b61046d6126e9565b61046d61270d565b61039b60048036036040811015610aa257600080fd5b506001600160a01b0381358116916020013516612713565b61046d612741565b6104ab60048036036020811015610ad857600080fd5b50356001600160a01b031661274d565b6104ab60048036036040811015610afe57600080fd5b506001600160a01b038135169060200135612879565b7fffffffff00000000000000000000000000000000000000000000000000000000811660009081526001602052604090205460ff165b919050565b60078054604080516020601f6002600019610100600188161502019095169490940493840181900481028201810190925282815260609390929091830182828015610bdb5780601f10610bb057610100808354040283529160200191610bdb565b820191906000526020600020905b815481529060010190602001808311610bbe57829003601f168201915b5050505050905090565b6000610bf082612cd6565b610c2b5760405162461bcd60e51b815260040180806020018281038252602c8152602001806142d9602c913960400191505060405180910390fd5b506000908152600560205260409020546001600160a01b031690565b6000610c53600c612ce3565b905090565b6000610c63826114a1565b9050806001600160a01b0316836001600160a01b03161415610cb65760405162461bcd60e51b815260040180806020018281038252602181526020018061435d6021913960400191505060405180910390fd5b806001600160a01b0316610cc8612cee565b6001600160a01b03161480610ce95750610ce981610ce4612cee565b612713565b610d245760405162461bcd60e51b815260040180806020018281038252603881526020018061420b6038913960400191505060405180910390fd5b610d2e8383612cf2565b505050565b6000610c536003612ce3565b600081815260106020908152604080832060058101546001600160a01b03168452600b9092528220610d718282612d78565b949350505050565b610d8a610d84612cee565b82612e26565b610dc55760405162461bcd60e51b815260040180806020018281038252603181526020018061437e6031913960400191505060405180910390fd5b610d2e838383612ec2565b7f000000000000000000000000000000000000000000000000000000000000000081565b6001600160a01b0382166000908152600260205260408120610e16908361300e565b90505b92915050565b60115415610e74576040805162461bcd60e51b815260206004820152601d60248201527f48463a20436f6e747261637420616c72656164792064697361626c6564000000604482015290519081900360640190fd5b60008211610ec9576040805162461bcd60e51b815260206004820152601a60248201527f48463a204d757374206465706f73697420736f6d657468696e67000000000000604482015290519081900360640190fd5b428111610f1d576040805162461bcd60e51b815260206004820152601760248201527f48463a20496e76616c696420756e6c6f636b2074696d65000000000000000000604482015290519081900360640190fd5b610f28600c8461301a565b610f79576040805162461bcd60e51b815260206004820152601560248201527f48463a204e6f6e2d6578697374616e7420706f6f6c0000000000000000000000604482015290519081900360640190fd5b6000610f858242612c6a565b9050807f00000000000000000000000000000000000000000000000000000000000000001115610ffc576040805162461bcd60e51b815260206004820152601760248201527f48463a204c6f636b2074696d6520746f6f2073686f7274000000000000000000604482015290519081900360640190fd5b7f0000000000000000000000000000000000000000000000000000000000000000811115611071576040805162461bcd60e51b815260206004820152601d60248201527f48463a204c6f636b2074696d652065786365656473206d6178696d756d000000604482015290519081900360640190fd5b6001600160a01b0384166000908152600b6020526040902061109285611a9c565b6110a76001600160a01b038616333087612ac8565b600f80546001810190915560008181526010602052604090208581556005810180547fffffffffffffffffffffffff0000000000000000000000000000000000000000166001600160a01b0389161790556111048184888861302f565b61110e33836130ac565b50505050505050565b60106020526000908152604090208054600182015460028301546003840154600485015460059095015493949293919290916001600160a01b031686565b7f000000000000000000000000000000000000000000000000000000000000000081565b611181612cee565b6001600160a01b0316611192611d03565b6001600160a01b0316146111ed576040805162461bcd60e51b815260206004820181905260248201527f4f776e61626c653a2063616c6c6572206973206e6f7420746865206f776e6572604482015290519081900360640190fd5b60115415611242576040805162461bcd60e51b815260206004820152601d60248201527f48463a20436f6e747261637420616c72656164792064697361626c6564000000604482015290519081900360640190fd5b61124d600c8361301a565b61129e576040805162461bcd60e51b815260206004820152601560248201527f48463a204e6f6e2d6578697374616e7420706f6f6c0000000000000000000000604482015290519081900360640190fd5b6112a661146d565b6001600160a01b0382166000908152600b6020526040902054600e546112d79183916112d191612c6a565b90612b50565b600e556001600160a01b0382166000818152600b6020908152604091829020849055815184815291517f2f4ae87a584f00dc35b043dd1c5ac839c1f41cd3a66e834d4e13faa6251634e69281900390910190a2806113705761133a600c836130c6565b506040516001600160a01b038316907f4106dfdaa577573db51c0ca93f766dbedfa0758faa2e7f5bcdb7c142be803c3f90600090a25b5050565b7f000000000000000000000000000000000000000000000000000000000000000081565b610d2e83838360405180602001604052806000815250612326565b7f000000000000000000000000000000000000000000000000000000000000000081565b6000806113e56003846130db565b509392505050565b6113f5612cee565b6001600160a01b0316611406611d03565b6001600160a01b031614611461576040805162461bcd60e51b815260206004820181905260248201527f4f776e61626c653a2063616c6c6572206973206e6f7420746865206f776e6572604482015290519081900360640190fd5b61146a816130f7565b50565b6000611479600c612ce3565b905060005b8181101561137057611499611494600c8361300e565b611a9c565b60010161147e565b6000610e198260405180606001604052806029815260200161426d602991396003919061310a565b6000818152601060205260409020600281015461152d576040805162461bcd60e51b815260206004820152601560248201527f48463a206e6f206c6f636b20746f206578706972650000000000000000000000604482015290519081900360640190fd5b4281600201541115611586576040805162461bcd60e51b815260206004820152601f60248201527f48463a206465706f73697420686173206e6f7420657870697265642079657400604482015290519081900360640190fd5b61137082613117565b6000806115bc7f000000000000000000000000000000000000000000000000000000000000000085613200565b905060006115fd846011546000146115d6576011546115f8565b7f00000000000000000000000000000000000000000000000000000000000000005b613217565b90508082111561161257600092505050610e19565b61163c827f0000000000000000000000000000000000000000000000000000000000000000612c6a565b9150611668817f0000000000000000000000000000000000000000000000000000000000000000612c6a565b905060026116e76116d76116a661167f8686612b50565b7f000000000000000000000000000000000000000000000000000000000000000090612baa565b6116d17f00000000000000000000000000000000000000000000000000000000000000006002612baa565b90612c6a565b6116e18486612c6a565b90612baa565b816116ee57fe5b0495945050505050565b600a8054604080516020601f6002600019610100600188161502019095169490940493840181900481028201810190925282815260609390929091830182828015610bdb5780601f10610bb057610100808354040283529160200191610bdb565b60008080808061176a600c8761300e565b6001600160a01b0381166000908152600b60205260409020805460018201546002830154600390930154939a9199509750909550909350915050565b7f000000000000000000000000000000000000000000000000000000000000000081565b60006001600160a01b0382166118115760405162461bcd60e51b815260040180806020018281038252602a815260200180614243602a913960400191505060405180910390fd5b6001600160a01b0382166000908152600260205260409020610e1990612ce3565b61183a612cee565b6001600160a01b031661184b611d03565b6001600160a01b0316146118a6576040805162461bcd60e51b815260206004820181905260248201527f4f776e61626c653a2063616c6c6572206973206e6f7420746865206f776e6572604482015290519081900360640190fd5b600080546040516001600160a01b03909116907f8be0079c531659141344cd1fd0a4f28419497f9722a3daafe3b4186f6b6457e0908390a3600080547fffffffffffffffffffffffff0000000000000000000000000000000000000000169055565b600e548061195d576040805162461bcd60e51b815260206004820152601460248201527f48463a206e6f20706f6f6c732063726561746564000000000000000000000000604482015290519081900360640190fd5b6119926001600160a01b037f000000000000000000000000000000000000000000000000000000000000000016333085612ac8565b600061199e600c612ce3565b905060005b81811015611a395760006119b8600c8361300e565b6001600160a01b0381166000908152600b602052604090206003810154919250908015611a2e578154600090829088906119fe906116e18c670de0b6b3a7640000612baa565b81611a0557fe5b0481611a0d57fe5b049050611a27818460020154612b5090919063ffffffff16565b6002840155505b5050506001016119a3565b506040805184815290517ff8fad42e780bfa5459be3fe691e8ba1aec70342250112139c5771c3fd155f3129181900360200190a1505050565b7f000000000000000000000000000000000000000000000000000000000000000081565b60115481565b6001600160a01b0381166000908152600b6020526040902060018101544211611ac5575061146a565b600381015480611adc57504260019091015561146a565b6000611aec83600101544261158f565b90506000611b13600e54611b0d866000015485612baa90919063ffffffff16565b90612c03565b90506000611b218285612c03565b6002860154909150611b339082612b50565b6002860155505042600190930192909255505050565b600f5481565b33611b59826114a1565b6001600160a01b031614611bb4576040805162461bcd60e51b815260206004820152601d60248201527f48463a204d757374206265206f776e657220746f207769746864726177000000604482015290519081900360640190fd5b6000818152601060205260409020600281015442101580611bd757506000601154115b611c28576040805162461bcd60e51b815260206004820152601860248201527f48463a204465706f736974207374696c6c206c6f636b65640000000000000000604482015290519081900360640190fd5b60058101546001600160a01b03166000818152600b60205260409020611c4d82611a9c565b6000611c598483612d78565b9050611c7684600301548360030154612c6a90919063ffffffff16565b6003830155611c8485613226565b611c8e33826132f3565b8354611ca6906001600160a01b0385169033906133cb565b505050600091825250601060205260408120818155600181018290556002810182905560038101829055600481019190915560050180547fffffffffffffffffffffffff0000000000000000000000000000000000000000169055565b6000546001600160a01b031690565b33611d1c826114a1565b6001600160a01b031614611d77576040805162461bcd60e51b815260206004820152601c60248201527f48463a204d757374206265206f776e6572206f66206465706f73697400000000604482015290519081900360640190fd5b600081815260106020908152604080832060058101546001600160a01b03168452600b90925290912060028201548015801590611db45750428111155b15611dc757611dc284613117565b611dde565b6005830154611dde906001600160a01b0316611a9c565b6000611dea8484612d78565b6000600486015560028401546003860154919250611e1691670de0b6b3a764000091611b0d9190612baa565b6001850155611e2533826132f3565b60408051828152905186917f7ed7f5937b354908f48cf038f68b4342cf1241b17d57850d6f715acc258ba2af919081900360200190a25050505050565b60088054604080516020601f6002600019610100600188161502019095169490940493840181900481028201810190925282815260609390929091830182828015610bdb5780601f10610bb057610100808354040283529160200191610bdb565b600081611ed95750670de0b6b3a7640000610b4a565b6000611ee58342612c6a565b9050611f357f00000000000000000000000000000000000000000000000000000000000000006112d1837f0000000000000000000000000000000000000000000000000000000000000000612baa565b9392505050565b600b6020526000908152604090208054600182015460028301546003909301549192909184565b611f6b612cee565b6001600160a01b0316611f7c611d03565b6001600160a01b031614611fd7576040805162461bcd60e51b815260206004820181905260248201527f4f776e61626c653a2063616c6c6572206973206e6f7420746865206f776e6572604482015290519081900360640190fd5b611fe2600c8261301a565b15801561202157507f00000000000000000000000000000000000000000000000000000000000000006001600160a01b0316816001600160a01b031614155b61202a57600080fd5b61146a33826001600160a01b03166370a08231306040518263ffffffff1660e01b815260040180826001600160a01b0316815260200191505060206040518083038186803b15801561207b57600080fd5b505afa15801561208f573d6000803e3d6000fd5b505050506040513d60208110156120a557600080fd5b50516001600160a01b03841691906133cb565b6120c0612cee565b6001600160a01b03166120d1611d03565b6001600160a01b03161461212c576040805162461bcd60e51b815260206004820181905260248201527f4f776e61626c653a2063616c6c6572206973206e6f7420746865206f776e6572604482015290519081900360640190fd5b60115415612181576040805162461bcd60e51b815260206004820152601d60248201527f48463a20436f6e747261637420616c72656164792064697361626c6564000000604482015290519081900360640190fd5b61218961146d565b60006121b5427f000000000000000000000000000000000000000000000000000000000000000061158f565b90506121d2826121cd83670de0b6b3a7640000612c03565b6132f3565b426011556040517f75884cdadc4a89e8b545db800057f06ec7f5338a08183c7ba515f2bfdd9fe1e190600090a15050565b61220b612cee565b6001600160a01b0316826001600160a01b03161415612271576040805162461bcd60e51b815260206004820152601960248201527f4552433732313a20617070726f766520746f2063616c6c657200000000000000604482015290519081900360640190fd5b806006600061227e612cee565b6001600160a01b0390811682526020808301939093526040918201600090812091871680825291909352912080547fffffffffffffffffffffffffffffffffffffffffffffffffffffffffffffff0016921515929092179091556122e0612cee565b6001600160a01b03167f17307eab39ab6107e8899845ad3d59bd9653f200f220920489ca2b5937696c318360405180821515815260200191505060405180910390a35050565b612337612331612cee565b83612e26565b6123725760405162461bcd60e51b815260040180806020018281038252603181526020018061437e6031913960400191505060405180910390fd5b61237e8484848461344b565b50505050565b7f000000000000000000000000000000000000000000000000000000000000000081565b60606123b382612cd6565b6123ee5760405162461bcd60e51b815260040180806020018281038252602f81526020018061432e602f913960400191505060405180910390fd5b60008281526009602090815260408083208054825160026001831615610100026000190190921691909104601f8101859004850282018501909352828152929091908301828280156124815780601f1061245657610100808354040283529160200191612481565b820191906000526020600020905b81548152906001019060200180831161246457829003601f168201915b5050505050905060006124926116f8565b90508051600014156124a657509050610b4a565b8151156125a35780826040516020018083805190602001908083835b602083106124ff57805182527fffffffffffffffffffffffffffffffffffffffffffffffffffffffffffffffe090920191602091820191016124c2565b51815160209384036101000a600019018019909216911617905285519190930192850191508083835b6020831061256557805182527fffffffffffffffffffffffffffffffffffffffffffffffffffffffffffffffe09092019160209182019101612528565b6001836020036101000a0380198251168184511680821785525050505050509050019250505060405160208183030381529060405292505050610b4a565b806125ad8561349d565b6040516020018083805190602001908083835b602083106125fd57805182527fffffffffffffffffffffffffffffffffffffffffffffffffffffffffffffffe090920191602091820191016125c0565b51815160209384036101000a600019018019909216911617905285519190930192850191508083835b6020831061266357805182527fffffffffffffffffffffffffffffffffffffffffffffffffffffffffffffffe09092019160209182019101612626565b6001836020036101000a0380198251168184511680821785525050505050509050019250505060405160208183030381529060405292505050919050565b7f000000000000000000000000000000000000000000000000000000000000000081565b7f000000000000000000000000000000000000000000000000000000000000000081565b7f000000000000000000000000000000000000000000000000000000000000000081565b600e5481565b6001600160a01b03918216600090815260066020908152604080832093909416825291909152205460ff1690565b670de0b6b3a764000081565b612755612cee565b6001600160a01b0316612766611d03565b6001600160a01b0316146127c1576040805162461bcd60e51b815260206004820181905260248201527f4f776e61626c653a2063616c6c6572206973206e6f7420746865206f776e6572604482015290519081900360640190fd5b6001600160a01b0381166128065760405162461bcd60e51b815260040180806020018281038252602681526020018061416f6026913960400191505060405180910390fd5b600080546040516001600160a01b03808516939216917f8be0079c531659141344cd1fd0a4f28419497f9722a3daafe3b4186f6b6457e091a3600080547fffffffffffffffffffffffff0000000000000000000000000000000000000000166001600160a01b0392909216919091179055565b612881612cee565b6001600160a01b0316612892611d03565b6001600160a01b0316146128ed576040805162461bcd60e51b815260206004820181905260248201527f4f776e61626c653a2063616c6c6572206973206e6f7420746865206f776e6572604482015290519081900360640190fd5b60115415612942576040805162461bcd60e51b815260206004820152601d60248201527f48463a20436f6e747261637420616c72656164792064697361626c6564000000604482015290519081900360640190fd5b60008111612997576040805162461bcd60e51b815260206004820152601660248201527f48463a20546f6f206c6f7720616c6c6f636174696f6e00000000000000000000604482015290519081900360640190fd5b61299f61146d565b6129aa600c836135ac565b6129fb576040805162461bcd60e51b815260206004820152601a60248201527f48463a204c5020706f6f6c20616c726561647920657869737473000000000000604482015290519081900360640190fd5b6000612a27427f0000000000000000000000000000000000000000000000000000000000000000613200565b600e54909150612a379083612b50565b600e556040805160808101825283815260208082018481526000838501818152606085018281526001600160a01b038a16808452600b865292879020955186559251600186015551600285015590516003909301929092558251858152925191927f0c98febfffcec480c66a977e13f14bafdb5199ea9603591a0715b0cabe0c3ae2929081900390910190a2505050565b604080516001600160a01b0380861660248301528416604482015260648082018490528251808303909101815260849091019091526020810180517bffffffffffffffffffffffffffffffffffffffffffffffffffffffff167f23b872dd0000000000000000000000000000000000000000000000000000000017905261237e9085906135c1565b600082820183811015610e16576040805162461bcd60e51b815260206004820152601b60248201527f536166654d6174683a206164646974696f6e206f766572666c6f770000000000604482015290519081900360640190fd5b600082612bb957506000610e19565b82820282848281612bc657fe5b0414610e165760405162461bcd60e51b81526004018080602001828103825260218152602001806142b86021913960400191505060405180910390fd5b6000808211612c59576040805162461bcd60e51b815260206004820152601a60248201527f536166654d6174683a206469766973696f6e206279207a65726f000000000000604482015290519081900360640190fd5b818381612c6257fe5b049392505050565b600082821115612cc1576040805162461bcd60e51b815260206004820152601e60248201527f536166654d6174683a207375627472616374696f6e206f766572666c6f770000604482015290519081900360640190fd5b50900390565b6060610d718484600085613672565b6000610e196003836137eb565b6000610e19826137f7565b3390565b600081815260056020526040902080547fffffffffffffffffffffffff0000000000000000000000000000000000000000166001600160a01b0384169081179091558190612d3f826114a1565b6001600160a01b03167f8c5be1e5ebec7d5bd14f71427d1e84f3dd0314c0f7b2291e5b200ac8c7c3b92560405160405180910390a45050565b600281015460038201546001830154600092919042118015612d9957508015155b15612dea576000612dae85600101544261158f565b90506000612dcf600e54611b0d886000015485612baa90919063ffffffff16565b9050612de5612dde8285612c03565b8590612b50565b935050505b612e1d85600401546112d187600101546116d1670de0b6b3a7640000611b0d888c60030154612baa90919063ffffffff16565b95945050505050565b6000612e3182612cd6565b612e6c5760405162461bcd60e51b815260040180806020018281038252602c8152602001806141df602c913960400191505060405180910390fd5b6000612e77836114a1565b9050806001600160a01b0316846001600160a01b03161480612eb25750836001600160a01b0316612ea784610be5565b6001600160a01b0316145b80610d715750610d718185612713565b826001600160a01b0316612ed5826114a1565b6001600160a01b031614612f1a5760405162461bcd60e51b81526004018080602001828103825260298152602001806143056029913960400191505060405180910390fd5b6001600160a01b038216612f5f5760405162461bcd60e51b81526004018080602001828103825260248152602001806141956024913960400191505060405180910390fd5b612f6a838383610d2e565b612f75600082612cf2565b6001600160a01b0383166000908152600260205260409020612f9790826137fb565b506001600160a01b0382166000908152600260205260409020612fba9082613807565b50612fc760038284613813565b5080826001600160a01b0316846001600160a01b03167fddf252ad1be2c89b69c2b068fc378daa952ba7f163c4a11628f55a4df523b3ef60405160405180910390a4505050565b6000610e168383613829565b6000610e16836001600160a01b03841661388d565b600284018190556000613057670de0b6b3a7640000611b0d61305085611ec3565b8690612baa565b905061307c670de0b6b3a7640000611b0d866002015484612baa90919063ffffffff16565b60018601556003808601549085015461309a9183916112d191612c6a565b60039485015593909201929092555050565b6113708282604051806020016040528060008152506138a5565b6000610e16836001600160a01b0384166138f7565b60008080806130ea86866139bd565b9097909650945050505050565b805161137090600a906020840190614039565b6000610d71848484613a38565b600081815260106020908152604080832060058101546001600160a01b0316808552600b909352922061314982611a9c565b6131538382612d78565b60048401558254613167848383600061302f565b600061319f670de0b6b3a7640000611b0d847f0000000000000000000000000000000000000000000000000000000000000000612baa565b90506131b56001600160a01b03851633836133cb565b6131bf8282612c6a565b8555604080518281529051879133917f4cdaca29662c1c6939de029e215bbebee084154866a8d05ad150e7503f167d2e9181900360200190a3505050505050565b6000818310156132105781610e16565b5090919050565b60008183106132105781610e16565b6000613231826114a1565b905061323f81600084610d2e565b61324a600083612cf2565b6000828152600960205260409020546002600019610100600184161502019091160415613288576000828152600960205260408120613288916140c5565b6001600160a01b03811660009081526002602052604090206132aa90836137fb565b506132b6600383613b02565b5060405182906000906001600160a01b038416907fddf252ad1be2c89b69c2b068fc378daa952ba7f163c4a11628f55a4df523b3ef908390a45050565b60007f00000000000000000000000000000000000000000000000000000000000000006001600160a01b03166370a08231306040518263ffffffff1660e01b815260040180826001600160a01b0316815260200191505060206040518083038186803b15801561336257600080fd5b505afa158015613376573d6000803e3d6000fd5b505050506040513d602081101561338c57600080fd5b50519050610d2e8361339e8484613217565b6001600160a01b037f00000000000000000000000000000000000000000000000000000000000000001691905b604080516001600160a01b038416602482015260448082018490528251808303909101815260649091019091526020810180517bffffffffffffffffffffffffffffffffffffffffffffffffffffffff167fa9059cbb00000000000000000000000000000000000000000000000000000000179052610d2e9084906135c1565b613456848484612ec2565b61346284848484613b0e565b61237e5760405162461bcd60e51b815260040180806020018281038252603281526020018061413d6032913960400191505060405180910390fd5b6060816134de575060408051808201909152600181527f30000000000000000000000000000000000000000000000000000000000000006020820152610b4a565b8160005b81156134f657600101600a820491506134e2565b60008167ffffffffffffffff8111801561350f57600080fd5b506040519080825280601f01601f19166020018201604052801561353a576020820181803683370190505b50859350905060001982015b83156135a357600a840660300160f81b8282806001900393508151811061356957fe5b60200101907effffffffffffffffffffffffffffffffffffffffffffffffffffffffffffff1916908160001a905350600a84049350613546565b50949350505050565b6000610e16836001600160a01b038416613cea565b6000613616826040518060400160405280602081526020017f5361666545524332303a206c6f772d6c6576656c2063616c6c206661696c6564815250856001600160a01b0316612cc79092919063ffffffff16565b805190915015610d2e5780806020019051602081101561363557600080fd5b5051610d2e5760405162461bcd60e51b815260040180806020018281038252602a8152602001806143af602a913960400191505060405180910390fd5b6060824710156136b35760405162461bcd60e51b81526004018080602001828103825260268152602001806141b96026913960400191505060405180910390fd5b6136bc85613d34565b61370d576040805162461bcd60e51b815260206004820152601d60248201527f416464726573733a2063616c6c20746f206e6f6e2d636f6e7472616374000000604482015290519081900360640190fd5b600080866001600160a01b031685876040518082805190602001908083835b6020831061376957805182527fffffffffffffffffffffffffffffffffffffffffffffffffffffffffffffffe0909201916020918201910161372c565b6001836020036101000a03801982511681845116808217855250505050505090500191505060006040518083038185875af1925050503d80600081146137cb576040519150601f19603f3d011682016040523d82523d6000602084013e6137d0565b606091505b50915091506137e0828286613d3a565b979650505050505050565b6000610e16838361388d565b5490565b6000610e1683836138f7565b6000610e168383613cea565b6000610d7184846001600160a01b038516613da0565b8154600090821061386b5760405162461bcd60e51b815260040180806020018281038252602281526020018061411b6022913960400191505060405180910390fd5b82600001828154811061387a57fe5b9060005260206000200154905092915050565b60009081526001919091016020526040902054151590565b6138af8383613e37565b6138bc6000848484613b0e565b610d2e5760405162461bcd60e51b815260040180806020018281038252603281526020018061413d6032913960400191505060405180910390fd5b600081815260018301602052604081205480156139b3578354600019808301919081019060009087908390811061392a57fe5b906000526020600020015490508087600001848154811061394757fe5b60009182526020808320909101929092558281526001898101909252604090209084019055865487908061397757fe5b60019003818190600052602060002001600090559055866001016000878152602001908152602001600020600090556001945050505050610e19565b6000915050610e19565b815460009081908310613a015760405162461bcd60e51b81526004018080602001828103825260228152602001806142966022913960400191505060405180910390fd5b6000846000018481548110613a1257fe5b906000526020600020906002020190508060000154816001015492509250509250929050565b60008281526001840160205260408120548281613ad35760405162461bcd60e51b81526004018080602001828103825283818151815260200191508051906020019080838360005b83811015613a98578181015183820152602001613a80565b50505050905090810190601f168015613ac55780820380516001836020036101000a031916815260200191505b509250505060405180910390fd5b50846000016001820381548110613ae657fe5b9060005260206000209060020201600101549150509392505050565b6000610e168383613f65565b6000613b22846001600160a01b0316613d34565b613b2e57506001610d71565b6000613c7f7f150b7a0200000000000000000000000000000000000000000000000000000000613b5c612cee565b88878760405160240180856001600160a01b03168152602001846001600160a01b0316815260200183815260200180602001828103825283818151815260200191508051906020019080838360005b83811015613bc3578181015183820152602001613bab565b50505050905090810190601f168015613bf05780820380516001836020036101000a031916815260200191505b5095505050505050604051602081830303815290604052907bffffffffffffffffffffffffffffffffffffffffffffffffffffffff19166020820180517bffffffffffffffffffffffffffffffffffffffffffffffffffffffff838183161783525050505060405180606001604052806032815260200161413d603291396001600160a01b0388169190612cc7565b90506000818060200190516020811015613c9857600080fd5b50517fffffffff00000000000000000000000000000000000000000000000000000000167f150b7a02000000000000000000000000000000000000000000000000000000001492505050949350505050565b6000613cf6838361388d565b613d2c57508154600181810184556000848152602080822090930184905584548482528286019093526040902091909155610e19565b506000610e19565b3b151590565b60608315613d49575081611f35565b825115613d595782518084602001fd5b60405162461bcd60e51b8152602060048201818152845160248401528451859391928392604401919085019080838360008315613a98578181015183820152602001613a80565b600082815260018401602052604081205480613e05575050604080518082018252838152602080820184815286546001818101895560008981528481209551600290930290950191825591519082015586548684528188019092529290912055611f35565b82856000016001830381548110613e1857fe5b9060005260206000209060020201600101819055506000915050611f35565b6001600160a01b038216613e92576040805162461bcd60e51b815260206004820181905260248201527f4552433732313a206d696e7420746f20746865207a65726f2061646472657373604482015290519081900360640190fd5b613e9b81612cd6565b15613eed576040805162461bcd60e51b815260206004820152601c60248201527f4552433732313a20746f6b656e20616c7265616479206d696e74656400000000604482015290519081900360640190fd5b613ef960008383610d2e565b6001600160a01b0382166000908152600260205260409020613f1b9082613807565b50613f2860038284613813565b5060405181906001600160a01b038416906000907fddf252ad1be2c89b69c2b068fc378daa952ba7f163c4a11628f55a4df523b3ef908290a45050565b600081815260018301602052604081205480156139b35783546000198083019190810190600090879083908110613f9857fe5b9060005260206000209060020201905080876000018481548110613fb857fe5b600091825260208083208454600290930201918255600193840154918401919091558354825289830190526040902090840190558654879080613ff757fe5b6000828152602080822060026000199094019384020182815560019081018390559290935588815289820190925260408220919091559450610e199350505050565b828054600181600116156101000203166002900490600052602060002090601f01602090048101928261406f57600085556140b5565b82601f1061408857805160ff19168380011785556140b5565b828001600101855582156140b5579182015b828111156140b557825182559160200191906001019061409a565b506140c1929150614105565b5090565b50805460018160011615610100020316600290046000825580601f106140eb575061146a565b601f01602090049060005260206000209081019061146a91905b5b808211156140c1576000815560010161410656fe456e756d657261626c655365743a20696e646578206f7574206f6620626f756e64734552433732313a207472616e7366657220746f206e6f6e20455243373231526563656976657220696d706c656d656e7465724f776e61626c653a206e6577206f776e657220697320746865207a65726f20616464726573734552433732313a207472616e7366657220746f20746865207a65726f2061646472657373416464726573733a20696e73756666696369656e742062616c616e636520666f722063616c6c4552433732313a206f70657261746f7220717565727920666f72206e6f6e6578697374656e7420746f6b656e4552433732313a20617070726f76652063616c6c6572206973206e6f74206f776e6572206e6f7220617070726f76656420666f7220616c6c4552433732313a2062616c616e636520717565727920666f7220746865207a65726f20616464726573734552433732313a206f776e657220717565727920666f72206e6f6e6578697374656e7420746f6b656e456e756d657261626c654d61703a20696e646578206f7574206f6620626f756e6473536166654d6174683a206d756c7469706c69636174696f6e206f766572666c6f774552433732313a20617070726f76656420717565727920666f72206e6f6e6578697374656e7420746f6b656e4552433732313a207472616e73666572206f6620746f6b656e2074686174206973206e6f74206f776e4552433732314d657461646174613a2055524920717565727920666f72206e6f6e6578697374656e7420746f6b656e4552433732313a20617070726f76616c20746f2063757272656e74206f776e65724552433732313a207472616e736665722063616c6c6572206973206e6f74206f776e6572206e6f7220617070726f7665645361666545524332303a204552433230206f7065726174696f6e20646964206e6f742073756363656564a2646970667358221220f6aeccaa360cd8823a202bce3af88ccf2ebb581c3bcec140b6ca144cda6d32b364736f6c63430007060033416464726573733a20696e73756666696369656e742062616c616e636520666f722063616c6c536166654d6174683a206d756c7469706c69636174696f6e206f766572666c6f775361666545524332303a204552433230206f7065726174696f6e20646964206e6f742073756363656564",
  "immutableReferences": {
    "48": [
      {
        "length": 32,
        "start": 5045
      },
      {
        "length": 32,
        "start": 6506
      },
      {
        "length": 32,
        "start": 8172
      },
      {
        "length": 32,
        "start": 13047
      },
      {
        "length": 32,
        "start": 13224
      }
    ],
    "64": [
      {
        "length": 32,
        "start": 5761
      },
      {
        "length": 32,
        "start": 9094
      }
    ],
    "66": [
      {
        "length": 32,
        "start": 5803
      },
      {
        "length": 32,
        "start": 9927
      }
    ],
    "68": [
      {
        "length": 32,
        "start": 3978
      },
      {
        "length": 32,
        "start": 9891
      }
    ],
    "70": [
      {
        "length": 32,
        "start": 4094
      },
      {
        "length": 32,
        "start": 9963
      }
    ],
    "72": [
      {
        "length": 32,
        "start": 5527
      },
      {
        "length": 32,
        "start": 5656
      },
      {
        "length": 32,
        "start": 5700
      },
      {
        "length": 32,
        "start": 6772
      },
      {
        "length": 32,
        "start": 10755
      }
    ],
    "74": [
      {
        "length": 32,
        "start": 4439
      },
      {
        "length": 32,
        "start": 5592
      },
      {
        "length": 32,
        "start": 8593
      }
    ],
    "76": [
      {
        "length": 32,
        "start": 6056
      },
      {
        "length": 32,
        "start": 7953
      }
    ],
    "78": [
      {
        "length": 32,
        "start": 4982
      },
      {
        "length": 32,
        "start": 7916
      }
    ],
    "80": [
      {
        "length": 32,
        "start": 3538
      },
      {
        "length": 32,
        "start": 12667
      }
    ]
  },
  "source": "// SPDX-License-Identifier: GPL-3.0-only\n// TODO: update link to farm\n// https://cheemsco.in/farm\n// https://github.com/cryptocheems/farm-contracts\npragma solidity 0.7.6;\n\nimport \"@openzeppelin/contracts/token/ERC721/ERC721.sol\";\nimport \"@openzeppelin/contracts/token/ERC20/IERC20.sol\";\nimport \"@openzeppelin/contracts/token/ERC20/SafeERC20.sol\";\nimport \"@openzeppelin/contracts/utils/EnumerableSet.sol\";\nimport \"@openzeppelin/contracts/math/SafeMath.sol\";\nimport \"@openzeppelin/contracts/math/Math.sol\";\nimport \"@openzeppelin/contracts/access/Ownable.sol\";\n\n// Forked from the HoneyFarm v1 contract\n// https://github.com/1Hive/honeyswap-farm/blob/master/contracts/HoneyFarm.sol\ncontract CheemscoinFarm is Ownable, ERC721 {\n  using SafeMath for uint256;\n  using SafeERC20 for IERC20;\n  using EnumerableSet for EnumerableSet.AddressSet;\n\n  // Info of each deposit\n  struct DepositInfo {\n    uint256 amount; // How many LP tokens the user has provided.\n    uint256 rewardDebt; // Reward debt (value of accumulator)\n    uint256 unlockTime;\n    uint256 rewardShare;\n    uint256 setRewards;\n    IERC20 pool;\n  }\n\n  // Info of each pool.\n  struct PoolInfo {\n    uint256 allocation; // How many allocation points assigned to this pool.\n    // Last block timestamp that HSFs distribution occured, initially set to the startTime.\n    uint256 lastRewardTimestamp;\n    uint256 accHsfPerShare; // Accumulated HSFs per share, times SCALE.\n    uint256 totalShares; // total shares stored in pool\n  }\n\n  // What fractional numbers are scaled by\n  uint256 public constant SCALE = 1e18;\n  // The Farm token\n  IERC20 public immutable hsf;\n  // Info of each pool.\n  mapping(IERC20 => PoolInfo) public poolInfo;\n  // set of running pools\n  EnumerableSet.AddressSet internal pools;\n  // Total allocation points. Must be the sum of all allocation points in all pools.\n  uint256 public totalAllocationPoints;\n  // total deposits\n  uint256 public totalDeposits;\n  // data about infdividual deposits\n  mapping(uint256 => DepositInfo) public depositInfo;\n  /* the negative slope of the distribution line scaled by SCALE, how much\n  less is being distributed per unit of time. */\n  uint256 public immutable distributionSlope;\n  // starting distribution rate / unit time scaled by SCALE\n  uint256 public immutable startDistribution;\n  // minimum time someone can lock their liquidity for\n  uint256 public immutable minTimeLock;\n  // maximum time someone can lock their liquidity for\n  uint256 public immutable maxTimeLock;\n  // time at which coins begin being distributed\n  uint256 public immutable startTime;\n  // time at which coins finish being distributed\n  uint256 public immutable endTime;\n  // multiplier for time locked deposits / second locked scaled by SCALE\n  uint256 public immutable timeLockMultiplier;\n  // constant added to the timeLockMultiplier scaled by SCALE\n  uint256 public immutable timeLockConstant;\n  /* One time fee that is deducted from time-locked deposits given to whoever\n  downgrades it, scaled by SCALE */\n  uint256 public immutable downgradeFee;\n  // whether this contract has been disabled\n  uint256 public contractDisabledAt;\n\n  event PoolAdded(IERC20 indexed poolToken, uint256 allocation);\n  // fired when pool parameters are updated not when the updatePool() method is called\n  event PoolUpdated(IERC20 indexed poolToken, uint256 allocation);\n  event PoolRemoved(IERC20 indexed poolToken);\n  event Disabled();\n  event DepositDowngraded(\n    address indexed downgrader,\n    uint256 indexed depositId,\n    uint256 downgradeReward\n  );\n  event RewardsWithdraw(uint256 indexed depositId, uint256 rewardAmount);\n  event RewardsAdded(uint256 additionalRewardAmount);\n\n  // parameters passed as byte strings to mitigate stack too deep error\n  constructor(\n    IERC20 _hsf,\n    // uint256 _startTime,\n    // uint256 _endTime,\n    // uint256 _totalHsfToDistribute,\n    // uint256 _endDistributionFraction,\n    // uint256 _minTimeLock,\n    // uint256 _maxTimeLock,\n    // uint256 _timeLockMultiplier,\n    // uint256 _timeLockConstant,\n    // uint256 _downgradeFee\n    uint256[9] memory _parameters\n  ) ERC721(\"CheemscoinFarm Deposits v1\", \"CFD\") {\n    uint256 _startTime = _parameters[0];\n    uint256 _endTime = _parameters[1];\n    require(_endTime > _startTime, \"HF: endTime before startTime\");\n    uint256 _totalHsfToDistribute = _parameters[2];\n    uint256 _endDistributionFraction = _parameters[3];\n    hsf = _hsf;\n    startTime = _startTime;\n    endTime = _endTime;\n    _hsf.safeTransferFrom(msg.sender, address(this), _totalHsfToDistribute);\n\n    // check https://hackmd.io/BFrhyOTUQ3O9REs5PuZahQ for a breakdown of the maths\n    // ds = (2 * s) / (te * (r + 1))\n    uint256 startDistribution_ = _totalHsfToDistribute.mul(2).mul(SCALE).mul(SCALE).div(\n      (_endTime - _startTime).mul(_endDistributionFraction.add(SCALE))\n    );\n    // -m = ds * (1 - r) / te\n    distributionSlope = startDistribution_.mul(SCALE.sub(_endDistributionFraction)).div(\n      (_endTime - _startTime).mul(SCALE)\n    );\n    startDistribution = startDistribution_;\n\n    uint256 _minTimeLock = _parameters[4];\n    uint256 _maxTimeLock = _parameters[5];\n    require(_minTimeLock < _maxTimeLock, \"HF: invalid lock limits\");\n    // TODO: Change these. Also hardcode many of these values\n    minTimeLock = _minTimeLock;\n    maxTimeLock = _maxTimeLock;\n    timeLockMultiplier = _parameters[6];\n    timeLockConstant = _parameters[7];\n    downgradeFee = _parameters[8];\n  }\n\n  modifier notDisabled {\n    require(contractDisabledAt == 0, \"HF: Contract already disabled\");\n    _;\n  }\n\n  function poolLength() external view returns (uint256) {\n    return pools.length();\n  }\n\n  function getPoolByIndex(uint256 _index)\n    external\n    view\n    returns (\n      IERC20 poolToken,\n      uint256 allocation,\n      uint256 lastRewardTimestamp,\n      uint256 accHsfPerShare,\n      uint256 totalShares\n    )\n  {\n    poolToken = IERC20(pools.at(_index));\n    PoolInfo storage pool = poolInfo[poolToken];\n    allocation = pool.allocation;\n    lastRewardTimestamp = pool.lastRewardTimestamp;\n    accHsfPerShare = pool.accHsfPerShare;\n    totalShares = pool.totalShares;\n  }\n\n  // underscore placed after to avoid collide with the ERC721._baseURI property\n  function setBaseURI(string memory baseURI_) external onlyOwner {\n    _setBaseURI(baseURI_);\n  }\n\n  function disableContract(address _tokenRecipient) external onlyOwner notDisabled {\n    massUpdatePools();\n    uint256 remainingTokens = getDistribution(block.timestamp, endTime);\n    _safeHsfTransfer(_tokenRecipient, remainingTokens.div(SCALE));\n    contractDisabledAt = block.timestamp;\n    emit Disabled();\n  }\n\n  function depositAdditionalRewards(uint256 _depositAmount) external {\n    uint256 totalAllocationPoints_ = totalAllocationPoints;\n    require(totalAllocationPoints_ > 0, \"HF: no pools created\");\n    hsf.safeTransferFrom(msg.sender, address(this), _depositAmount);\n    uint256 poolLen = pools.length();\n    for (uint256 i; i < poolLen; i++) {\n      IERC20 poolToken = IERC20(pools.at(i));\n      PoolInfo storage pool = poolInfo[poolToken];\n      uint256 poolTotalShares = pool.totalShares;\n      if (poolTotalShares > 0) {\n        uint256 poolScaledRewards = _depositAmount.mul(SCALE).mul(pool.allocation) /\n          totalAllocationPoints_ /\n          poolTotalShares;\n        pool.accHsfPerShare = pool.accHsfPerShare.add(poolScaledRewards);\n      }\n    }\n    emit RewardsAdded(_depositAmount);\n  }\n\n  // Add a new lp to the pool. Can only be called by the owner.\n  function add(IERC20 _lpToken, uint256 _allocation) public onlyOwner notDisabled {\n    require(_allocation > 0, \"HF: Too low allocation\");\n    massUpdatePools();\n    require(pools.add(address(_lpToken)), \"HF: LP pool already exists\");\n    uint256 lastRewardTimestamp = Math.max(block.timestamp, startTime);\n    totalAllocationPoints = totalAllocationPoints.add(_allocation);\n    poolInfo[_lpToken] = PoolInfo({\n      allocation: _allocation,\n      lastRewardTimestamp: lastRewardTimestamp,\n      accHsfPerShare: 0,\n      totalShares: 0\n    });\n    emit PoolAdded(_lpToken, _allocation);\n  }\n\n  // Update the given pool's allocation point. Can only be called by the owner.\n  function set(IERC20 _poolToken, uint256 _allocation) public onlyOwner notDisabled {\n    require(pools.contains(address(_poolToken)), \"HF: Non-existant pool\");\n    massUpdatePools();\n    totalAllocationPoints = totalAllocationPoints.sub(poolInfo[_poolToken].allocation).add(\n      _allocation\n    );\n    poolInfo[_poolToken].allocation = _allocation;\n    emit PoolUpdated(_poolToken, _allocation);\n    if (_allocation == 0) {\n      pools.remove(address(_poolToken));\n      emit PoolRemoved(_poolToken);\n    }\n  }\n\n  // get tokens to be distributed between two timestamps scaled by SCALE\n  function getDistribution(uint256 _from, uint256 _to) public view returns (uint256) {\n    uint256 from = Math.max(startTime, _from);\n    uint256 to = Math.min(_to, contractDisabledAt == 0 ? endTime : contractDisabledAt);\n\n    if (from > to) return uint256(0);\n\n    from = from.sub(startTime);\n    to = to.sub(startTime);\n\n    // check https://hackmd.io/BFrhyOTUQ3O9REs5PuZahQ for a breakdown of the maths\n    // d(t1, t2) = (t2 - t1) * (2 * ds - (-m) * (t2 + t1)) / 2\n    return to.sub(from).mul(startDistribution.mul(2).sub(distributionSlope.mul(from.add(to)))) / 2;\n  }\n\n  function getTimeMultiple(uint256 _unlockTime) public view returns (uint256) {\n    if (_unlockTime == 0) return SCALE;\n    uint256 timeDelta = _unlockTime.sub(block.timestamp);\n    return timeDelta.mul(timeLockMultiplier).add(timeLockConstant);\n  }\n\n  // View function to see pending HSFs on frontend.\n  function pendingHsf(uint256 _depositId) external view returns (uint256) {\n    DepositInfo storage deposit = depositInfo[_depositId];\n    PoolInfo storage pool = poolInfo[deposit.pool];\n    return _getPendingHsf(deposit, pool);\n  }\n\n  // Deposit LP tokens into the farm to earn HSF\n  function createDeposit(\n    IERC20 _poolToken,\n    uint256 _amount,\n    uint256 _unlockTime\n  ) external notDisabled {\n    require(_amount > 0, \"HF: Must deposit something\");\n    // TODO: Confirm whether to do this\n    require(_unlockTime > block.timestamp, \"HF: Invalid unlock time\");\n    // require(_unlockTime == 0 || _unlockTime > block.timestamp, \"HF: Invalid unlock time\");\n    require(pools.contains(address(_poolToken)), \"HF: Non-existant pool\");\n    // if (_unlockTime != 0) {\n    uint256 lockDuration = _unlockTime.sub(block.timestamp);\n    require(minTimeLock <= lockDuration, \"HF: Lock time too short\");\n    require(lockDuration <= maxTimeLock, \"HF: Lock time exceeds maximum\");\n    // }\n    PoolInfo storage pool = poolInfo[_poolToken];\n    updatePool(_poolToken);\n    _poolToken.safeTransferFrom(address(msg.sender), address(this), _amount);\n    uint256 newDepositId = totalDeposits++;\n    DepositInfo storage newDeposit = depositInfo[newDepositId];\n    newDeposit.amount = _amount;\n    newDeposit.pool = _poolToken;\n    _resetRewardAccs(newDeposit, pool, _amount, _unlockTime);\n    _safeMint(msg.sender, newDepositId);\n  }\n\n  // Withdraw LP tokens along with reward\n  function closeDeposit(uint256 _depositId) external {\n    require(ownerOf(_depositId) == msg.sender, \"HF: Must be owner to withdraw\");\n    DepositInfo storage deposit = depositInfo[_depositId];\n    require(\n      deposit.unlockTime <= block.timestamp || contractDisabledAt > 0,\n      \"HF: Deposit still locked\"\n    );\n    // require(\n    //   deposit.unlockTime == 0 || deposit.unlockTime <= block.timestamp || contractDisabledAt > 0,\n    //   \"HF: Deposit still locked\"\n    // );\n    IERC20 poolToken = deposit.pool;\n    PoolInfo storage pool = poolInfo[poolToken];\n    updatePool(poolToken);\n\n    uint256 pending = _getPendingHsf(deposit, pool);\n    pool.totalShares = pool.totalShares.sub(deposit.rewardShare);\n    _burn(_depositId);\n    _safeHsfTransfer(msg.sender, pending);\n    poolToken.safeTransfer(msg.sender, deposit.amount);\n    delete depositInfo[_depositId];\n  }\n\n  function withdrawRewards(uint256 _depositId) external {\n    require(ownerOf(_depositId) == msg.sender, \"HF: Must be owner of deposit\");\n    DepositInfo storage deposit = depositInfo[_depositId];\n    PoolInfo storage pool = poolInfo[deposit.pool];\n    uint256 _unlockTime = deposit.unlockTime;\n    if (_unlockTime > 0 && _unlockTime <= block.timestamp) {\n      _downgradeExpired(_depositId);\n    } else {\n      updatePool(deposit.pool);\n    }\n    uint256 pendingRewards = _getPendingHsf(deposit, pool);\n    deposit.setRewards = uint256(0);\n    deposit.rewardDebt = deposit.rewardShare.mul(pool.accHsfPerShare).div(SCALE);\n    _safeHsfTransfer(msg.sender, pendingRewards);\n    emit RewardsWithdraw(_depositId, pendingRewards);\n  }\n\n  // This exists so if an ERC20 is accidentally sent to this contract, the funds can be recovered\n  function recoverToken(IERC20 _token) external onlyOwner {\n    // So owner cannot steal desposited funds\n    require(!pools.contains(address(_token)) && _token != hsf);\n    _token.safeTransfer(msg.sender, _token.balanceOf(address(this)));\n  }\n\n  function downgradeExpired(uint256 _depositId) public {\n    DepositInfo storage deposit = depositInfo[_depositId];\n    require(deposit.unlockTime > 0, \"HF: no lock to expire\");\n    require(deposit.unlockTime <= block.timestamp, \"HF: deposit has not expired yet\");\n    _downgradeExpired(_depositId);\n  }\n\n  // Update reward variables for all pools. Be careful of gas spending!\n  function massUpdatePools() public {\n    uint256 length = pools.length();\n    for (uint256 pid = 0; pid < length; pid++) {\n      updatePool(IERC20(pools.at(pid)));\n    }\n  }\n\n  // Update reward variables of the given pool to be up-to-date.\n  function updatePool(IERC20 _poolToken) public {\n    PoolInfo storage pool = poolInfo[_poolToken];\n    if (block.timestamp <= pool.lastRewardTimestamp) {\n      return;\n    }\n    uint256 totalShares = pool.totalShares;\n    if (totalShares == 0) {\n      pool.lastRewardTimestamp = block.timestamp;\n      return;\n    }\n    uint256 dist = getDistribution(pool.lastRewardTimestamp, block.timestamp);\n    uint256 hsfReward = dist.mul(pool.allocation).div(totalAllocationPoints);\n    uint256 poolScaledRewards = hsfReward.div(totalShares);\n    pool.accHsfPerShare = pool.accHsfPerShare.add(poolScaledRewards);\n    pool.lastRewardTimestamp = block.timestamp;\n  }\n\n  function _downgradeExpired(uint256 _depositId) internal {\n    DepositInfo storage deposit = depositInfo[_depositId];\n    IERC20 poolToken = deposit.pool;\n    PoolInfo storage pool = poolInfo[poolToken];\n    updatePool(poolToken);\n    deposit.setRewards = _getPendingHsf(deposit, pool);\n    uint256 amount = deposit.amount;\n    _resetRewardAccs(deposit, pool, amount, 0);\n    // TODO: look into this (refer to audit)\n    uint256 downgradeReward = amount.mul(downgradeFee).div(SCALE);\n    poolToken.safeTransfer(msg.sender, downgradeReward);\n    deposit.amount = amount.sub(downgradeReward);\n    emit DepositDowngraded(msg.sender, _depositId, downgradeReward);\n  }\n\n  function _getPendingHsf(DepositInfo storage _deposit, PoolInfo storage _pool)\n    internal\n    view\n    returns (uint256)\n  {\n    uint256 accHsfPerShare = _pool.accHsfPerShare;\n    uint256 totalShares = _pool.totalShares;\n    if (block.timestamp > _pool.lastRewardTimestamp && totalShares != 0) {\n      uint256 dist = getDistribution(_pool.lastRewardTimestamp, block.timestamp);\n      uint256 hsfReward = dist.mul(_pool.allocation).div(totalAllocationPoints);\n      accHsfPerShare = accHsfPerShare.add(hsfReward.div(totalShares));\n    }\n    return\n      _deposit.rewardShare.mul(accHsfPerShare).div(SCALE).sub(_deposit.rewardDebt).add(\n        _deposit.setRewards\n      );\n  }\n\n  function _resetRewardAccs(\n    DepositInfo storage _deposit,\n    PoolInfo storage _pool,\n    uint256 _amount,\n    uint256 _unlockTime\n  ) internal {\n    _deposit.unlockTime = _unlockTime;\n    uint256 newShares = _amount.mul(getTimeMultiple(_unlockTime)).div(SCALE);\n    _deposit.rewardDebt = newShares.mul(_pool.accHsfPerShare).div(SCALE);\n    _pool.totalShares = _pool.totalShares.sub(_deposit.rewardShare).add(newShares);\n    _deposit.rewardShare = newShares;\n  }\n\n  /* Safe hsf transfer function, just in case if rounding error causes pool\n  to not have enough HSFs. */\n  function _safeHsfTransfer(address _to, uint256 _amount) internal {\n    uint256 hsfBal = hsf.balanceOf(address(this));\n    hsf.safeTransfer(_to, Math.min(_amount, hsfBal));\n  }\n}\n",
  "sourcePath": "/Users/kaikurosawa/Desktop/code/farm-contracts/contracts/CheemscoinFarm.sol",
  "compiler": {
    "name": "solc",
    "version": "0.7.6+commit.7338295f.Emscripten.clang"
  },
  "schemaVersion": "3.3.3",
  "updatedAt": "2021-06-27T04:17:30.736Z",
  "networkType": "ethereum",
  "devdoc": {
    "kind": "dev",
    "methods": {
      "approve(address,uint256)": {
        "details": "See {IERC721-approve}."
      },
      "balanceOf(address)": {
        "details": "See {IERC721-balanceOf}."
      },
      "baseURI()": {
        "details": "Returns the base URI set via {_setBaseURI}. This will be automatically added as a prefix in {tokenURI} to each token's URI, or to the token ID if no specific URI is set for that token ID."
      },
      "getApproved(uint256)": {
        "details": "See {IERC721-getApproved}."
      },
      "isApprovedForAll(address,address)": {
        "details": "See {IERC721-isApprovedForAll}."
      },
      "name()": {
        "details": "See {IERC721Metadata-name}."
      },
      "owner()": {
        "details": "Returns the address of the current owner."
      },
      "ownerOf(uint256)": {
        "details": "See {IERC721-ownerOf}."
      },
      "renounceOwnership()": {
        "details": "Leaves the contract without owner. It will not be possible to call `onlyOwner` functions anymore. Can only be called by the current owner. NOTE: Renouncing ownership will leave the contract without an owner, thereby removing any functionality that is only available to the owner."
      },
      "safeTransferFrom(address,address,uint256)": {
        "details": "See {IERC721-safeTransferFrom}."
      },
      "safeTransferFrom(address,address,uint256,bytes)": {
        "details": "See {IERC721-safeTransferFrom}."
      },
      "setApprovalForAll(address,bool)": {
        "details": "See {IERC721-setApprovalForAll}."
      },
      "supportsInterface(bytes4)": {
        "details": "See {IERC165-supportsInterface}. Time complexity O(1), guaranteed to always use less than 30 000 gas."
      },
      "symbol()": {
        "details": "See {IERC721Metadata-symbol}."
      },
      "tokenByIndex(uint256)": {
        "details": "See {IERC721Enumerable-tokenByIndex}."
      },
      "tokenOfOwnerByIndex(address,uint256)": {
        "details": "See {IERC721Enumerable-tokenOfOwnerByIndex}."
      },
      "tokenURI(uint256)": {
        "details": "See {IERC721Metadata-tokenURI}."
      },
      "totalSupply()": {
        "details": "See {IERC721Enumerable-totalSupply}."
      },
      "transferFrom(address,address,uint256)": {
        "details": "See {IERC721-transferFrom}."
      },
      "transferOwnership(address)": {
        "details": "Transfers ownership of the contract to a new account (`newOwner`). Can only be called by the current owner."
      }
    },
    "version": 1
  },
  "userdoc": {
    "kind": "user",
    "methods": {},
    "version": 1
  }
}