{
  "contractName": "CheemscoinFarm",
  "abi": [
    {
      "inputs": [
        {
          "internalType": "contract IERC20",
          "name": "_hsf",
          "type": "address"
        },
        {
          "internalType": "uint256[9]",
          "name": "_parameters",
          "type": "uint256[9]"
        }
      ],
      "stateMutability": "nonpayable",
      "type": "constructor"
    },
    {
      "anonymous": false,
      "inputs": [
        {
          "indexed": true,
          "internalType": "address",
          "name": "owner",
          "type": "address"
        },
        {
          "indexed": true,
          "internalType": "address",
          "name": "approved",
          "type": "address"
        },
        {
          "indexed": true,
          "internalType": "uint256",
          "name": "tokenId",
          "type": "uint256"
        }
      ],
      "name": "Approval",
      "type": "event"
    },
    {
      "anonymous": false,
      "inputs": [
        {
          "indexed": true,
          "internalType": "address",
          "name": "owner",
          "type": "address"
        },
        {
          "indexed": true,
          "internalType": "address",
          "name": "operator",
          "type": "address"
        },
        {
          "indexed": false,
          "internalType": "bool",
          "name": "approved",
          "type": "bool"
        }
      ],
      "name": "ApprovalForAll",
      "type": "event"
    },
    {
      "anonymous": false,
      "inputs": [
        {
          "indexed": true,
          "internalType": "address",
          "name": "downgrader",
          "type": "address"
        },
        {
          "indexed": true,
          "internalType": "uint256",
          "name": "depositId",
          "type": "uint256"
        },
        {
          "indexed": false,
          "internalType": "uint256",
          "name": "downgradeReward",
          "type": "uint256"
        }
      ],
      "name": "DepositDowngraded",
      "type": "event"
    },
    {
      "anonymous": false,
      "inputs": [],
      "name": "Disabled",
      "type": "event"
    },
    {
      "anonymous": false,
      "inputs": [
        {
          "indexed": true,
          "internalType": "address",
          "name": "previousOwner",
          "type": "address"
        },
        {
          "indexed": true,
          "internalType": "address",
          "name": "newOwner",
          "type": "address"
        }
      ],
      "name": "OwnershipTransferred",
      "type": "event"
    },
    {
      "anonymous": false,
      "inputs": [
        {
          "indexed": true,
          "internalType": "contract IERC20",
          "name": "poolToken",
          "type": "address"
        },
        {
          "indexed": false,
          "internalType": "uint256",
          "name": "allocation",
          "type": "uint256"
        }
      ],
      "name": "PoolAdded",
      "type": "event"
    },
    {
      "anonymous": false,
      "inputs": [
        {
          "indexed": true,
          "internalType": "contract IERC20",
          "name": "poolToken",
          "type": "address"
        }
      ],
      "name": "PoolRemoved",
      "type": "event"
    },
    {
      "anonymous": false,
      "inputs": [
        {
          "indexed": true,
          "internalType": "contract IERC20",
          "name": "poolToken",
          "type": "address"
        },
        {
          "indexed": false,
          "internalType": "uint256",
          "name": "allocation",
          "type": "uint256"
        }
      ],
      "name": "PoolUpdated",
      "type": "event"
    },
    {
      "anonymous": false,
      "inputs": [
        {
          "indexed": false,
          "internalType": "uint256",
          "name": "additionalRewardAmount",
          "type": "uint256"
        }
      ],
      "name": "RewardsAdded",
      "type": "event"
    },
    {
      "anonymous": false,
      "inputs": [
        {
          "indexed": true,
          "internalType": "uint256",
          "name": "depositId",
          "type": "uint256"
        },
        {
          "indexed": false,
          "internalType": "uint256",
          "name": "rewardAmount",
          "type": "uint256"
        }
      ],
      "name": "RewardsWithdraw",
      "type": "event"
    },
    {
      "anonymous": false,
      "inputs": [
        {
          "indexed": true,
          "internalType": "address",
          "name": "from",
          "type": "address"
        },
        {
          "indexed": true,
          "internalType": "address",
          "name": "to",
          "type": "address"
        },
        {
          "indexed": true,
          "internalType": "uint256",
          "name": "tokenId",
          "type": "uint256"
        }
      ],
      "name": "Transfer",
      "type": "event"
    },
    {
      "inputs": [],
      "name": "SCALE",
      "outputs": [
        {
          "internalType": "uint256",
          "name": "",
          "type": "uint256"
        }
      ],
      "stateMutability": "view",
      "type": "function",
      "constant": true
    },
    {
      "inputs": [
        {
          "internalType": "address",
          "name": "to",
          "type": "address"
        },
        {
          "internalType": "uint256",
          "name": "tokenId",
          "type": "uint256"
        }
      ],
      "name": "approve",
      "outputs": [],
      "stateMutability": "nonpayable",
      "type": "function"
    },
    {
      "inputs": [
        {
          "internalType": "address",
          "name": "owner",
          "type": "address"
        }
      ],
      "name": "balanceOf",
      "outputs": [
        {
          "internalType": "uint256",
          "name": "",
          "type": "uint256"
        }
      ],
      "stateMutability": "view",
      "type": "function",
      "constant": true
    },
    {
      "inputs": [],
      "name": "baseURI",
      "outputs": [
        {
          "internalType": "string",
          "name": "",
          "type": "string"
        }
      ],
      "stateMutability": "view",
      "type": "function",
      "constant": true
    },
    {
      "inputs": [],
      "name": "contractDisabledAt",
      "outputs": [
        {
          "internalType": "uint256",
          "name": "",
          "type": "uint256"
        }
      ],
      "stateMutability": "view",
      "type": "function",
      "constant": true
    },
    {
      "inputs": [
        {
          "internalType": "uint256",
          "name": "",
          "type": "uint256"
        }
      ],
      "name": "depositInfo",
      "outputs": [
        {
          "internalType": "uint256",
          "name": "amount",
          "type": "uint256"
        },
        {
          "internalType": "uint256",
          "name": "rewardDebt",
          "type": "uint256"
        },
        {
          "internalType": "uint256",
          "name": "unlockTime",
          "type": "uint256"
        },
        {
          "internalType": "uint256",
          "name": "rewardShare",
          "type": "uint256"
        },
        {
          "internalType": "uint256",
          "name": "setRewards",
          "type": "uint256"
        },
        {
          "internalType": "contract IERC20",
          "name": "pool",
          "type": "address"
        }
      ],
      "stateMutability": "view",
      "type": "function",
      "constant": true
    },
    {
      "inputs": [],
      "name": "distributionSlope",
      "outputs": [
        {
          "internalType": "uint256",
          "name": "",
          "type": "uint256"
        }
      ],
      "stateMutability": "view",
      "type": "function",
      "constant": true
    },
    {
      "inputs": [],
      "name": "downgradeFee",
      "outputs": [
        {
          "internalType": "uint256",
          "name": "",
          "type": "uint256"
        }
      ],
      "stateMutability": "view",
      "type": "function",
      "constant": true
    },
    {
      "inputs": [],
      "name": "endTime",
      "outputs": [
        {
          "internalType": "uint256",
          "name": "",
          "type": "uint256"
        }
      ],
      "stateMutability": "view",
      "type": "function",
      "constant": true
    },
    {
      "inputs": [
        {
          "internalType": "uint256",
          "name": "tokenId",
          "type": "uint256"
        }
      ],
      "name": "getApproved",
      "outputs": [
        {
          "internalType": "address",
          "name": "",
          "type": "address"
        }
      ],
      "stateMutability": "view",
      "type": "function",
      "constant": true
    },
    {
      "inputs": [],
      "name": "hsf",
      "outputs": [
        {
          "internalType": "contract IERC20",
          "name": "",
          "type": "address"
        }
      ],
      "stateMutability": "view",
      "type": "function",
      "constant": true
    },
    {
      "inputs": [
        {
          "internalType": "address",
          "name": "owner",
          "type": "address"
        },
        {
          "internalType": "address",
          "name": "operator",
          "type": "address"
        }
      ],
      "name": "isApprovedForAll",
      "outputs": [
        {
          "internalType": "bool",
          "name": "",
          "type": "bool"
        }
      ],
      "stateMutability": "view",
      "type": "function",
      "constant": true
    },
    {
      "inputs": [],
      "name": "maxTimeLock",
      "outputs": [
        {
          "internalType": "uint256",
          "name": "",
          "type": "uint256"
        }
      ],
      "stateMutability": "view",
      "type": "function",
      "constant": true
    },
    {
      "inputs": [],
      "name": "minTimeLock",
      "outputs": [
        {
          "internalType": "uint256",
          "name": "",
          "type": "uint256"
        }
      ],
      "stateMutability": "view",
      "type": "function",
      "constant": true
    },
    {
      "inputs": [],
      "name": "name",
      "outputs": [
        {
          "internalType": "string",
          "name": "",
          "type": "string"
        }
      ],
      "stateMutability": "view",
      "type": "function",
      "constant": true
    },
    {
      "inputs": [],
      "name": "owner",
      "outputs": [
        {
          "internalType": "address",
          "name": "",
          "type": "address"
        }
      ],
      "stateMutability": "view",
      "type": "function",
      "constant": true
    },
    {
      "inputs": [
        {
          "internalType": "uint256",
          "name": "tokenId",
          "type": "uint256"
        }
      ],
      "name": "ownerOf",
      "outputs": [
        {
          "internalType": "address",
          "name": "",
          "type": "address"
        }
      ],
      "stateMutability": "view",
      "type": "function",
      "constant": true
    },
    {
      "inputs": [
        {
          "internalType": "contract IERC20",
          "name": "",
          "type": "address"
        }
      ],
      "name": "poolInfo",
      "outputs": [
        {
          "internalType": "uint256",
          "name": "allocation",
          "type": "uint256"
        },
        {
          "internalType": "uint256",
          "name": "lastRewardTimestamp",
          "type": "uint256"
        },
        {
          "internalType": "uint256",
          "name": "accHsfPerShare",
          "type": "uint256"
        },
        {
          "internalType": "uint256",
          "name": "totalShares",
          "type": "uint256"
        }
      ],
      "stateMutability": "view",
      "type": "function",
      "constant": true
    },
    {
      "inputs": [],
      "name": "renounceOwnership",
      "outputs": [],
      "stateMutability": "nonpayable",
      "type": "function"
    },
    {
      "inputs": [
        {
          "internalType": "address",
          "name": "from",
          "type": "address"
        },
        {
          "internalType": "address",
          "name": "to",
          "type": "address"
        },
        {
          "internalType": "uint256",
          "name": "tokenId",
          "type": "uint256"
        }
      ],
      "name": "safeTransferFrom",
      "outputs": [],
      "stateMutability": "nonpayable",
      "type": "function"
    },
    {
      "inputs": [
        {
          "internalType": "address",
          "name": "from",
          "type": "address"
        },
        {
          "internalType": "address",
          "name": "to",
          "type": "address"
        },
        {
          "internalType": "uint256",
          "name": "tokenId",
          "type": "uint256"
        },
        {
          "internalType": "bytes",
          "name": "_data",
          "type": "bytes"
        }
      ],
      "name": "safeTransferFrom",
      "outputs": [],
      "stateMutability": "nonpayable",
      "type": "function"
    },
    {
      "inputs": [
        {
          "internalType": "address",
          "name": "operator",
          "type": "address"
        },
        {
          "internalType": "bool",
          "name": "approved",
          "type": "bool"
        }
      ],
      "name": "setApprovalForAll",
      "outputs": [],
      "stateMutability": "nonpayable",
      "type": "function"
    },
    {
      "inputs": [],
      "name": "startDistribution",
      "outputs": [
        {
          "internalType": "uint256",
          "name": "",
          "type": "uint256"
        }
      ],
      "stateMutability": "view",
      "type": "function",
      "constant": true
    },
    {
      "inputs": [],
      "name": "startTime",
      "outputs": [
        {
          "internalType": "uint256",
          "name": "",
          "type": "uint256"
        }
      ],
      "stateMutability": "view",
      "type": "function",
      "constant": true
    },
    {
      "inputs": [
        {
          "internalType": "bytes4",
          "name": "interfaceId",
          "type": "bytes4"
        }
      ],
      "name": "supportsInterface",
      "outputs": [
        {
          "internalType": "bool",
          "name": "",
          "type": "bool"
        }
      ],
      "stateMutability": "view",
      "type": "function",
      "constant": true
    },
    {
      "inputs": [],
      "name": "symbol",
      "outputs": [
        {
          "internalType": "string",
          "name": "",
          "type": "string"
        }
      ],
      "stateMutability": "view",
      "type": "function",
      "constant": true
    },
    {
      "inputs": [],
      "name": "timeLockConstant",
      "outputs": [
        {
          "internalType": "uint256",
          "name": "",
          "type": "uint256"
        }
      ],
      "stateMutability": "view",
      "type": "function",
      "constant": true
    },
    {
      "inputs": [],
      "name": "timeLockMultiplier",
      "outputs": [
        {
          "internalType": "uint256",
          "name": "",
          "type": "uint256"
        }
      ],
      "stateMutability": "view",
      "type": "function",
      "constant": true
    },
    {
      "inputs": [
        {
          "internalType": "uint256",
          "name": "index",
          "type": "uint256"
        }
      ],
      "name": "tokenByIndex",
      "outputs": [
        {
          "internalType": "uint256",
          "name": "",
          "type": "uint256"
        }
      ],
      "stateMutability": "view",
      "type": "function",
      "constant": true
    },
    {
      "inputs": [
        {
          "internalType": "address",
          "name": "owner",
          "type": "address"
        },
        {
          "internalType": "uint256",
          "name": "index",
          "type": "uint256"
        }
      ],
      "name": "tokenOfOwnerByIndex",
      "outputs": [
        {
          "internalType": "uint256",
          "name": "",
          "type": "uint256"
        }
      ],
      "stateMutability": "view",
      "type": "function",
      "constant": true
    },
    {
      "inputs": [
        {
          "internalType": "uint256",
          "name": "tokenId",
          "type": "uint256"
        }
      ],
      "name": "tokenURI",
      "outputs": [
        {
          "internalType": "string",
          "name": "",
          "type": "string"
        }
      ],
      "stateMutability": "view",
      "type": "function",
      "constant": true
    },
    {
      "inputs": [],
      "name": "totalAllocationPoints",
      "outputs": [
        {
          "internalType": "uint256",
          "name": "",
          "type": "uint256"
        }
      ],
      "stateMutability": "view",
      "type": "function",
      "constant": true
    },
    {
      "inputs": [],
      "name": "totalDeposits",
      "outputs": [
        {
          "internalType": "uint256",
          "name": "",
          "type": "uint256"
        }
      ],
      "stateMutability": "view",
      "type": "function",
      "constant": true
    },
    {
      "inputs": [],
      "name": "totalSupply",
      "outputs": [
        {
          "internalType": "uint256",
          "name": "",
          "type": "uint256"
        }
      ],
      "stateMutability": "view",
      "type": "function",
      "constant": true
    },
    {
      "inputs": [
        {
          "internalType": "address",
          "name": "from",
          "type": "address"
        },
        {
          "internalType": "address",
          "name": "to",
          "type": "address"
        },
        {
          "internalType": "uint256",
          "name": "tokenId",
          "type": "uint256"
        }
      ],
      "name": "transferFrom",
      "outputs": [],
      "stateMutability": "nonpayable",
      "type": "function"
    },
    {
      "inputs": [
        {
          "internalType": "address",
          "name": "newOwner",
          "type": "address"
        }
      ],
      "name": "transferOwnership",
      "outputs": [],
      "stateMutability": "nonpayable",
      "type": "function"
    },
    {
      "inputs": [],
      "name": "poolLength",
      "outputs": [
        {
          "internalType": "uint256",
          "name": "",
          "type": "uint256"
        }
      ],
      "stateMutability": "view",
      "type": "function",
      "constant": true
    },
    {
      "inputs": [
        {
          "internalType": "uint256",
          "name": "_index",
          "type": "uint256"
        }
      ],
      "name": "getPoolByIndex",
      "outputs": [
        {
          "components": [
            {
              "internalType": "contract IERC20",
              "name": "poolToken",
              "type": "address"
            },
            {
              "internalType": "uint256",
              "name": "hsfInDay",
              "type": "uint256"
            },
            {
              "internalType": "uint256",
              "name": "poolTokenBalance",
              "type": "uint256"
            }
          ],
          "internalType": "struct CheemscoinFarm.PoolDetails",
          "name": "",
          "type": "tuple"
        }
      ],
      "stateMutability": "view",
      "type": "function",
      "constant": true
    },
    {
      "inputs": [],
      "name": "getAllPools",
      "outputs": [
        {
          "components": [
            {
              "internalType": "contract IERC20",
              "name": "poolToken",
              "type": "address"
            },
            {
              "internalType": "uint256",
              "name": "hsfInDay",
              "type": "uint256"
            },
            {
              "internalType": "uint256",
              "name": "poolTokenBalance",
              "type": "uint256"
            }
          ],
          "internalType": "struct CheemscoinFarm.PoolDetails[]",
          "name": "",
          "type": "tuple[]"
        }
      ],
      "stateMutability": "view",
      "type": "function",
      "constant": true
    },
    {
      "inputs": [
        {
          "internalType": "address",
          "name": "_account",
          "type": "address"
        }
      ],
      "name": "getAccountDeposits",
      "outputs": [
        {
          "components": [
            {
              "internalType": "contract IERC20",
              "name": "poolToken",
              "type": "address"
            },
            {
              "internalType": "uint256",
              "name": "balance",
              "type": "uint256"
            },
            {
              "internalType": "uint256",
              "name": "unlockTime",
              "type": "uint256"
            },
            {
              "internalType": "uint256",
              "name": "pendingReward",
              "type": "uint256"
            },
            {
              "internalType": "uint256",
              "name": "id",
              "type": "uint256"
            }
          ],
          "internalType": "struct CheemscoinFarm.DepositDetails[]",
          "name": "",
          "type": "tuple[]"
        }
      ],
      "stateMutability": "view",
      "type": "function",
      "constant": true
    },
    {
      "inputs": [],
      "name": "getExpiredDepositIds",
      "outputs": [
        {
          "components": [
            {
              "internalType": "uint256",
              "name": "id",
              "type": "uint256"
            },
            {
              "internalType": "contract IERC20",
              "name": "poolToken",
              "type": "address"
            },
            {
              "internalType": "uint256",
              "name": "reward",
              "type": "uint256"
            }
          ],
          "internalType": "struct CheemscoinFarm.ExpiredDeposit[]",
          "name": "",
          "type": "tuple[]"
        }
      ],
      "stateMutability": "view",
      "type": "function",
      "constant": true
    },
    {
      "inputs": [
        {
          "internalType": "string",
          "name": "baseURI_",
          "type": "string"
        }
      ],
      "name": "setBaseURI",
      "outputs": [],
      "stateMutability": "nonpayable",
      "type": "function"
    },
    {
      "inputs": [
        {
          "internalType": "address",
          "name": "_tokenRecipient",
          "type": "address"
        }
      ],
      "name": "disableContract",
      "outputs": [],
      "stateMutability": "nonpayable",
      "type": "function"
    },
    {
      "inputs": [
        {
          "internalType": "uint256",
          "name": "_depositAmount",
          "type": "uint256"
        }
      ],
      "name": "depositAdditionalRewards",
      "outputs": [],
      "stateMutability": "nonpayable",
      "type": "function"
    },
    {
      "inputs": [
        {
          "internalType": "contract IERC20",
          "name": "_lpToken",
          "type": "address"
        },
        {
          "internalType": "uint256",
          "name": "_allocation",
          "type": "uint256"
        }
      ],
      "name": "add",
      "outputs": [],
      "stateMutability": "nonpayable",
      "type": "function"
    },
    {
      "inputs": [
        {
          "internalType": "contract IERC20",
          "name": "_poolToken",
          "type": "address"
        },
        {
          "internalType": "uint256",
          "name": "_allocation",
          "type": "uint256"
        }
      ],
      "name": "set",
      "outputs": [],
      "stateMutability": "nonpayable",
      "type": "function"
    },
    {
      "inputs": [
        {
          "internalType": "uint256",
          "name": "_from",
          "type": "uint256"
        },
        {
          "internalType": "uint256",
          "name": "_to",
          "type": "uint256"
        }
      ],
      "name": "getDistribution",
      "outputs": [
        {
          "internalType": "uint256",
          "name": "",
          "type": "uint256"
        }
      ],
      "stateMutability": "view",
      "type": "function",
      "constant": true
    },
    {
      "inputs": [
        {
          "internalType": "uint256",
          "name": "_unlockTime",
          "type": "uint256"
        }
      ],
      "name": "getTimeMultiple",
      "outputs": [
        {
          "internalType": "uint256",
          "name": "",
          "type": "uint256"
        }
      ],
      "stateMutability": "view",
      "type": "function",
      "constant": true
    },
    {
      "inputs": [
        {
          "internalType": "uint256",
          "name": "_depositId",
          "type": "uint256"
        }
      ],
      "name": "pendingHsf",
      "outputs": [
        {
          "internalType": "uint256",
          "name": "",
          "type": "uint256"
        }
      ],
      "stateMutability": "view",
      "type": "function",
      "constant": true
    },
    {
      "inputs": [
        {
          "internalType": "contract IERC20",
          "name": "_poolToken",
          "type": "address"
        },
        {
          "internalType": "uint256",
          "name": "_amount",
          "type": "uint256"
        },
        {
          "internalType": "uint256",
          "name": "_unlockTime",
          "type": "uint256"
        }
      ],
      "name": "createDeposit",
      "outputs": [],
      "stateMutability": "nonpayable",
      "type": "function"
    },
    {
      "inputs": [
        {
          "internalType": "uint256",
          "name": "_depositId",
          "type": "uint256"
        }
      ],
      "name": "closeDeposit",
      "outputs": [],
      "stateMutability": "nonpayable",
      "type": "function"
    },
    {
      "inputs": [
        {
          "internalType": "uint256",
          "name": "_depositId",
          "type": "uint256"
        }
      ],
      "name": "withdrawRewards",
      "outputs": [],
      "stateMutability": "nonpayable",
      "type": "function"
    },
    {
      "inputs": [
        {
          "internalType": "uint256[]",
          "name": "_depositIds",
          "type": "uint256[]"
        }
      ],
      "name": "multiWithdraw",
      "outputs": [],
      "stateMutability": "nonpayable",
      "type": "function"
    },
    {
      "inputs": [
        {
          "internalType": "contract IERC20",
          "name": "_token",
          "type": "address"
        }
      ],
      "name": "recoverToken",
      "outputs": [],
      "stateMutability": "nonpayable",
      "type": "function"
    },
    {
      "inputs": [
        {
          "internalType": "uint256",
          "name": "_depositId",
          "type": "uint256"
        }
      ],
      "name": "downgradeExpired",
      "outputs": [],
      "stateMutability": "nonpayable",
      "type": "function"
    },
    {
      "inputs": [],
      "name": "massUpdatePools",
      "outputs": [],
      "stateMutability": "nonpayable",
      "type": "function"
    },
    {
      "inputs": [
        {
          "internalType": "contract IERC20",
          "name": "_poolToken",
          "type": "address"
        }
      ],
      "name": "updatePool",
      "outputs": [],
      "stateMutability": "nonpayable",
      "type": "function"
    }
  ],
  "bytecode": "0x6101c06040523480156200001257600080fd5b50604051620055633803806200556383398101604081905262000035916200095c565b6040518060400160405280601581526020017f436865656d734661726d204465706f73697420763100000000000000000000008152506040518060400160405280600381526020016210d19160ea1b8152506000620000996200034260201b60201c565b600080546001600160a01b0319166001600160a01b0383169081178255604051929350917f8be0079c531659141344cd1fd0a4f28419497f9722a3daafe3b4186f6b6457e0908290a350620000f56301ffc9a760e01b62000346565b81516200010a906007906020850190620008b0565b50805162000120906008906020840190620008b0565b50620001336380ac58cd60e01b62000346565b62000145635b5e139f60e01b62000346565b6200015763780e9d6360e01b62000346565b5050805160208201518181116200018b5760405162461bcd60e51b8152600401620001829062000a02565b60405180910390fd5b60408301516060808501519086901b6001600160601b031916608052610120849052610140839052620001d66001600160a01b038716333085620003ce602090811b6200276a17901c565b6000620002766200021962000202670de0b6b3a7640000856200043460201b620027f21790919060201c565b8787036200049860201b6200284c1790919060201c565b62000262670de0b6b3a76400006200024e670de0b6b3a76400006200024e60028a6200049860201b6200284c1790919060201c565b6200049860201b6200284c1790919060201c565b620004f660201b620028a51790919060201c565b9050620002db620002a0670de0b6b3a76400008787036200049860201b6200284c1790919060201c565b62000262620002c685670de0b6b3a76400006200055f60201b6200290c1790919060201c565b846200049860201b6200284c1790919060201c565b60a090815260c0829052608087015190870151808210620003105760405162461bcd60e51b8152600401620001829062000a39565b60e091825261010090815260c088015161016052908701516101805295909501516101a0525062000a70945050505050565b3390565b6001600160e01b03198082161415620003a6576040805162461bcd60e51b815260206004820152601c60248201527f4552433136353a20696e76616c696420696e7465726661636520696400000000604482015290519081900360640190fd5b6001600160e01b0319166000908152600160208190526040909120805460ff19169091179055565b604080516001600160a01b0380861660248301528416604482015260648082018490528251808303909101815260849091019091526020810180516001600160e01b039081166323b872dd60e01b179091526200042e918691620005bd16565b50505050565b6000828201838110156200048f576040805162461bcd60e51b815260206004820152601b60248201527f536166654d6174683a206164646974696f6e206f766572666c6f770000000000604482015290519081900360640190fd5b90505b92915050565b600082620004a95750600062000492565b82820282848281620004b757fe5b04146200048f5760405162461bcd60e51b8152600401808060200182810382526021815260200180620055186021913960400191505060405180910390fd5b60008082116200054d576040805162461bcd60e51b815260206004820152601a60248201527f536166654d6174683a206469766973696f6e206279207a65726f000000000000604482015290519081900360640190fd5b8183816200055757fe5b049392505050565b600082821115620005b7576040805162461bcd60e51b815260206004820152601e60248201527f536166654d6174683a207375627472616374696f6e206f766572666c6f770000604482015290519081900360640190fd5b50900390565b600062000619826040518060400160405280602081526020017f5361666545524332303a206c6f772d6c6576656c2063616c6c206661696c6564815250856001600160a01b03166200067e60201b62002969179092919060201c565b80519091501562000679578080602001905160208110156200063a57600080fd5b5051620006795760405162461bcd60e51b815260040180806020018281038252602a81526020018062005539602a913960400191505060405180910390fd5b505050565b60606200068f848460008562000699565b90505b9392505050565b606082471015620006dc5760405162461bcd60e51b8152600401808060200182810382526026815260200180620054f26026913960400191505060405180910390fd5b620006e78562000800565b62000739576040805162461bcd60e51b815260206004820152601d60248201527f416464726573733a2063616c6c20746f206e6f6e2d636f6e7472616374000000604482015290519081900360640190fd5b600080866001600160a01b031685876040518082805190602001908083835b60208310620007795780518252601f19909201916020918201910162000758565b6001836020036101000a03801982511681845116808217855250505050505090500191505060006040518083038185875af1925050503d8060008114620007dd576040519150601f19603f3d011682016040523d82523d6000602084013e620007e2565b606091505b509092509050620007f582828662000806565b979650505050505050565b3b151590565b606083156200081757508162000692565b825115620008285782518084602001fd5b8160405162461bcd60e51b81526004018080602001828103825283818151815260200191508051906020019080838360005b83811015620008745781810151838201526020016200085a565b50505050905090810190601f168015620008a25780820380516001836020036101000a031916815260200191505b509250505060405180910390fd5b828054600181600116156101000203166002900490600052602060002090601f016020900481019282620008e8576000855562000933565b82601f106200090357805160ff191683800117855562000933565b8280016001018555821562000933579182015b828111156200093357825182559160200191906001019062000916565b506200094192915062000945565b5090565b5b8082111562000941576000815560010162000946565b60008061014080848603121562000971578283fd5b83516001600160a01b038116811462000988578384fd5b92506020603f850186136200099b578283fd5b60405161012081016001600160401b0381118282101715620009b957fe5b60405280868301848801891015620009cf578586fd5b8594505b6009851015620009f4578051825260019490940193908301908301620009d3565b509497909650945050505050565b6020808252601c908201527f48463a20656e6454696d65206265666f726520737461727454696d6500000000604082015260600190565b60208082526017908201527f48463a20696e76616c6964206c6f636b206c696d697473000000000000000000604082015260600190565b60805160601c60a05160c05160e05161010051610120516101405161016051610180516101a0516149b362000b3f60003980610a09528061113e5280612e1d525080610e115280611c015250806115915280611c26525080610c5952806112be5280611e7452508061127d52806112fe528061132a528061182c52806126a1525080610b3552806123f9525080610af6528061230e52508061139152806123325250806113675280612069525080610e50528061171e5280611d015280612fcd528061306c52506149b36000f3fe608060405234801561001057600080fd5b50600436106103835760003560e01c806370a08231116101de578063a154ce821161010f578063d88ff1f4116100ad578063e985e9c51161007c578063e985e9c51461070f578063eced552614610722578063f2fde38b1461072a578063f5d82b6b1461073d57610383565b8063d88ff1f4146106d7578063e1cf73b9146106ec578063e6fecdde146106f4578063e7f3fbde1461070757610383565b8063baf941d0116100e9578063baf941d0146106ac578063c87b56dd146106b4578063d00a818f146106c7578063d83623dd146106cf57610383565b8063a154ce8214610673578063a22cb46514610686578063b88d4fde1461069957610383565b806383b24c521161017c57806395d89b411161015657806395d89b4114610622578063987835721461062a5780639a7b5f111461063d5780639be65a601461066057610383565b806383b24c52146105f45780638da5cb5b146106075780639342c8f41461060f57610383565b806378e97925116101b857806378e97925146105c95780637a46bd36146105d15780637b46c54f146105d95780637d882097146105ec57610383565b806370a082311461059b578063715018a6146105ae5780637787c338146105b657610383565b806338a91d02116102b8578063630b5ba1116102565780636721d4ef116102305780636721d4ef146105585780636c0360eb1461056b5780636ce0c4b5146105735780637091ce721461059357610383565b8063630b5ba11461052a5780636352211e1461053257806364df19001461054557610383565b80634f6ccce7116102925780634f6ccce7146104cf5780635081d952146104e257806355f804b314610502578063603f62e61461051557610383565b806338a91d02146104ac57806342842e0e146104b457806344288f81146104c757610383565b806323b872dd116103255780632f9c1df6116102ff5780632f9c1df614610459578063317d7a2b1461046c5780633197cbb6146104915780633825d8281461049957610383565b806323b872dd1461042b578063258fa5c81461043e5780632f745c591461044657610383565b8063081e3eda11610361578063081e3eda146103e6578063095ea7b3146103fb57806318160ddd146104105780631be2055e1461041857610383565b806301ffc9a71461038857806306fdde03146103b1578063081812fc146103c6575b600080fd5b61039b61039636600461408c565b610750565b6040516103a891906142e7565b60405180910390f35b6103b961078b565b6040516103a891906142f2565b6103d96103d4366004614146565b610821565b6040516103a891906141b9565b6103ee610883565b6040516103a89190614655565b61040e610409366004613ff2565b610894565b005b6103ee61096a565b6103ee610426366004614146565b610976565b61040e610439366004613f04565b6109b0565b6103ee610a07565b6103ee610454366004613ff2565b610a2b565b61040e6104673660046140cc565b610a56565b61047f61047a366004614146565b610c19565b6040516103a896959493929190614679565b6103ee610c57565b61040e6104a7366004613ff2565b610c7b565b6103ee610e0f565b61040e6104c2366004613f04565b610e33565b6103d9610e4e565b6103ee6104dd366004614146565b610e72565b6104f56104f0366004613eb0565b610e88565b6040516103a891906141cd565b61040e610510366004614100565b610fca565b61051d61104a565b6040516103a89190614244565b61040e6111c2565b6103d9610540366004614146565b6111f1565b61040e610553366004614146565b611219565b6103ee610566366004614176565b611275565b6103b96113de565b610586610581366004614146565b61143f565b6040516103a89190614647565b6103ee61158f565b6103ee6105a9366004613eb0565b6115b3565b61040e61161b565b61040e6105c4366004614146565b6116f1565b6103ee61182a565b6103ee61184e565b61040e6105e7366004613eb0565b611854565b6103ee6118fb565b61040e610602366004614146565b611901565b6103d9611a4b565b61040e61061d366004614146565b611a5a565b6103b9611b77565b6103ee610638366004614146565b611bd8565b61065061064b366004613eb0565b611c51565b6040516103a8949392919061465e565b61040e61066e366004613eb0565b611c78565b61040e610681366004613eb0565b611dd0565b61040e610694366004613fc1565b611ee6565b61040e6106a7366004613f44565b612009565b6103ee612067565b6103b96106c2366004614146565b61208b565b6103ee61230c565b6103ee612330565b6106df612354565b6040516103a89190614299565b6103ee6123f7565b61040e61070236600461401d565b61241b565b6103ee61244a565b61039b61071d366004613ecc565b612450565b6103ee61247e565b61040e610738366004613eb0565b61248a565b61040e61074b366004613ff2565b6125b6565b7fffffffff00000000000000000000000000000000000000000000000000000000811660009081526001602052604090205460ff165b919050565b60078054604080516020601f60026000196101006001881615020190951694909404938401819004810282018101909252828152606093909290918301828280156108175780601f106107ec57610100808354040283529160200191610817565b820191906000526020600020905b8154815290600101906020018083116107fa57829003601f168201915b5050505050905090565b600061082c82612978565b6108675760405162461bcd60e51b815260040180806020018281038252602c81526020018061487e602c913960400191505060405180910390fd5b506000908152600560205260409020546001600160a01b031690565b600061088f600c612985565b905090565b600061089f826111f1565b9050806001600160a01b0316836001600160a01b031614156108f25760405162461bcd60e51b81526004018080602001828103825260218152602001806149026021913960400191505060405180910390fd5b806001600160a01b0316610904612990565b6001600160a01b0316148061092057506109208161071d612990565b61095b5760405162461bcd60e51b81526004018080602001828103825260388152602001806147b06038913960400191505060405180910390fd5b6109658383612994565b505050565b600061088f6003612985565b600081815260106020908152604080832060058101546001600160a01b03168452600b90925282206109a88282612a1a565b949350505050565b6109c16109bb612990565b82612ac8565b6109fc5760405162461bcd60e51b81526004018080602001828103825260318152602001806149236031913960400191505060405180910390fd5b610965838383612b64565b7f000000000000000000000000000000000000000000000000000000000000000081565b6001600160a01b0382166000908152600260205260408120610a4d9083612cb0565b90505b92915050565b60115415610a7f5760405162461bcd60e51b8152600401610a7690614345565b60405180910390fd5b60008211610a9f5760405162461bcd60e51b8152600401610a76906143ea565b428111610abe5760405162461bcd60e51b8152600401610a76906143b3565b610ac9600c84612cbc565b610ae55760405162461bcd60e51b8152600401610a769061437c565b6000610af1824261290c565b9050807f00000000000000000000000000000000000000000000000000000000000000001115610b335760405162461bcd60e51b8152600401610a7690614458565b7f0000000000000000000000000000000000000000000000000000000000000000811115610b735760405162461bcd60e51b8152600401610a76906145a2565b6001600160a01b0384166000908152600b60205260409020610b9485611854565b610ba96001600160a01b03861633308761276a565b600f80546001810190915560008181526010602052604090208581556005810180547fffffffffffffffffffffffff0000000000000000000000000000000000000000166001600160a01b038916179055610c0681848888612cd1565b610c103383612d4e565b50505050505050565b60106020526000908152604090208054600182015460028301546003840154600485015460059095015493949293919290916001600160a01b031686565b7f000000000000000000000000000000000000000000000000000000000000000081565b610c83612990565b6001600160a01b0316610c94611a4b565b6001600160a01b031614610cef576040805162461bcd60e51b815260206004820181905260248201527f4f776e61626c653a2063616c6c6572206973206e6f7420746865206f776e6572604482015290519081900360640190fd5b60115415610d0f5760405162461bcd60e51b8152600401610a7690614345565b610d1a600c83612cbc565b610d365760405162461bcd60e51b8152600401610a769061437c565b610d3e6111c2565b6001600160a01b0382166000908152600b6020526040902054600e54610d6f918391610d699161290c565b906127f2565b600e556001600160a01b0382166000818152600b602052604090819020839055517f2f4ae87a584f00dc35b043dd1c5ac839c1f41cd3a66e834d4e13faa6251634e690610dbd908490614655565b60405180910390a280610e0b57610dd5600c83612d68565b506040516001600160a01b038316907f4106dfdaa577573db51c0ca93f766dbedfa0758faa2e7f5bcdb7c142be803c3f90600090a25b5050565b7f000000000000000000000000000000000000000000000000000000000000000081565b61096583838360405180602001604052806000815250612009565b7f000000000000000000000000000000000000000000000000000000000000000081565b600080610e80600384612d7d565b509392505050565b60606000610e95836115b3565b67ffffffffffffffff81118015610eab57600080fd5b50604051908082528060200260200182016040528015610ee557816020015b610ed2613cdf565b815260200190600190039081610eca5790505b50905060005b610ef4846115b3565b811015610fc3576000610f078583610a2b565b600081815260106020908152604091829020825160c0810184528154815260018201548184015260028201548185019081526003830154606080840191909152600484015460808401526005909301546001600160a01b0390811660a08085019182528751908101885290519091168152825194810194909452519383019390935292935090918101610f9984610976565b815260200183815250848481518110610fae57fe5b60209081029190910101525050600101610eeb565b5092915050565b610fd2612990565b6001600160a01b0316610fe3611a4b565b6001600160a01b03161461103e576040805162461bcd60e51b815260206004820181905260248201527f4f776e61626c653a2063616c6c6572206973206e6f7420746865206f776e6572604482015290519081900360640190fd5b61104781612d99565b50565b60606000600f5467ffffffffffffffff8111801561106757600080fd5b506040519080825280602002602001820160405280156110a157816020015b61108e613d17565b8152602001906001900390816110865790505b5090506000805b600f548110156111ba57600081815260106020908152604091829020825160c0810184528154815260018201549281019290925260028101549282018390526003810154606083015260048101546080830152600501546001600160a01b031660a08201529042108015906111205750604081015115155b156111b157805160009061116890670de0b6b3a764000090611162907f000000000000000000000000000000000000000000000000000000000000000061284c565b906128a5565b905060405180606001604052808481526020018360a001516001600160a01b031681526020018281525085858151811061119e57fe5b6020908102919091010152506001909201915b506001016110a8565b509091505090565b60006111ce600c612985565b905060005b81811015610e0b576111e96105e7600c83612cb0565b6001016111d3565b6000610a50826040518060600160405280602981526020016148126029913960039190612dac565b600081815260106020526040902060028101546112485760405162461bcd60e51b8152600401610a7690614534565b428160020154111561126c5760405162461bcd60e51b8152600401610a76906144c6565b610e0b82612db9565b6000806112a27f000000000000000000000000000000000000000000000000000000000000000085612ea7565b905060006112e3846011546000146112bc576011546112de565b7f00000000000000000000000000000000000000000000000000000000000000005b612ebe565b9050808211156112f857600092505050610a50565b611322827f000000000000000000000000000000000000000000000000000000000000000061290c565b915061134e817f000000000000000000000000000000000000000000000000000000000000000061290c565b905060026113cd6113bd61138c61136586866127f2565b7f00000000000000000000000000000000000000000000000000000000000000009061284c565b6113b77f0000000000000000000000000000000000000000000000000000000000000000600261284c565b9061290c565b6113c7848661290c565b9061284c565b816113d457fe5b0495945050505050565b600a8054604080516020601f60026000196101006001881615020190951694909404938401819004810282018101909252828152606093909290918301828280156108175780601f106107ec57610100808354040283529160200191610817565b611447613d41565b6000611454600c84612cb0565b6001600160a01b0381166000908152600b602090815260408083208151608081018352815481526001820154938101939093526002810154918301919091526003015460608201529192506114bc670de0b6b3a76400006111624261056681620151806127f2565b905060006114dd600e5461116285600001518561284c90919063ffffffff16565b90506000846001600160a01b03166370a08231306040518263ffffffff1660e01b815260040161150d91906141b9565b60206040518083038186803b15801561152557600080fd5b505afa158015611539573d6000803e3d6000fd5b505050506040513d601f19601f8201168201806040525081019061155d919061415e565b90506040518060600160405280866001600160a01b031681526020018381526020018281525095505050505050919050565b7f000000000000000000000000000000000000000000000000000000000000000081565b60006001600160a01b0382166115fa5760405162461bcd60e51b815260040180806020018281038252602a8152602001806147e8602a913960400191505060405180910390fd5b6001600160a01b0382166000908152600260205260409020610a5090612985565b611623612990565b6001600160a01b0316611634611a4b565b6001600160a01b03161461168f576040805162461bcd60e51b815260206004820181905260248201527f4f776e61626c653a2063616c6c6572206973206e6f7420746865206f776e6572604482015290519081900360640190fd5b600080546040516001600160a01b03909116907f8be0079c531659141344cd1fd0a4f28419497f9722a3daafe3b4186f6b6457e0908390a3600080547fffffffffffffffffffffffff0000000000000000000000000000000000000000169055565b600e54806117115760405162461bcd60e51b8152600401610a769061456b565b6117466001600160a01b037f00000000000000000000000000000000000000000000000000000000000000001633308561276a565b6000611752600c612985565b905060005b818110156117ed57600061176c600c83612cb0565b6001600160a01b0381166000908152600b6020526040902060038101549192509080156117e2578154600090829088906117b2906113c78c670de0b6b3a764000061284c565b816117b957fe5b04816117c157fe5b0490506117db8184600201546127f290919063ffffffff16565b6002840155505b505050600101611757565b507ff8fad42e780bfa5459be3fe691e8ba1aec70342250112139c5771c3fd155f3128360405161181d9190614655565b60405180910390a1505050565b7f000000000000000000000000000000000000000000000000000000000000000081565b60115481565b6001600160a01b0381166000908152600b602052604090206001810154421161187d5750611047565b600381015480611894575042600190910155611047565b60006118a4836001015442611275565b905060006118c5600e5461116286600001548561284c90919063ffffffff16565b905060006118d382856128a5565b60028601549091506118e590826127f2565b6002860155505042600190930192909255505050565b600f5481565b3361190b826111f1565b6001600160a01b0316146119315760405162461bcd60e51b8152600401610a7690614610565b600081815260106020526040902060028101544210158061195457506000601154115b6119705760405162461bcd60e51b8152600401610a7690614421565b60058101546001600160a01b03166000818152600b6020526040902061199582611854565b60006119a18483612a1a565b90506119be8460030154836003015461290c90919063ffffffff16565b60038301556119cc85612ecd565b6119d63382612f9a565b83546119ee906001600160a01b03851690339061308f565b505050600091825250601060205260408120818155600181018290556002810182905560038101829055600481019190915560050180547fffffffffffffffffffffffff0000000000000000000000000000000000000000169055565b6000546001600160a01b031690565b33611a64826111f1565b6001600160a01b031614611a8a5760405162461bcd60e51b8152600401610a76906145d9565b600081815260106020908152604080832060058101546001600160a01b03168452600b90925290912060028201548015801590611ac75750428111155b15611ada57611ad584612db9565b611af1565b6005830154611af1906001600160a01b0316611854565b6000611afd8484612a1a565b6000600486015560028401546003860154919250611b2991670de0b6b3a764000091611162919061284c565b6001850155611b383382612f9a565b847f7ed7f5937b354908f48cf038f68b4342cf1241b17d57850d6f715acc258ba2af82604051611b689190614655565b60405180910390a25050505050565b60088054604080516020601f60026000196101006001881615020190951694909404938401819004810282018101909252828152606093909290918301828280156108175780601f106107ec57610100808354040283529160200191610817565b600081611bee5750670de0b6b3a7640000610786565b6000611bfa834261290c565b9050611c4a7f0000000000000000000000000000000000000000000000000000000000000000610d69837f000000000000000000000000000000000000000000000000000000000000000061284c565b9392505050565b600b6020526000908152604090208054600182015460028301546003909301549192909184565b611c80612990565b6001600160a01b0316611c91611a4b565b6001600160a01b031614611cec576040805162461bcd60e51b815260206004820181905260248201527f4f776e61626c653a2063616c6c6572206973206e6f7420746865206f776e6572604482015290519081900360640190fd5b611cf7600c82612cbc565b158015611d3657507f00000000000000000000000000000000000000000000000000000000000000006001600160a01b0316816001600160a01b031614155b611d3f57600080fd5b61104733826001600160a01b03166370a08231306040518263ffffffff1660e01b8152600401611d6f91906141b9565b60206040518083038186803b158015611d8757600080fd5b505afa158015611d9b573d6000803e3d6000fd5b505050506040513d601f19601f82011682018060405250810190611dbf919061415e565b6001600160a01b038416919061308f565b611dd8612990565b6001600160a01b0316611de9611a4b565b6001600160a01b031614611e44576040805162461bcd60e51b815260206004820181905260248201527f4f776e61626c653a2063616c6c6572206973206e6f7420746865206f776e6572604482015290519081900360640190fd5b60115415611e645760405162461bcd60e51b8152600401610a7690614345565b611e6c6111c2565b6000611e98427f0000000000000000000000000000000000000000000000000000000000000000611275565b9050611eb582611eb083670de0b6b3a76400006128a5565b612f9a565b426011556040517f75884cdadc4a89e8b545db800057f06ec7f5338a08183c7ba515f2bfdd9fe1e190600090a15050565b611eee612990565b6001600160a01b0316826001600160a01b03161415611f54576040805162461bcd60e51b815260206004820152601960248201527f4552433732313a20617070726f766520746f2063616c6c657200000000000000604482015290519081900360640190fd5b8060066000611f61612990565b6001600160a01b0390811682526020808301939093526040918201600090812091871680825291909352912080547fffffffffffffffffffffffffffffffffffffffffffffffffffffffffffffff001692151592909217909155611fc3612990565b6001600160a01b03167f17307eab39ab6107e8899845ad3d59bd9653f200f220920489ca2b5937696c318360405180821515815260200191505060405180910390a35050565b61201a612014612990565b83612ac8565b6120555760405162461bcd60e51b81526004018080602001828103825260318152602001806149236031913960400191505060405180910390fd5b6120618484848461310f565b50505050565b7f000000000000000000000000000000000000000000000000000000000000000081565b606061209682612978565b6120d15760405162461bcd60e51b815260040180806020018281038252602f8152602001806148d3602f913960400191505060405180910390fd5b60008281526009602090815260408083208054825160026001831615610100026000190190921691909104601f8101859004850282018501909352828152929091908301828280156121645780601f1061213957610100808354040283529160200191612164565b820191906000526020600020905b81548152906001019060200180831161214757829003601f168201915b5050505050905060006121756113de565b905080516000141561218957509050610786565b81511561224a5780826040516020018083805190602001908083835b602083106121c45780518252601f1990920191602091820191016121a5565b51815160209384036101000a600019018019909216911617905285519190930192850191508083835b6020831061220c5780518252601f1990920191602091820191016121ed565b6001836020036101000a0380198251168184511680821785525050505050509050019250505060405160208183030381529060405292505050610786565b8061225485613161565b6040516020018083805190602001908083835b602083106122865780518252601f199092019160209182019101612267565b51815160209384036101000a600019018019909216911617905285519190930192850191508083835b602083106122ce5780518252601f1990920191602091820191016122af565b6001836020036101000a0380198251168184511680821785525050505050509050019250505060405160208183030381529060405292505050919050565b7f000000000000000000000000000000000000000000000000000000000000000081565b7f000000000000000000000000000000000000000000000000000000000000000081565b60606000612362600c612985565b67ffffffffffffffff8111801561237857600080fd5b506040519080825280602002602001820160405280156123b257816020015b61239f613d41565b8152602001906001900390816123975790505b50905060005b6123c2600c612985565b8110156123f1576123d28161143f565b8282815181106123de57fe5b60209081029190910101526001016123b8565b50905090565b7f000000000000000000000000000000000000000000000000000000000000000081565b8060005b818110156120615761244284848381811061243657fe5b90506020020135611a5a565b60010161241f565b600e5481565b6001600160a01b03918216600090815260066020908152604080832093909416825291909152205460ff1690565b670de0b6b3a764000081565b612492612990565b6001600160a01b03166124a3611a4b565b6001600160a01b0316146124fe576040805162461bcd60e51b815260206004820181905260248201527f4f776e61626c653a2063616c6c6572206973206e6f7420746865206f776e6572604482015290519081900360640190fd5b6001600160a01b0381166125435760405162461bcd60e51b81526004018080602001828103825260268152602001806147146026913960400191505060405180910390fd5b600080546040516001600160a01b03808516939216917f8be0079c531659141344cd1fd0a4f28419497f9722a3daafe3b4186f6b6457e091a3600080547fffffffffffffffffffffffff0000000000000000000000000000000000000000166001600160a01b0392909216919091179055565b6125be612990565b6001600160a01b03166125cf611a4b565b6001600160a01b03161461262a576040805162461bcd60e51b815260206004820181905260248201527f4f776e61626c653a2063616c6c6572206973206e6f7420746865206f776e6572604482015290519081900360640190fd5b6011541561264a5760405162461bcd60e51b8152600401610a7690614345565b6000811161266a5760405162461bcd60e51b8152600401610a769061448f565b6126726111c2565b61267d600c83613270565b6126995760405162461bcd60e51b8152600401610a76906144fd565b60006126c5427f0000000000000000000000000000000000000000000000000000000000000000612ea7565b600e549091506126d590836127f2565b600e556040805160808101825283815260208082018481526000838501818152606085018281526001600160a01b038a16808452600b909552918690209451855591516001850155905160028401555160039092019190915590517f0c98febfffcec480c66a977e13f14bafdb5199ea9603591a0715b0cabe0c3ae29061275d908590614655565b60405180910390a2505050565b604080516001600160a01b0380861660248301528416604482015260648082018490528251808303909101815260849091019091526020810180517bffffffffffffffffffffffffffffffffffffffffffffffffffffffff167f23b872dd00000000000000000000000000000000000000000000000000000000179052612061908590613285565b600082820183811015610a4d576040805162461bcd60e51b815260206004820152601b60248201527f536166654d6174683a206164646974696f6e206f766572666c6f770000000000604482015290519081900360640190fd5b60008261285b57506000610a50565b8282028284828161286857fe5b0414610a4d5760405162461bcd60e51b815260040180806020018281038252602181526020018061485d6021913960400191505060405180910390fd5b60008082116128fb576040805162461bcd60e51b815260206004820152601a60248201527f536166654d6174683a206469766973696f6e206279207a65726f000000000000604482015290519081900360640190fd5b81838161290457fe5b049392505050565b600082821115612963576040805162461bcd60e51b815260206004820152601e60248201527f536166654d6174683a207375627472616374696f6e206f766572666c6f770000604482015290519081900360640190fd5b50900390565b60606109a88484600085613336565b6000610a50600383613491565b6000610a508261349d565b3390565b600081815260056020526040902080547fffffffffffffffffffffffff0000000000000000000000000000000000000000166001600160a01b03841690811790915581906129e1826111f1565b6001600160a01b03167f8c5be1e5ebec7d5bd14f71427d1e84f3dd0314c0f7b2291e5b200ac8c7c3b92560405160405180910390a45050565b600281015460038201546001830154600092919042118015612a3b57508015155b15612a8c576000612a50856001015442611275565b90506000612a71600e5461116288600001548561284c90919063ffffffff16565b9050612a87612a8082856128a5565b85906127f2565b935050505b612abf8560040154610d6987600101546113b7670de0b6b3a7640000611162888c6003015461284c90919063ffffffff16565b95945050505050565b6000612ad382612978565b612b0e5760405162461bcd60e51b815260040180806020018281038252602c815260200180614784602c913960400191505060405180910390fd5b6000612b19836111f1565b9050806001600160a01b0316846001600160a01b03161480612b545750836001600160a01b0316612b4984610821565b6001600160a01b0316145b806109a857506109a88185612450565b826001600160a01b0316612b77826111f1565b6001600160a01b031614612bbc5760405162461bcd60e51b81526004018080602001828103825260298152602001806148aa6029913960400191505060405180910390fd5b6001600160a01b038216612c015760405162461bcd60e51b815260040180806020018281038252602481526020018061473a6024913960400191505060405180910390fd5b612c0c838383610965565b612c17600082612994565b6001600160a01b0383166000908152600260205260409020612c3990826134a1565b506001600160a01b0382166000908152600260205260409020612c5c90826134ad565b50612c69600382846134b9565b5080826001600160a01b0316846001600160a01b03167fddf252ad1be2c89b69c2b068fc378daa952ba7f163c4a11628f55a4df523b3ef60405160405180910390a4505050565b6000610a4d83836134cf565b6000610a4d836001600160a01b038416613533565b600284018190556000612cf9670de0b6b3a7640000611162612cf285611bd8565b869061284c565b9050612d1e670de0b6b3a764000061116286600201548461284c90919063ffffffff16565b600186015560038086015490850154612d3c918391610d699161290c565b60039485015593909201929092555050565b610e0b82826040518060200160405280600081525061354b565b6000610a4d836001600160a01b03841661359d565b6000808080612d8c8686613663565b9097909650945050505050565b8051610e0b90600a906020840190613d6b565b60006109a88484846136de565b600081815260106020908152604080832060058101546001600160a01b0316808552600b9093529220612deb82611854565b612df58382612a1a565b60048401558254612e098483836000612cd1565b6000612e41670de0b6b3a7640000611162847f000000000000000000000000000000000000000000000000000000000000000061284c565b9050612e576001600160a01b038516338361308f565b612e61828261290c565b8555604051869033907f4cdaca29662c1c6939de029e215bbebee084154866a8d05ad150e7503f167d2e90612e97908590614655565b60405180910390a3505050505050565b600081831015612eb75781610a4d565b5090919050565b6000818310612eb75781610a4d565b6000612ed8826111f1565b9050612ee681600084610965565b612ef1600083612994565b6000828152600960205260409020546002600019610100600184161502019091160415612f2f576000828152600960205260408120612f2f91613df7565b6001600160a01b0381166000908152600260205260409020612f5190836134a1565b50612f5d6003836137a8565b5060405182906000906001600160a01b038416907fddf252ad1be2c89b69c2b068fc378daa952ba7f163c4a11628f55a4df523b3ef908390a45050565b6040517f70a082310000000000000000000000000000000000000000000000000000000081526000906001600160a01b037f000000000000000000000000000000000000000000000000000000000000000016906370a08231906130029030906004016141b9565b60206040518083038186803b15801561301a57600080fd5b505afa15801561302e573d6000803e3d6000fd5b505050506040513d601f19601f82011682018060405250810190613052919061415e565b9050610965836130628484612ebe565b6001600160a01b037f00000000000000000000000000000000000000000000000000000000000000001691905b604080516001600160a01b038416602482015260448082018490528251808303909101815260649091019091526020810180517bffffffffffffffffffffffffffffffffffffffffffffffffffffffff167fa9059cbb00000000000000000000000000000000000000000000000000000000179052610965908490613285565b61311a848484612b64565b613126848484846137b4565b6120615760405162461bcd60e51b81526004018080602001828103825260328152602001806146e26032913960400191505060405180910390fd5b6060816131a2575060408051808201909152600181527f30000000000000000000000000000000000000000000000000000000000000006020820152610786565b8160005b81156131ba57600101600a820491506131a6565b60008167ffffffffffffffff811180156131d357600080fd5b506040519080825280601f01601f1916602001820160405280156131fe576020820181803683370190505b50859350905060001982015b831561326757600a840660300160f81b8282806001900393508151811061322d57fe5b60200101907effffffffffffffffffffffffffffffffffffffffffffffffffffffffffffff1916908160001a905350600a8404935061320a565b50949350505050565b6000610a4d836001600160a01b038416613990565b60006132da826040518060400160405280602081526020017f5361666545524332303a206c6f772d6c6576656c2063616c6c206661696c6564815250856001600160a01b03166129699092919063ffffffff16565b805190915015610965578080602001905160208110156132f957600080fd5b50516109655760405162461bcd60e51b815260040180806020018281038252602a815260200180614954602a913960400191505060405180910390fd5b6060824710156133775760405162461bcd60e51b815260040180806020018281038252602681526020018061475e6026913960400191505060405180910390fd5b613380856139da565b6133d1576040805162461bcd60e51b815260206004820152601d60248201527f416464726573733a2063616c6c20746f206e6f6e2d636f6e7472616374000000604482015290519081900360640190fd5b600080866001600160a01b031685876040518082805190602001908083835b6020831061340f5780518252601f1990920191602091820191016133f0565b6001836020036101000a03801982511681845116808217855250505050505090500191505060006040518083038185875af1925050503d8060008114613471576040519150601f19603f3d011682016040523d82523d6000602084013e613476565b606091505b50915091506134868282866139e0565b979650505050505050565b6000610a4d8383613533565b5490565b6000610a4d838361359d565b6000610a4d8383613990565b60006109a884846001600160a01b038516613a46565b815460009082106135115760405162461bcd60e51b81526004018080602001828103825260228152602001806146c06022913960400191505060405180910390fd5b82600001828154811061352057fe5b9060005260206000200154905092915050565b60009081526001919091016020526040902054151590565b6135558383613add565b61356260008484846137b4565b6109655760405162461bcd60e51b81526004018080602001828103825260328152602001806146e26032913960400191505060405180910390fd5b6000818152600183016020526040812054801561365957835460001980830191908101906000908790839081106135d057fe5b90600052602060002001549050808760000184815481106135ed57fe5b60009182526020808320909101929092558281526001898101909252604090209084019055865487908061361d57fe5b60019003818190600052602060002001600090559055866001016000878152602001908152602001600020600090556001945050505050610a50565b6000915050610a50565b8154600090819083106136a75760405162461bcd60e51b815260040180806020018281038252602281526020018061483b6022913960400191505060405180910390fd5b60008460000184815481106136b857fe5b906000526020600020906002020190508060000154816001015492509250509250929050565b600082815260018401602052604081205482816137795760405162461bcd60e51b81526004018080602001828103825283818151815260200191508051906020019080838360005b8381101561373e578181015183820152602001613726565b50505050905090810190601f16801561376b5780820380516001836020036101000a031916815260200191505b509250505060405180910390fd5b5084600001600182038154811061378c57fe5b9060005260206000209060020201600101549150509392505050565b6000610a4d8383613c0b565b60006137c8846001600160a01b03166139da565b6137d4575060016109a8565b60006139257f150b7a0200000000000000000000000000000000000000000000000000000000613802612990565b88878760405160240180856001600160a01b03168152602001846001600160a01b0316815260200183815260200180602001828103825283818151815260200191508051906020019080838360005b83811015613869578181015183820152602001613851565b50505050905090810190601f1680156138965780820380516001836020036101000a031916815260200191505b5095505050505050604051602081830303815290604052907bffffffffffffffffffffffffffffffffffffffffffffffffffffffff19166020820180517bffffffffffffffffffffffffffffffffffffffffffffffffffffffff83818316178352505050506040518060600160405280603281526020016146e2603291396001600160a01b0388169190612969565b9050600081806020019051602081101561393e57600080fd5b50517fffffffff00000000000000000000000000000000000000000000000000000000167f150b7a02000000000000000000000000000000000000000000000000000000001492505050949350505050565b600061399c8383613533565b6139d257508154600181810184556000848152602080822090930184905584548482528286019093526040902091909155610a50565b506000610a50565b3b151590565b606083156139ef575081611c4a565b8251156139ff5782518084602001fd5b60405162461bcd60e51b815260206004820181815284516024840152845185939192839260440191908501908083836000831561373e578181015183820152602001613726565b600082815260018401602052604081205480613aab575050604080518082018252838152602080820184815286546001818101895560008981528481209551600290930290950191825591519082015586548684528188019092529290912055611c4a565b82856000016001830381548110613abe57fe5b9060005260206000209060020201600101819055506000915050611c4a565b6001600160a01b038216613b38576040805162461bcd60e51b815260206004820181905260248201527f4552433732313a206d696e7420746f20746865207a65726f2061646472657373604482015290519081900360640190fd5b613b4181612978565b15613b93576040805162461bcd60e51b815260206004820152601c60248201527f4552433732313a20746f6b656e20616c7265616479206d696e74656400000000604482015290519081900360640190fd5b613b9f60008383610965565b6001600160a01b0382166000908152600260205260409020613bc190826134ad565b50613bce600382846134b9565b5060405181906001600160a01b038416906000907fddf252ad1be2c89b69c2b068fc378daa952ba7f163c4a11628f55a4df523b3ef908290a45050565b600081815260018301602052604081205480156136595783546000198083019190810190600090879083908110613c3e57fe5b9060005260206000209060020201905080876000018481548110613c5e57fe5b600091825260208083208454600290930201918255600193840154918401919091558354825289830190526040902090840190558654879080613c9d57fe5b6000828152602080822060026000199094019384020182815560019081018390559290935588815289820190925260408220919091559450610a509350505050565b6040518060a0016040528060006001600160a01b03168152602001600081526020016000815260200160008152602001600081525090565b60405180606001604052806000815260200160006001600160a01b03168152602001600081525090565b604051806060016040528060006001600160a01b0316815260200160008152602001600081525090565b828054600181600116156101000203166002900490600052602060002090601f016020900481019282613da15760008555613de7565b82601f10613dba57805160ff1916838001178555613de7565b82800160010185558215613de7579182015b82811115613de7578251825591602001919060010190613dcc565b50613df3929150613e37565b5090565b50805460018160011615610100020316600290046000825580601f10613e1d5750611047565b601f01602090049060005260206000209081019061104791905b5b80821115613df35760008155600101613e38565b600067ffffffffffffffff80841115613e6157fe5b6040516020601f19601f8701168201018181108382111715613e7f57fe5b604052848152915081838501861015613e9757600080fd5b8484602083013760006020868301015250509392505050565b600060208284031215613ec1578081fd5b8135610a4d816146aa565b60008060408385031215613ede578081fd5b8235613ee9816146aa565b91506020830135613ef9816146aa565b809150509250929050565b600080600060608486031215613f18578081fd5b8335613f23816146aa565b92506020840135613f33816146aa565b929592945050506040919091013590565b60008060008060808587031215613f59578081fd5b8435613f64816146aa565b93506020850135613f74816146aa565b925060408501359150606085013567ffffffffffffffff811115613f96578182fd5b8501601f81018713613fa6578182fd5b613fb587823560208401613e4c565b91505092959194509250565b60008060408385031215613fd3578182fd5b8235613fde816146aa565b915060208301358015158114613ef9578182fd5b60008060408385031215614004578182fd5b823561400f816146aa565b946020939093013593505050565b6000806020838503121561402f578182fd5b823567ffffffffffffffff80821115614046578384fd5b818501915085601f830112614059578384fd5b813581811115614067578485fd5b866020808302850101111561407a578485fd5b60209290920196919550909350505050565b60006020828403121561409d578081fd5b81357fffffffff0000000000000000000000000000000000000000000000000000000081168114610a4d578182fd5b6000806000606084860312156140e0578283fd5b83356140eb816146aa565b95602085013595506040909401359392505050565b600060208284031215614111578081fd5b813567ffffffffffffffff811115614127578182fd5b8201601f81018413614137578182fd5b6109a884823560208401613e4c565b600060208284031215614157578081fd5b5035919050565b60006020828403121561416f578081fd5b5051919050565b60008060408385031215614188578182fd5b50508035926020909101359150565b80516001600160a01b0316825260208082015190830152604090810151910152565b6001600160a01b0391909116815260200190565b602080825282518282018190526000919060409081850190868401855b8281101561423757815180516001600160a01b0316855286810151878601528581015186860152606080820151908601526080908101519085015260a090930192908501906001016141ea565b5091979650505050505050565b602080825282518282018190526000919060409081850190868401855b8281101561423757815180518552868101516001600160a01b0316878601528501518585015260609093019290850190600101614261565b6020808252825182820181905260009190848201906040850190845b818110156142db576142c8838551614197565b92840192606092909201916001016142b5565b50909695505050505050565b901515815260200190565b6000602080835283518082850152825b8181101561431e57858101830151858201604001528201614302565b8181111561432f5783604083870101525b50601f01601f1916929092016040019392505050565b6020808252601d908201527f48463a20436f6e747261637420616c72656164792064697361626c6564000000604082015260600190565b60208082526015908201527f48463a204e6f6e2d6578697374616e7420706f6f6c0000000000000000000000604082015260600190565b60208082526017908201527f48463a20496e76616c696420756e6c6f636b2074696d65000000000000000000604082015260600190565b6020808252601a908201527f48463a204d757374206465706f73697420736f6d657468696e67000000000000604082015260600190565b60208082526018908201527f48463a204465706f736974207374696c6c206c6f636b65640000000000000000604082015260600190565b60208082526017908201527f48463a204c6f636b2074696d6520746f6f2073686f7274000000000000000000604082015260600190565b60208082526016908201527f48463a20546f6f206c6f7720616c6c6f636174696f6e00000000000000000000604082015260600190565b6020808252601f908201527f48463a206465706f73697420686173206e6f7420657870697265642079657400604082015260600190565b6020808252601a908201527f48463a204c5020706f6f6c20616c726561647920657869737473000000000000604082015260600190565b60208082526015908201527f48463a206e6f206c6f636b20746f206578706972650000000000000000000000604082015260600190565b60208082526014908201527f48463a206e6f20706f6f6c732063726561746564000000000000000000000000604082015260600190565b6020808252601d908201527f48463a204c6f636b2074696d652065786365656473206d6178696d756d000000604082015260600190565b6020808252601c908201527f48463a204d757374206265206f776e6572206f66206465706f73697400000000604082015260600190565b6020808252601d908201527f48463a204d757374206265206f776e657220746f207769746864726177000000604082015260600190565b60608101610a508284614197565b90815260200190565b93845260208401929092526040830152606082015260800190565b95865260208601949094526040850192909252606084015260808301526001600160a01b031660a082015260c00190565b6001600160a01b038116811461104757600080fdfe456e756d657261626c655365743a20696e646578206f7574206f6620626f756e64734552433732313a207472616e7366657220746f206e6f6e20455243373231526563656976657220696d706c656d656e7465724f776e61626c653a206e6577206f776e657220697320746865207a65726f20616464726573734552433732313a207472616e7366657220746f20746865207a65726f2061646472657373416464726573733a20696e73756666696369656e742062616c616e636520666f722063616c6c4552433732313a206f70657261746f7220717565727920666f72206e6f6e6578697374656e7420746f6b656e4552433732313a20617070726f76652063616c6c6572206973206e6f74206f776e6572206e6f7220617070726f76656420666f7220616c6c4552433732313a2062616c616e636520717565727920666f7220746865207a65726f20616464726573734552433732313a206f776e657220717565727920666f72206e6f6e6578697374656e7420746f6b656e456e756d657261626c654d61703a20696e646578206f7574206f6620626f756e6473536166654d6174683a206d756c7469706c69636174696f6e206f766572666c6f774552433732313a20617070726f76656420717565727920666f72206e6f6e6578697374656e7420746f6b656e4552433732313a207472616e73666572206f6620746f6b656e2074686174206973206e6f74206f776e4552433732314d657461646174613a2055524920717565727920666f72206e6f6e6578697374656e7420746f6b656e4552433732313a20617070726f76616c20746f2063757272656e74206f776e65724552433732313a207472616e736665722063616c6c6572206973206e6f74206f776e6572206e6f7220617070726f7665645361666545524332303a204552433230206f7065726174696f6e20646964206e6f742073756363656564a26469706673582212200b9918a6417a02c98267183ed0f920364c031efe99c713b0087136b43cf37c9464736f6c63430007060033416464726573733a20696e73756666696369656e742062616c616e636520666f722063616c6c536166654d6174683a206d756c7469706c69636174696f6e206f766572666c6f775361666545524332303a204552433230206f7065726174696f6e20646964206e6f742073756363656564",
  "immutableReferences": {
    "74": [
      {
        "length": 32,
        "start": 3664
      },
      {
        "length": 32,
        "start": 5918
      },
      {
        "length": 32,
        "start": 7425
      },
      {
        "length": 32,
        "start": 12237
      },
      {
        "length": 32,
        "start": 12396
      }
    ],
    "90": [
      {
        "length": 32,
        "start": 4967
      },
      {
        "length": 32,
        "start": 8297
      }
    ],
    "92": [
      {
        "length": 32,
        "start": 5009
      },
      {
        "length": 32,
        "start": 9010
      }
    ],
    "94": [
      {
        "length": 32,
        "start": 2806
      },
      {
        "length": 32,
        "start": 8974
      }
    ],
    "96": [
      {
        "length": 32,
        "start": 2869
      },
      {
        "length": 32,
        "start": 9209
      }
    ],
    "98": [
      {
        "length": 32,
        "start": 4733
      },
      {
        "length": 32,
        "start": 4862
      },
      {
        "length": 32,
        "start": 4906
      },
      {
        "length": 32,
        "start": 6188
      },
      {
        "length": 32,
        "start": 9889
      }
    ],
    "100": [
      {
        "length": 32,
        "start": 3161
      },
      {
        "length": 32,
        "start": 4798
      },
      {
        "length": 32,
        "start": 7796
      }
    ],
    "102": [
      {
        "length": 32,
        "start": 5521
      },
      {
        "length": 32,
        "start": 7206
      }
    ],
    "104": [
      {
        "length": 32,
        "start": 3601
      },
      {
        "length": 32,
        "start": 7169
      }
    ],
    "106": [
      {
        "length": 32,
        "start": 2569
      },
      {
        "length": 32,
        "start": 4414
      },
      {
        "length": 32,
        "start": 11805
      }
    ]
  },
  "source": "// SPDX-License-Identifier: GPL-3.0-only\n// https://cheemsco.in/farm\n// https://github.com/cryptocheems/farm-contracts\npragma solidity 0.7.6;\npragma abicoder v2;\n\nimport \"@openzeppelin/contracts/token/ERC721/ERC721.sol\";\nimport \"@openzeppelin/contracts/token/ERC20/IERC20.sol\";\nimport \"@openzeppelin/contracts/token/ERC20/SafeERC20.sol\";\nimport \"@openzeppelin/contracts/utils/EnumerableSet.sol\";\nimport \"@openzeppelin/contracts/math/SafeMath.sol\";\nimport \"@openzeppelin/contracts/math/Math.sol\";\nimport \"@openzeppelin/contracts/access/Ownable.sol\";\n\n// Forked from the HoneyFarm v1 contract\n// https://github.com/1Hive/honeyswap-farm/blob/master/contracts/HoneyFarm.sol\ncontract CheemscoinFarm is Ownable, ERC721 {\n  using SafeMath for uint256;\n  using SafeERC20 for IERC20;\n  using EnumerableSet for EnumerableSet.AddressSet;\n\n  // Info of each deposit\n  struct DepositInfo {\n    uint256 amount; // How many LP tokens the user has provided.\n    uint256 rewardDebt; // Reward debt (value of accumulator)\n    uint256 unlockTime;\n    uint256 rewardShare;\n    uint256 setRewards;\n    IERC20 pool;\n  }\n\n  // Info of each pool.\n  struct PoolInfo {\n    uint256 allocation; // How many allocation points assigned to this pool.\n    // Last block timestamp that HSFs distribution occured, initially set to the startTime.\n    uint256 lastRewardTimestamp;\n    uint256 accHsfPerShare; // Accumulated HSFs per share, times SCALE.\n    uint256 totalShares; // total shares stored in pool\n  }\n\n  // Frontend view of pools\n  struct PoolDetails {\n    IERC20 poolToken;\n    uint256 hsfInDay;\n    uint256 poolTokenBalance;\n  }\n\n  // Frontend view of deposit\n  struct DepositDetails {\n    IERC20 poolToken;\n    uint256 balance; // Amount of LP tokens  deposited\n    uint256 unlockTime;\n    uint256 pendingReward; // Cheems not paid yet\n    uint256 id; // ERC721 id\n  }\n\n  struct ExpiredDeposit {\n    uint256 id;\n    IERC20 poolToken;\n    uint256 reward;\n  }\n\n  // What fractional numbers are scaled by\n  uint256 public constant SCALE = 1e18;\n  // The Farm token\n  IERC20 public immutable hsf;\n  // Info of each pool.\n  mapping(IERC20 => PoolInfo) public poolInfo;\n  // set of running pools\n  EnumerableSet.AddressSet internal pools;\n  // Total allocation points. Must be the sum of all allocation points in all pools.\n  uint256 public totalAllocationPoints;\n  // total deposits\n  uint256 public totalDeposits;\n  // data about individual deposits\n  mapping(uint256 => DepositInfo) public depositInfo;\n  /* the negative slope of the distribution line scaled by SCALE, how much\n  less is being distributed per unit of time. */\n  uint256 public immutable distributionSlope;\n  // starting distribution rate / unit time scaled by SCALE\n  uint256 public immutable startDistribution;\n  // minimum time someone can lock their liquidity for\n  uint256 public immutable minTimeLock;\n  // maximum time someone can lock their liquidity for\n  uint256 public immutable maxTimeLock;\n  // time at which coins begin being distributed\n  uint256 public immutable startTime;\n  // time at which coins finish being distributed\n  uint256 public immutable endTime;\n  // multiplier for time locked deposits / second locked scaled by SCALE\n  uint256 public immutable timeLockMultiplier;\n  // constant added to the timeLockMultiplier scaled by SCALE\n  uint256 public immutable timeLockConstant;\n  /* One time fee that is deducted from time-locked deposits given to whoever\n  downgrades it, scaled by SCALE */\n  uint256 public immutable downgradeFee;\n  // whether this contract has been disabled\n  uint256 public contractDisabledAt;\n\n  event PoolAdded(IERC20 indexed poolToken, uint256 allocation);\n  // fired when pool parameters are updated not when the updatePool() method is called\n  event PoolUpdated(IERC20 indexed poolToken, uint256 allocation);\n  event PoolRemoved(IERC20 indexed poolToken);\n  event Disabled();\n  event DepositDowngraded(\n    address indexed downgrader,\n    uint256 indexed depositId,\n    uint256 downgradeReward\n  );\n  event RewardsWithdraw(uint256 indexed depositId, uint256 rewardAmount);\n  event RewardsAdded(uint256 additionalRewardAmount);\n\n  // parameters passed as byte strings to mitigate stack too deep error\n  constructor(\n    IERC20 _hsf,\n    // uint256 _startTime,\n    // uint256 _endTime,\n    // uint256 _totalHsfToDistribute,\n    // uint256 _endDistributionFraction,\n    // uint256 _minTimeLock,\n    // uint256 _maxTimeLock,\n    // uint256 _timeLockMultiplier,\n    // uint256 _timeLockConstant,\n    // uint256 _downgradeFee\n    uint256[9] memory _parameters\n  ) ERC721(\"CheemsFarm Deposit v1\", \"CFD\") {\n    uint256 _startTime = _parameters[0];\n    uint256 _endTime = _parameters[1];\n    require(_endTime > _startTime, \"HF: endTime before startTime\");\n    uint256 _totalHsfToDistribute = _parameters[2];\n    uint256 _endDistributionFraction = _parameters[3];\n    hsf = _hsf;\n    startTime = _startTime;\n    endTime = _endTime;\n    _hsf.safeTransferFrom(msg.sender, address(this), _totalHsfToDistribute);\n\n    // check https://hackmd.io/BFrhyOTUQ3O9REs5PuZahQ for a breakdown of the maths\n    // ds = (2 * s) / (te * (r + 1))\n    uint256 startDistribution_ = _totalHsfToDistribute.mul(2).mul(SCALE).mul(SCALE).div(\n      (_endTime - _startTime).mul(_endDistributionFraction.add(SCALE))\n    );\n    // -m = ds * (1 - r) / te\n    distributionSlope = startDistribution_.mul(SCALE.sub(_endDistributionFraction)).div(\n      (_endTime - _startTime).mul(SCALE)\n    );\n    startDistribution = startDistribution_;\n\n    uint256 _minTimeLock = _parameters[4];\n    uint256 _maxTimeLock = _parameters[5];\n    require(_minTimeLock < _maxTimeLock, \"HF: invalid lock limits\");\n    minTimeLock = _minTimeLock;\n    maxTimeLock = _maxTimeLock;\n    timeLockMultiplier = _parameters[6];\n    timeLockConstant = _parameters[7];\n    downgradeFee = _parameters[8];\n  }\n\n  modifier notDisabled {\n    require(contractDisabledAt == 0, \"HF: Contract already disabled\");\n    _;\n  }\n\n  function poolLength() external view returns (uint256) {\n    return pools.length();\n  }\n\n  function getPoolByIndex(uint256 _index) public view returns (PoolDetails memory) {\n    IERC20 poolToken = IERC20(pools.at(_index));\n    PoolInfo memory pool = poolInfo[poolToken];\n    uint256 hsfInDay = getDistribution(block.timestamp, block.timestamp.add(24 * 3600)).div(SCALE);\n    uint256 poolHsfInDay = hsfInDay.mul(pool.allocation).div(totalAllocationPoints);\n    uint256 poolTokenBalance = poolToken.balanceOf(address(this));\n    return PoolDetails(poolToken, poolHsfInDay, poolTokenBalance);\n  }\n\n  function getAllPools() external view returns (PoolDetails[] memory) {\n    PoolDetails[] memory allPools = new PoolDetails[](pools.length());\n    for (uint256 i = 0; i < pools.length(); i++) {\n      allPools[i] = getPoolByIndex(i);\n    }\n    return allPools;\n  }\n\n  function getAccountDeposits(address _account) external view returns (DepositDetails[] memory) {\n    DepositDetails[] memory allDeposits = new DepositDetails[](balanceOf(_account));\n    for (uint256 i = 0; i < balanceOf(_account); i++) {\n      uint256 dIndex = tokenOfOwnerByIndex(_account, i);\n      DepositInfo memory d = depositInfo[dIndex];\n      allDeposits[i] = DepositDetails(d.pool, d.amount, d.unlockTime, pendingHsf(dIndex), dIndex);\n    }\n    return allDeposits;\n  }\n\n  /* The function name is misleading. It gets all of the ExpiredDeposits, which \n  have an id, poolToken and reward */\n  function getExpiredDepositIds() external view returns (ExpiredDeposit[] memory) {\n    ExpiredDeposit[] memory ids = new ExpiredDeposit[](totalDeposits);\n    uint256 j = 0;\n    for (uint256 i = 0; i < totalDeposits; i++) {\n      DepositInfo memory d = depositInfo[i];\n      if (d.unlockTime <= block.timestamp && d.unlockTime != 0) {\n        uint256 reward = d.amount.mul(downgradeFee).div(SCALE);\n        ids[j] = ExpiredDeposit(i, d.pool, reward);\n        j++;\n      }\n    }\n    return ids;\n  }\n\n  // underscore placed after to avoid collide with the ERC721._baseURI property\n  function setBaseURI(string memory baseURI_) external onlyOwner {\n    _setBaseURI(baseURI_);\n  }\n\n  function disableContract(address _tokenRecipient) external onlyOwner notDisabled {\n    massUpdatePools();\n    uint256 remainingTokens = getDistribution(block.timestamp, endTime);\n    _safeHsfTransfer(_tokenRecipient, remainingTokens.div(SCALE));\n    contractDisabledAt = block.timestamp;\n    emit Disabled();\n  }\n\n  // Retroactively reward stakers. Does not contribute to future rewards\n  function depositAdditionalRewards(uint256 _depositAmount) external {\n    uint256 totalAllocationPoints_ = totalAllocationPoints;\n    require(totalAllocationPoints_ > 0, \"HF: no pools created\");\n    hsf.safeTransferFrom(msg.sender, address(this), _depositAmount);\n    uint256 poolLen = pools.length();\n    for (uint256 i; i < poolLen; i++) {\n      IERC20 poolToken = IERC20(pools.at(i));\n      PoolInfo storage pool = poolInfo[poolToken];\n      uint256 poolTotalShares = pool.totalShares;\n      if (poolTotalShares > 0) {\n        uint256 poolScaledRewards = _depositAmount.mul(SCALE).mul(pool.allocation) /\n          totalAllocationPoints_ /\n          poolTotalShares;\n        pool.accHsfPerShare = pool.accHsfPerShare.add(poolScaledRewards);\n      }\n    }\n    emit RewardsAdded(_depositAmount);\n  }\n\n  // Add a new lp to the pool. Can only be called by the owner.\n  function add(IERC20 _lpToken, uint256 _allocation) public onlyOwner notDisabled {\n    require(_allocation > 0, \"HF: Too low allocation\");\n    massUpdatePools();\n    require(pools.add(address(_lpToken)), \"HF: LP pool already exists\");\n    uint256 lastRewardTimestamp = Math.max(block.timestamp, startTime);\n    totalAllocationPoints = totalAllocationPoints.add(_allocation);\n    poolInfo[_lpToken] = PoolInfo({\n      allocation: _allocation,\n      lastRewardTimestamp: lastRewardTimestamp,\n      accHsfPerShare: 0,\n      totalShares: 0\n    });\n    emit PoolAdded(_lpToken, _allocation);\n  }\n\n  // Update the given pool's allocation point. Can only be called by the owner.\n  function set(IERC20 _poolToken, uint256 _allocation) public onlyOwner notDisabled {\n    require(pools.contains(address(_poolToken)), \"HF: Non-existant pool\");\n    massUpdatePools();\n    totalAllocationPoints = totalAllocationPoints.sub(poolInfo[_poolToken].allocation).add(\n      _allocation\n    );\n    poolInfo[_poolToken].allocation = _allocation;\n    emit PoolUpdated(_poolToken, _allocation);\n    if (_allocation == 0) {\n      pools.remove(address(_poolToken));\n      emit PoolRemoved(_poolToken);\n    }\n  }\n\n  // get tokens to be distributed between two timestamps scaled by SCALE\n  function getDistribution(uint256 _from, uint256 _to) public view returns (uint256) {\n    uint256 from = Math.max(startTime, _from);\n    uint256 to = Math.min(_to, contractDisabledAt == 0 ? endTime : contractDisabledAt);\n\n    if (from > to) return uint256(0);\n\n    from = from.sub(startTime);\n    to = to.sub(startTime);\n\n    // check https://hackmd.io/BFrhyOTUQ3O9REs5PuZahQ for a breakdown of the maths\n    // d(t1, t2) = (t2 - t1) * (2 * ds - (-m) * (t2 + t1)) / 2\n    return to.sub(from).mul(startDistribution.mul(2).sub(distributionSlope.mul(from.add(to)))) / 2;\n  }\n\n  function getTimeMultiple(uint256 _unlockTime) public view returns (uint256) {\n    if (_unlockTime == 0) return SCALE;\n    uint256 timeDelta = _unlockTime.sub(block.timestamp);\n    return timeDelta.mul(timeLockMultiplier).add(timeLockConstant);\n  }\n\n  // View function to see pending HSFs on frontend.\n  function pendingHsf(uint256 _depositId) public view returns (uint256) {\n    DepositInfo storage deposit = depositInfo[_depositId];\n    PoolInfo storage pool = poolInfo[deposit.pool];\n    return _getPendingHsf(deposit, pool);\n  }\n\n  // Deposit LP tokens into the farm to earn HSF\n  function createDeposit(\n    IERC20 _poolToken,\n    uint256 _amount,\n    uint256 _unlockTime\n  ) external notDisabled {\n    require(_amount > 0, \"HF: Must deposit something\");\n    require(_unlockTime > block.timestamp, \"HF: Invalid unlock time\");\n    require(pools.contains(address(_poolToken)), \"HF: Non-existant pool\");\n    uint256 lockDuration = _unlockTime.sub(block.timestamp);\n    require(minTimeLock <= lockDuration, \"HF: Lock time too short\");\n    require(lockDuration <= maxTimeLock, \"HF: Lock time exceeds maximum\");\n\n    PoolInfo storage pool = poolInfo[_poolToken];\n    updatePool(_poolToken);\n    _poolToken.safeTransferFrom(address(msg.sender), address(this), _amount);\n    uint256 newDepositId = totalDeposits++;\n    DepositInfo storage newDeposit = depositInfo[newDepositId];\n    newDeposit.amount = _amount;\n    newDeposit.pool = _poolToken;\n    _resetRewardAccs(newDeposit, pool, _amount, _unlockTime);\n    _safeMint(msg.sender, newDepositId);\n  }\n\n  // Withdraw LP tokens along with reward\n  function closeDeposit(uint256 _depositId) external {\n    require(ownerOf(_depositId) == msg.sender, \"HF: Must be owner to withdraw\");\n    DepositInfo storage deposit = depositInfo[_depositId];\n    require(\n      deposit.unlockTime <= block.timestamp || contractDisabledAt > 0,\n      \"HF: Deposit still locked\"\n    );\n    IERC20 poolToken = deposit.pool;\n    PoolInfo storage pool = poolInfo[poolToken];\n    updatePool(poolToken);\n\n    uint256 pending = _getPendingHsf(deposit, pool);\n    pool.totalShares = pool.totalShares.sub(deposit.rewardShare);\n    _burn(_depositId);\n    _safeHsfTransfer(msg.sender, pending);\n    poolToken.safeTransfer(msg.sender, deposit.amount);\n    delete depositInfo[_depositId];\n  }\n\n  function withdrawRewards(uint256 _depositId) public {\n    require(ownerOf(_depositId) == msg.sender, \"HF: Must be owner of deposit\");\n    DepositInfo storage deposit = depositInfo[_depositId];\n    PoolInfo storage pool = poolInfo[deposit.pool];\n    uint256 _unlockTime = deposit.unlockTime;\n    if (_unlockTime > 0 && _unlockTime <= block.timestamp) {\n      _downgradeExpired(_depositId);\n    } else {\n      updatePool(deposit.pool);\n    }\n    uint256 pendingRewards = _getPendingHsf(deposit, pool);\n    deposit.setRewards = uint256(0);\n    deposit.rewardDebt = deposit.rewardShare.mul(pool.accHsfPerShare).div(SCALE);\n    _safeHsfTransfer(msg.sender, pendingRewards);\n    emit RewardsWithdraw(_depositId, pendingRewards);\n  }\n\n  function multiWithdraw(uint256[] calldata _depositIds) external {\n    uint256 depositIdCount = _depositIds.length;\n    for (uint256 i = 0; i < depositIdCount; i++) {\n      withdrawRewards(_depositIds[i]);\n    }\n  }\n\n  // This exists so if an ERC20 is accidentally sent to this contract, the funds can be recovered\n  function recoverToken(IERC20 _token) external onlyOwner {\n    // So owner cannot steal desposited funds\n    require(!pools.contains(address(_token)) && _token != hsf);\n    _token.safeTransfer(msg.sender, _token.balanceOf(address(this)));\n  }\n\n  /* If the lock has expired, when this is called, the deposit's multiplier is set to 1 and\n  the downgradeFee (probably 0.01%) is deducted from the deposit LP and sent to whoever calls this*/\n  function downgradeExpired(uint256 _depositId) public {\n    DepositInfo storage deposit = depositInfo[_depositId];\n    require(deposit.unlockTime > 0, \"HF: no lock to expire\");\n    require(deposit.unlockTime <= block.timestamp, \"HF: deposit has not expired yet\");\n    _downgradeExpired(_depositId);\n  }\n\n  // Update reward variables for all pools. Be careful of gas spending!\n  function massUpdatePools() public {\n    uint256 length = pools.length();\n    for (uint256 pid = 0; pid < length; pid++) {\n      updatePool(IERC20(pools.at(pid)));\n    }\n  }\n\n  // Update reward variables of the given pool to be up-to-date.\n  function updatePool(IERC20 _poolToken) public {\n    PoolInfo storage pool = poolInfo[_poolToken];\n    if (block.timestamp <= pool.lastRewardTimestamp) {\n      return;\n    }\n    uint256 totalShares = pool.totalShares;\n    if (totalShares == 0) {\n      pool.lastRewardTimestamp = block.timestamp;\n      return;\n    }\n    uint256 dist = getDistribution(pool.lastRewardTimestamp, block.timestamp);\n    uint256 hsfReward = dist.mul(pool.allocation).div(totalAllocationPoints);\n    uint256 poolScaledRewards = hsfReward.div(totalShares);\n    pool.accHsfPerShare = pool.accHsfPerShare.add(poolScaledRewards);\n    pool.lastRewardTimestamp = block.timestamp;\n  }\n\n  function _downgradeExpired(uint256 _depositId) internal {\n    DepositInfo storage deposit = depositInfo[_depositId];\n    IERC20 poolToken = deposit.pool;\n    PoolInfo storage pool = poolInfo[poolToken];\n    updatePool(poolToken);\n    deposit.setRewards = _getPendingHsf(deposit, pool);\n    uint256 amount = deposit.amount;\n    _resetRewardAccs(deposit, pool, amount, 0);\n    uint256 downgradeReward = amount.mul(downgradeFee).div(SCALE);\n    poolToken.safeTransfer(msg.sender, downgradeReward);\n    deposit.amount = amount.sub(downgradeReward);\n    emit DepositDowngraded(msg.sender, _depositId, downgradeReward);\n  }\n\n  function _getPendingHsf(DepositInfo storage _deposit, PoolInfo storage _pool)\n    internal\n    view\n    returns (uint256)\n  {\n    uint256 accHsfPerShare = _pool.accHsfPerShare;\n    uint256 totalShares = _pool.totalShares;\n    if (block.timestamp > _pool.lastRewardTimestamp && totalShares != 0) {\n      uint256 dist = getDistribution(_pool.lastRewardTimestamp, block.timestamp);\n      uint256 hsfReward = dist.mul(_pool.allocation).div(totalAllocationPoints);\n      accHsfPerShare = accHsfPerShare.add(hsfReward.div(totalShares));\n    }\n    return\n      _deposit.rewardShare.mul(accHsfPerShare).div(SCALE).sub(_deposit.rewardDebt).add(\n        _deposit.setRewards\n      );\n  }\n\n  function _resetRewardAccs(\n    DepositInfo storage _deposit,\n    PoolInfo storage _pool,\n    uint256 _amount,\n    uint256 _unlockTime\n  ) internal {\n    _deposit.unlockTime = _unlockTime;\n    uint256 newShares = _amount.mul(getTimeMultiple(_unlockTime)).div(SCALE);\n    _deposit.rewardDebt = newShares.mul(_pool.accHsfPerShare).div(SCALE);\n    _pool.totalShares = _pool.totalShares.sub(_deposit.rewardShare).add(newShares);\n    _deposit.rewardShare = newShares;\n  }\n\n  /* Safe hsf transfer function, just in case if rounding error causes pool\n  to not have enough HSFs. */\n  function _safeHsfTransfer(address _to, uint256 _amount) internal {\n    uint256 hsfBal = hsf.balanceOf(address(this));\n    hsf.safeTransfer(_to, Math.min(_amount, hsfBal));\n  }\n}\n",
  "sourcePath": "/Users/kaikurosawa/Desktop/code/cryptocheems/farm-contracts/contracts/CheemscoinFarm.sol",
  "compiler": {
    "name": "solc",
    "version": "0.7.6+commit.7338295f.Emscripten.clang"
  },
  "schemaVersion": "3.3.3",
  "updatedAt": "2021-07-25T01:34:53.575Z",
  "networkType": "ethereum",
  "devdoc": {
    "kind": "dev",
    "methods": {
      "approve(address,uint256)": {
        "details": "See {IERC721-approve}."
      },
      "balanceOf(address)": {
        "details": "See {IERC721-balanceOf}."
      },
      "baseURI()": {
        "details": "Returns the base URI set via {_setBaseURI}. This will be automatically added as a prefix in {tokenURI} to each token's URI, or to the token ID if no specific URI is set for that token ID."
      },
      "getApproved(uint256)": {
        "details": "See {IERC721-getApproved}."
      },
      "isApprovedForAll(address,address)": {
        "details": "See {IERC721-isApprovedForAll}."
      },
      "name()": {
        "details": "See {IERC721Metadata-name}."
      },
      "owner()": {
        "details": "Returns the address of the current owner."
      },
      "ownerOf(uint256)": {
        "details": "See {IERC721-ownerOf}."
      },
      "renounceOwnership()": {
        "details": "Leaves the contract without owner. It will not be possible to call `onlyOwner` functions anymore. Can only be called by the current owner. NOTE: Renouncing ownership will leave the contract without an owner, thereby removing any functionality that is only available to the owner."
      },
      "safeTransferFrom(address,address,uint256)": {
        "details": "See {IERC721-safeTransferFrom}."
      },
      "safeTransferFrom(address,address,uint256,bytes)": {
        "details": "See {IERC721-safeTransferFrom}."
      },
      "setApprovalForAll(address,bool)": {
        "details": "See {IERC721-setApprovalForAll}."
      },
      "supportsInterface(bytes4)": {
        "details": "See {IERC165-supportsInterface}. Time complexity O(1), guaranteed to always use less than 30 000 gas."
      },
      "symbol()": {
        "details": "See {IERC721Metadata-symbol}."
      },
      "tokenByIndex(uint256)": {
        "details": "See {IERC721Enumerable-tokenByIndex}."
      },
      "tokenOfOwnerByIndex(address,uint256)": {
        "details": "See {IERC721Enumerable-tokenOfOwnerByIndex}."
      },
      "tokenURI(uint256)": {
        "details": "See {IERC721Metadata-tokenURI}."
      },
      "totalSupply()": {
        "details": "See {IERC721Enumerable-totalSupply}."
      },
      "transferFrom(address,address,uint256)": {
        "details": "See {IERC721-transferFrom}."
      },
      "transferOwnership(address)": {
        "details": "Transfers ownership of the contract to a new account (`newOwner`). Can only be called by the current owner."
      }
    },
    "version": 1
  },
  "userdoc": {
    "kind": "user",
    "methods": {},
    "version": 1
  }
}