{
  "contractName": "Exchange",
  "abi": [
    {
      "inputs": [
        {
          "internalType": "contract IERC20",
          "name": "_cheemscoin",
          "type": "address"
        }
      ],
      "stateMutability": "nonpayable",
      "type": "constructor"
    },
    {
      "inputs": [],
      "name": "dev",
      "outputs": [
        {
          "internalType": "address payable",
          "name": "",
          "type": "address"
        }
      ],
      "stateMutability": "view",
      "type": "function",
      "constant": true
    },
    {
      "inputs": [],
      "name": "price",
      "outputs": [
        {
          "internalType": "uint256",
          "name": "",
          "type": "uint256"
        }
      ],
      "stateMutability": "view",
      "type": "function",
      "constant": true
    },
    {
      "inputs": [],
      "name": "buy",
      "outputs": [],
      "stateMutability": "payable",
      "type": "function",
      "payable": true
    },
    {
      "inputs": [
        {
          "internalType": "uint256",
          "name": "_newPrice",
          "type": "uint256"
        }
      ],
      "name": "setPrice",
      "outputs": [],
      "stateMutability": "nonpayable",
      "type": "function"
    },
    {
      "inputs": [],
      "name": "withdraw",
      "outputs": [],
      "stateMutability": "nonpayable",
      "type": "function"
    }
  ],
  "bytecode": "0x6080604052662386f26fc1000060005533600160006101000a81548173ffffffffffffffffffffffffffffffffffffffff021916908373ffffffffffffffffffffffffffffffffffffffff16021790555034801561005c57600080fd5b506040516109b53803806109b58339818101604052602081101561007f57600080fd5b810190808051906020019092919050505080600260006101000a81548173ffffffffffffffffffffffffffffffffffffffff021916908373ffffffffffffffffffffffffffffffffffffffff160217905550506108d4806100e16000396000f3fe60806040526004361061004a5760003560e01c80633ccfd60b1461004f57806391b7f5ed1461006657806391cca3db146100a1578063a035b1fe146100e2578063a6f2ae3a1461010d575b600080fd5b34801561005b57600080fd5b50610064610117565b005b34801561007257600080fd5b5061009f6004803603602081101561008957600080fd5b810190808035906020019092919050505061040c565b005b3480156100ad57600080fd5b506100b66104bc565b604051808273ffffffffffffffffffffffffffffffffffffffff16815260200191505060405180910390f35b3480156100ee57600080fd5b506100f76104e2565b6040518082815260200191505060405180910390f35b6101156104e8565b005b600160009054906101000a900473ffffffffffffffffffffffffffffffffffffffff1673ffffffffffffffffffffffffffffffffffffffff163373ffffffffffffffffffffffffffffffffffffffff16146101da576040517f08c379a00000000000000000000000000000000000000000000000000000000081526004018080602001828103825260158152602001807f4f6e6c79206465762063616e207769746864726177000000000000000000000081525060200191505060405180910390fd5b6000600260009054906101000a900473ffffffffffffffffffffffffffffffffffffffff1673ffffffffffffffffffffffffffffffffffffffff166370a08231306040518263ffffffff1660e01b8152600401808273ffffffffffffffffffffffffffffffffffffffff16815260200191505060206040518083038186803b15801561026557600080fd5b505afa158015610279573d6000803e3d6000fd5b505050506040513d602081101561028f57600080fd5b8101908080519060200190929190505050905060008111610318576040517f08c379a00000000000000000000000000000000000000000000000000000000081526004018080602001828103825260158152602001807f45786368616e676520686173206e6f2066756e6473000000000000000000000081525060200191505060405180910390fd5b600260009054906101000a900473ffffffffffffffffffffffffffffffffffffffff1673ffffffffffffffffffffffffffffffffffffffff1663a9059cbb600160009054906101000a900473ffffffffffffffffffffffffffffffffffffffff16836040518363ffffffff1660e01b8152600401808373ffffffffffffffffffffffffffffffffffffffff16815260200182815260200192505050602060405180830381600087803b1580156103cd57600080fd5b505af11580156103e1573d6000803e3d6000fd5b505050506040513d60208110156103f757600080fd5b81019080805190602001909291905050505050565b600160009054906101000a900473ffffffffffffffffffffffffffffffffffffffff1673ffffffffffffffffffffffffffffffffffffffff163373ffffffffffffffffffffffffffffffffffffffff16146104b2576040517f08c379a000000000000000000000000000000000000000000000000000000000815260040180806020018281038252602481526020018061087b6024913960400191505060405180910390fd5b8060008190555050565b600160009054906101000a900473ffffffffffffffffffffffffffffffffffffffff1681565b60005481565b6000610500670de0b6b3a764000034026000546107cf565b905060008111610578576040517f08c379a000000000000000000000000000000000000000000000000000000000815260040180806020018281038252601d8152602001807f4120706f7369746976652076616c7565206973206e656365737361727900000081525060200191505060405180910390fd5b600260009054906101000a900473ffffffffffffffffffffffffffffffffffffffff1673ffffffffffffffffffffffffffffffffffffffff166370a08231306040518263ffffffff1660e01b8152600401808273ffffffffffffffffffffffffffffffffffffffff16815260200191505060206040518083038186803b15801561060157600080fd5b505afa158015610615573d6000803e3d6000fd5b505050506040513d602081101561062b57600080fd5b8101908080519060200190929190505050811115610694576040517f08c379a00000000000000000000000000000000000000000000000000000000081526004018080602001828103825260228152602001806108596022913960400191505060405180910390fd5b600160009054906101000a900473ffffffffffffffffffffffffffffffffffffffff1673ffffffffffffffffffffffffffffffffffffffff166108fc349081150290604051600060405180830381858888f193505050501580156106fc573d6000803e3d6000fd5b50600260009054906101000a900473ffffffffffffffffffffffffffffffffffffffff1673ffffffffffffffffffffffffffffffffffffffff1663a9059cbb33836040518363ffffffff1660e01b8152600401808373ffffffffffffffffffffffffffffffffffffffff16815260200182815260200192505050602060405180830381600087803b15801561079057600080fd5b505af11580156107a4573d6000803e3d6000fd5b505050506040513d60208110156107ba57600080fd5b81019080805190602001909291905050505050565b6000808211610846576040517f08c379a000000000000000000000000000000000000000000000000000000000815260040180806020018281038252601a8152602001807f536166654d6174683a206469766973696f6e206279207a65726f00000000000081525060200191505060405180910390fd5b81838161084f57fe5b0490509291505056fe436f6e747261637420646f65736e2774206861766520656e6f7567682066756e647350726963652063616e206f6e6c7920626520736574206279206465762061646472657373a26469706673582212205987786dc04bf8fb3ed9a80f4b0fcfc46030ca7243b37eacc3088254fe67b17664736f6c63430007060033",
  "immutableReferences": {},
  "source": "// SPDX-License-Identifier: MIT\npragma solidity ^0.7.0;\n\nimport \"@openzeppelin/contracts/token/ERC20/IERC20.sol\";\nimport \"@openzeppelin/contracts/math/SafeMath.sol\";\n\ncontract Exchange {\n  // Price in wei\n  uint256 public price = 0.01 * 10**18;\n  address payable public dev = msg.sender;\n  IERC20 private cheemscoin;\n\n  constructor(IERC20 _cheemscoin) {\n    cheemscoin = _cheemscoin;\n  }\n\n  function buy() public payable {\n    uint256 cheemsAmount = SafeMath.div(msg.value * 10**18, price);\n\n    require(cheemsAmount > 0, \"A positive value is necessary\");\n    require(\n      cheemsAmount <= cheemscoin.balanceOf(address(this)),\n      \"Contract doesn't have enough funds\"\n    );\n\n    dev.transfer(msg.value);\n    cheemscoin.transfer(msg.sender, cheemsAmount);\n  }\n\n  function setPrice(uint256 _newPrice) public {\n    require(msg.sender == dev, \"Price can only be set by dev address\");\n    price = _newPrice;\n  }\n\n  // Withdraws all Cheemscoin to dev address\n  // Purpose is so exchange funds can be allocated elsewhere if needed\n  function withdraw() public {\n    require(msg.sender == dev, \"Only dev can withdraw\");\n    uint256 exchangeBalance = cheemscoin.balanceOf(address(this));\n    require(exchangeBalance > 0, \"Exchange has no funds\");\n\n    cheemscoin.transfer(dev, exchangeBalance);\n  }\n}\n",
  "sourcePath": "/Users/kaikurosawa/Desktop/code/cheemscoin/contracts/Exchange.sol",
  "compiler": {
    "name": "solc",
    "version": "0.7.6+commit.7338295f.Emscripten.clang"
  },
  "schemaVersion": "3.3.3",
  "updatedAt": "2021-04-06T03:13:23.529Z",
  "networkType": "ethereum",
  "devdoc": {
    "kind": "dev",
    "methods": {},
    "version": 1
  },
  "userdoc": {
    "kind": "user",
    "methods": {},
    "version": 1
  }
}