{
  "contractName": "TokenLock",
  "abi": [
    {
      "anonymous": false,
      "inputs": [
        {
          "indexed": false,
          "internalType": "contract IERC20",
          "name": "token",
          "type": "address"
        },
        {
          "indexed": false,
          "internalType": "uint256",
          "name": "amount",
          "type": "uint256"
        },
        {
          "indexed": false,
          "internalType": "uint256",
          "name": "requestTime",
          "type": "uint256"
        }
      ],
      "name": "LockCreated",
      "type": "event"
    },
    {
      "anonymous": false,
      "inputs": [
        {
          "indexed": false,
          "internalType": "contract IERC20",
          "name": "token",
          "type": "address"
        },
        {
          "indexed": false,
          "internalType": "uint256",
          "name": "amount",
          "type": "uint256"
        },
        {
          "indexed": false,
          "internalType": "uint256",
          "name": "durationExtension",
          "type": "uint256"
        },
        {
          "indexed": false,
          "internalType": "uint256",
          "name": "newRequestTime",
          "type": "uint256"
        }
      ],
      "name": "LockTimeExtended",
      "type": "event"
    },
    {
      "anonymous": false,
      "inputs": [
        {
          "indexed": true,
          "internalType": "address",
          "name": "previousOwner",
          "type": "address"
        },
        {
          "indexed": true,
          "internalType": "address",
          "name": "newOwner",
          "type": "address"
        }
      ],
      "name": "OwnershipTransferred",
      "type": "event"
    },
    {
      "anonymous": false,
      "inputs": [
        {
          "indexed": false,
          "internalType": "contract IERC20",
          "name": "token",
          "type": "address"
        },
        {
          "indexed": false,
          "internalType": "uint256",
          "name": "amount",
          "type": "uint256"
        },
        {
          "indexed": false,
          "internalType": "address",
          "name": "recipient",
          "type": "address"
        }
      ],
      "name": "TokenUnlocked",
      "type": "event"
    },
    {
      "anonymous": false,
      "inputs": [
        {
          "indexed": false,
          "internalType": "contract IERC20",
          "name": "token",
          "type": "address"
        },
        {
          "indexed": false,
          "internalType": "uint256",
          "name": "amount",
          "type": "uint256"
        },
        {
          "indexed": false,
          "internalType": "uint256",
          "name": "unlockTime",
          "type": "uint256"
        },
        {
          "indexed": false,
          "internalType": "address",
          "name": "recipient",
          "type": "address"
        }
      ],
      "name": "UnlockRequested",
      "type": "event"
    },
    {
      "inputs": [
        {
          "internalType": "uint256",
          "name": "",
          "type": "uint256"
        }
      ],
      "name": "locks",
      "outputs": [
        {
          "internalType": "contract IERC20",
          "name": "token",
          "type": "address"
        },
        {
          "internalType": "uint256",
          "name": "amount",
          "type": "uint256"
        },
        {
          "internalType": "uint256",
          "name": "requestTime",
          "type": "uint256"
        }
      ],
      "stateMutability": "view",
      "type": "function"
    },
    {
      "inputs": [],
      "name": "owner",
      "outputs": [
        {
          "internalType": "address",
          "name": "",
          "type": "address"
        }
      ],
      "stateMutability": "view",
      "type": "function"
    },
    {
      "inputs": [],
      "name": "renounceOwnership",
      "outputs": [],
      "stateMutability": "nonpayable",
      "type": "function"
    },
    {
      "inputs": [
        {
          "internalType": "uint256",
          "name": "",
          "type": "uint256"
        }
      ],
      "name": "requests",
      "outputs": [
        {
          "internalType": "contract IERC20",
          "name": "token",
          "type": "address"
        },
        {
          "internalType": "uint256",
          "name": "amount",
          "type": "uint256"
        },
        {
          "internalType": "uint256",
          "name": "unlockTime",
          "type": "uint256"
        },
        {
          "internalType": "address",
          "name": "recipient",
          "type": "address"
        }
      ],
      "stateMutability": "view",
      "type": "function"
    },
    {
      "inputs": [
        {
          "internalType": "address",
          "name": "newOwner",
          "type": "address"
        }
      ],
      "name": "transferOwnership",
      "outputs": [],
      "stateMutability": "nonpayable",
      "type": "function"
    },
    {
      "inputs": [
        {
          "internalType": "contract IERC20",
          "name": "token",
          "type": "address"
        },
        {
          "internalType": "uint256",
          "name": "amount",
          "type": "uint256"
        },
        {
          "internalType": "uint256",
          "name": "duration",
          "type": "uint256"
        }
      ],
      "name": "createLock",
      "outputs": [],
      "stateMutability": "nonpayable",
      "type": "function"
    },
    {
      "inputs": [
        {
          "internalType": "uint256",
          "name": "lockIndex",
          "type": "uint256"
        },
        {
          "internalType": "address",
          "name": "recipient",
          "type": "address"
        }
      ],
      "name": "requestLock",
      "outputs": [],
      "stateMutability": "nonpayable",
      "type": "function"
    },
    {
      "inputs": [
        {
          "internalType": "uint256",
          "name": "requestIndex",
          "type": "uint256"
        }
      ],
      "name": "unlock",
      "outputs": [],
      "stateMutability": "nonpayable",
      "type": "function"
    },
    {
      "inputs": [
        {
          "internalType": "uint256",
          "name": "lockIndex",
          "type": "uint256"
        },
        {
          "internalType": "uint256",
          "name": "durationExtension",
          "type": "uint256"
        }
      ],
      "name": "extendLock",
      "outputs": [],
      "stateMutability": "nonpayable",
      "type": "function"
    },
    {
      "inputs": [],
      "name": "getLocks",
      "outputs": [
        {
          "components": [
            {
              "internalType": "contract IERC20",
              "name": "token",
              "type": "address"
            },
            {
              "internalType": "uint256",
              "name": "amount",
              "type": "uint256"
            },
            {
              "internalType": "uint256",
              "name": "requestTime",
              "type": "uint256"
            }
          ],
          "internalType": "struct lock[]",
          "name": "",
          "type": "tuple[]"
        }
      ],
      "stateMutability": "view",
      "type": "function"
    },
    {
      "inputs": [],
      "name": "getRequests",
      "outputs": [
        {
          "components": [
            {
              "internalType": "contract IERC20",
              "name": "token",
              "type": "address"
            },
            {
              "internalType": "uint256",
              "name": "amount",
              "type": "uint256"
            },
            {
              "internalType": "uint256",
              "name": "unlockTime",
              "type": "uint256"
            },
            {
              "internalType": "address",
              "name": "recipient",
              "type": "address"
            }
          ],
          "internalType": "struct request[]",
          "name": "",
          "type": "tuple[]"
        }
      ],
      "stateMutability": "view",
      "type": "function"
    }
  ],
  "bytecode": "0x608060405234801561001057600080fd5b5060006100216100c460201b60201c565b9050806000806101000a81548173ffffffffffffffffffffffffffffffffffffffff021916908373ffffffffffffffffffffffffffffffffffffffff1602179055508073ffffffffffffffffffffffffffffffffffffffff16600073ffffffffffffffffffffffffffffffffffffffff167f8be0079c531659141344cd1fd0a4f28419497f9722a3daafe3b4186f6b6457e060405160405180910390a3506100cc565b600033905090565b611c27806100db6000396000f3fe608060405234801561001057600080fd5b50600436106100a95760003560e01c8063715018a611610071578063715018a61461013c57806381d12c58146101465780638813ce12146101795780638da5cb5b14610197578063f2fde38b146101b5578063f4dadc61146101d1576100a9565b8063070d66bf146100ae57806311b61fba146100ca57806344b056ed146100e65780636198e33914610104578063650e150514610120575b600080fd5b6100c860048036038101906100c39190611599565b610203565b005b6100e460048036038101906100df919061155d565b6103d5565b005b6100ee610743565b6040516100fb91906118bc565b60405180910390f35b61011e60048036038101906101199190611534565b61080c565b005b61013a600480360381019061013591906114e5565b610b53565b005b610144610da3565b005b610160600480360381019061015b9190611534565b610f10565b604051610170949392919061196e565b60405180910390f35b610181610f90565b60405161018e91906118de565b60405180910390f35b61019f6110af565b6040516101ac9190611841565b60405180910390f35b6101cf60048036038101906101ca9190611493565b6110d8565b005b6101eb60048036038101906101e69190611534565b6112ca565b6040516101fa93929190611937565b60405180910390f35b61020b611324565b73ffffffffffffffffffffffffffffffffffffffff166102296110af565b73ffffffffffffffffffffffffffffffffffffffff16146102b2576040517f08c379a00000000000000000000000000000000000000000000000000000000081526004018080602001828103825260208152602001807f4f776e61626c653a2063616c6c6572206973206e6f7420746865206f776e657281525060200191505060405180910390fd5b6102ba6113b4565b600183815481106102c757fe5b90600052602060002090600302016040518060600160405290816000820160009054906101000a900473ffffffffffffffffffffffffffffffffffffffff1673ffffffffffffffffffffffffffffffffffffffff1673ffffffffffffffffffffffffffffffffffffffff168152602001600182015481526020016002820154815250509050600061036583836040015161132c90919063ffffffff16565b9050806001858154811061037557fe5b9060005260206000209060030201600201819055507f0e22966190c7003626686eeb521cedae635b9d00ff03095e790b87f5ae1153728260000151836020015185846040516103c794939291906119b3565b60405180910390a150505050565b6103dd611324565b73ffffffffffffffffffffffffffffffffffffffff166103fb6110af565b73ffffffffffffffffffffffffffffffffffffffff1614610484576040517f08c379a00000000000000000000000000000000000000000000000000000000081526004018080602001828103825260208152602001807f4f776e61626c653a2063616c6c6572206973206e6f7420746865206f776e657281525060200191505060405180910390fd5b61048c6113b4565b6001838154811061049957fe5b90600052602060002090600302016040518060600160405290816000820160009054906101000a900473ffffffffffffffffffffffffffffffffffffffff1673ffffffffffffffffffffffffffffffffffffffff1673ffffffffffffffffffffffffffffffffffffffff1681526020016001820154815260200160028201548152505090508060400151421015610565576040517f08c379a000000000000000000000000000000000000000000000000000000000815260040161055c906119f8565b60405180910390fd5b600061057d6203f4804261132c90919063ffffffff16565b905060026040518060800160405280846000015173ffffffffffffffffffffffffffffffffffffffff168152602001846020015181526020018381526020018573ffffffffffffffffffffffffffffffffffffffff16815250908060018154018082558091505060019003906000526020600020906004020160009091909190915060008201518160000160006101000a81548173ffffffffffffffffffffffffffffffffffffffff021916908373ffffffffffffffffffffffffffffffffffffffff160217905550602082015181600101556040820151816002015560608201518160030160006101000a81548173ffffffffffffffffffffffffffffffffffffffff021916908373ffffffffffffffffffffffffffffffffffffffff1602179055505050600184815481106106b057fe5b9060005260206000209060030201600080820160006101000a81549073ffffffffffffffffffffffffffffffffffffffff02191690556001820160009055600282016000905550507fbca07280c9acced4d70dbe531bb93d0aac1b044f646e5b5d7d4075b1769297bc826000015183602001518386604051610735949392919061196e565b60405180910390a150505050565b60606001805480602002602001604051908101604052809291908181526020016000905b8282101561080357838290600052602060002090600302016040518060600160405290816000820160009054906101000a900473ffffffffffffffffffffffffffffffffffffffff1673ffffffffffffffffffffffffffffffffffffffff1673ffffffffffffffffffffffffffffffffffffffff1681526020016001820154815260200160028201548152505081526020019060010190610767565b50505050905090565b610814611324565b73ffffffffffffffffffffffffffffffffffffffff166108326110af565b73ffffffffffffffffffffffffffffffffffffffff16146108bb576040517f08c379a00000000000000000000000000000000000000000000000000000000081526004018080602001828103825260208152602001807f4f776e61626c653a2063616c6c6572206973206e6f7420746865206f776e657281525060200191505060405180910390fd5b6108c36113eb565b600282815481106108d057fe5b90600052602060002090600402016040518060800160405290816000820160009054906101000a900473ffffffffffffffffffffffffffffffffffffffff1673ffffffffffffffffffffffffffffffffffffffff1673ffffffffffffffffffffffffffffffffffffffff16815260200160018201548152602001600282015481526020016003820160009054906101000a900473ffffffffffffffffffffffffffffffffffffffff1673ffffffffffffffffffffffffffffffffffffffff1673ffffffffffffffffffffffffffffffffffffffff1681525050905080604001514210156109f2576040517f08c379a00000000000000000000000000000000000000000000000000000000081526004016109e990611a18565b60405180910390fd5b806000015173ffffffffffffffffffffffffffffffffffffffff1663a9059cbb826060015183602001516040518363ffffffff1660e01b8152600401610a39929190611893565b602060405180830381600087803b158015610a5357600080fd5b505af1158015610a67573d6000803e3d6000fd5b505050506040513d601f19601f82011682018060405250810190610a8b91906114bc565b5060028281548110610a9957fe5b9060005260206000209060040201600080820160006101000a81549073ffffffffffffffffffffffffffffffffffffffff0219169055600182016000905560028201600090556003820160006101000a81549073ffffffffffffffffffffffffffffffffffffffff021916905550507ff929de967b2c8e03a98e960fbb5aa81569899dee62736a30ac4c1105ca4bde9b816000015182602001518360600151604051610b4793929190611900565b60405180910390a15050565b610b5b611324565b73ffffffffffffffffffffffffffffffffffffffff16610b796110af565b73ffffffffffffffffffffffffffffffffffffffff1614610c02576040517f08c379a00000000000000000000000000000000000000000000000000000000081526004018080602001828103825260208152602001807f4f776e61626c653a2063616c6c6572206973206e6f7420746865206f776e657281525060200191505060405180910390fd5b8273ffffffffffffffffffffffffffffffffffffffff166323b872dd3330856040518463ffffffff1660e01b8152600401610c3f9392919061185c565b602060405180830381600087803b158015610c5957600080fd5b505af1158015610c6d573d6000803e3d6000fd5b505050506040513d601f19601f82011682018060405250810190610c9191906114bc565b506000610ca7824261132c90919063ffffffff16565b9050600160405180606001604052808673ffffffffffffffffffffffffffffffffffffffff16815260200185815260200183815250908060018154018082558091505060019003906000526020600020906003020160009091909190915060008201518160000160006101000a81548173ffffffffffffffffffffffffffffffffffffffff021916908373ffffffffffffffffffffffffffffffffffffffff160217905550602082015181600101556040820151816002015550507f167357c41e38a45e1950f61b1f5accf902c878d83f1685f7f72fb666203ce047848483604051610d9593929190611937565b60405180910390a150505050565b610dab611324565b73ffffffffffffffffffffffffffffffffffffffff16610dc96110af565b73ffffffffffffffffffffffffffffffffffffffff1614610e52576040517f08c379a00000000000000000000000000000000000000000000000000000000081526004018080602001828103825260208152602001807f4f776e61626c653a2063616c6c6572206973206e6f7420746865206f776e657281525060200191505060405180910390fd5b600073ffffffffffffffffffffffffffffffffffffffff1660008054906101000a900473ffffffffffffffffffffffffffffffffffffffff1673ffffffffffffffffffffffffffffffffffffffff167f8be0079c531659141344cd1fd0a4f28419497f9722a3daafe3b4186f6b6457e060405160405180910390a360008060006101000a81548173ffffffffffffffffffffffffffffffffffffffff021916908373ffffffffffffffffffffffffffffffffffffffff160217905550565b60028181548110610f2057600080fd5b90600052602060002090600402016000915090508060000160009054906101000a900473ffffffffffffffffffffffffffffffffffffffff16908060010154908060020154908060030160009054906101000a900473ffffffffffffffffffffffffffffffffffffffff16905084565b60606002805480602002602001604051908101604052809291908181526020016000905b828210156110a657838290600052602060002090600402016040518060800160405290816000820160009054906101000a900473ffffffffffffffffffffffffffffffffffffffff1673ffffffffffffffffffffffffffffffffffffffff1673ffffffffffffffffffffffffffffffffffffffff16815260200160018201548152602001600282015481526020016003820160009054906101000a900473ffffffffffffffffffffffffffffffffffffffff1673ffffffffffffffffffffffffffffffffffffffff1673ffffffffffffffffffffffffffffffffffffffff168152505081526020019060010190610fb4565b50505050905090565b60008060009054906101000a900473ffffffffffffffffffffffffffffffffffffffff16905090565b6110e0611324565b73ffffffffffffffffffffffffffffffffffffffff166110fe6110af565b73ffffffffffffffffffffffffffffffffffffffff1614611187576040517f08c379a00000000000000000000000000000000000000000000000000000000081526004018080602001828103825260208152602001807f4f776e61626c653a2063616c6c6572206973206e6f7420746865206f776e657281525060200191505060405180910390fd5b600073ffffffffffffffffffffffffffffffffffffffff168173ffffffffffffffffffffffffffffffffffffffff16141561120d576040517f08c379a0000000000000000000000000000000000000000000000000000000008152600401808060200182810382526026815260200180611bcc6026913960400191505060405180910390fd5b8073ffffffffffffffffffffffffffffffffffffffff1660008054906101000a900473ffffffffffffffffffffffffffffffffffffffff1673ffffffffffffffffffffffffffffffffffffffff167f8be0079c531659141344cd1fd0a4f28419497f9722a3daafe3b4186f6b6457e060405160405180910390a3806000806101000a81548173ffffffffffffffffffffffffffffffffffffffff021916908373ffffffffffffffffffffffffffffffffffffffff16021790555050565b600181815481106112da57600080fd5b90600052602060002090600302016000915090508060000160009054906101000a900473ffffffffffffffffffffffffffffffffffffffff16908060010154908060020154905083565b600033905090565b6000808284019050838110156113aa576040517f08c379a000000000000000000000000000000000000000000000000000000000815260040180806020018281038252601b8152602001807f536166654d6174683a206164646974696f6e206f766572666c6f77000000000081525060200191505060405180910390fd5b8091505092915050565b6040518060600160405280600073ffffffffffffffffffffffffffffffffffffffff16815260200160008152602001600081525090565b6040518060800160405280600073ffffffffffffffffffffffffffffffffffffffff1681526020016000815260200160008152602001600073ffffffffffffffffffffffffffffffffffffffff1681525090565b60008135905061144e81611b6f565b92915050565b60008151905061146381611b86565b92915050565b60008135905061147881611b9d565b92915050565b60008135905061148d81611bb4565b92915050565b6000602082840312156114a557600080fd5b60006114b38482850161143f565b91505092915050565b6000602082840312156114ce57600080fd5b60006114dc84828501611454565b91505092915050565b6000806000606084860312156114fa57600080fd5b600061150886828701611469565b93505060206115198682870161147e565b925050604061152a8682870161147e565b9150509250925092565b60006020828403121561154657600080fd5b60006115548482850161147e565b91505092915050565b6000806040838503121561157057600080fd5b600061157e8582860161147e565b925050602061158f8582860161143f565b9150509250929050565b600080604083850312156115ac57600080fd5b60006115ba8582860161147e565b92505060206115cb8582860161147e565b9150509250929050565b60006115e1838361178c565b60608301905092915050565b60006115f983836117ce565b60808301905092915050565b61160e81611b15565b82525050565b61161d81611abb565b82525050565b61162c81611abb565b82525050565b600061163d82611a58565b6116478185611a88565b935061165283611a38565b8060005b8381101561168357815161166a88826115d5565b975061167583611a6e565b925050600181019050611656565b5085935050505092915050565b600061169b82611a63565b6116a58185611a99565b93506116b083611a48565b8060005b838110156116e15781516116c888826115ed565b97506116d383611a7b565b9250506001810190506116b4565b5085935050505092915050565b6116f781611b27565b82525050565b61170681611b27565b82525050565b6000611719601583611aaa565b91507f43616e206e6f742072657175657374206561726c7900000000000000000000006000830152602082019050919050565b6000611759601483611aaa565b91507f43616e206e6f7420756e6c6f636b206561726c790000000000000000000000006000830152602082019050919050565b6060820160008201516117a260008501826116ee565b5060208201516117b56020850182611823565b5060408201516117c86040850182611823565b50505050565b6080820160008201516117e460008501826116ee565b5060208201516117f76020850182611823565b50604082015161180a6040850182611823565b50606082015161181d6060850182611614565b50505050565b61182c81611b0b565b82525050565b61183b81611b0b565b82525050565b60006020820190506118566000830184611623565b92915050565b60006060820190506118716000830186611605565b61187e6020830185611623565b61188b6040830184611832565b949350505050565b60006040820190506118a86000830185611623565b6118b56020830184611832565b9392505050565b600060208201905081810360008301526118d68184611632565b905092915050565b600060208201905081810360008301526118f88184611690565b905092915050565b600060608201905061191560008301866116fd565b6119226020830185611832565b61192f6040830184611623565b949350505050565b600060608201905061194c60008301866116fd565b6119596020830185611832565b6119666040830184611832565b949350505050565b600060808201905061198360008301876116fd565b6119906020830186611832565b61199d6040830185611832565b6119aa6060830184611623565b95945050505050565b60006080820190506119c860008301876116fd565b6119d56020830186611832565b6119e26040830185611832565b6119ef6060830184611832565b95945050505050565b60006020820190508181036000830152611a118161170c565b9050919050565b60006020820190508181036000830152611a318161174c565b9050919050565b6000819050602082019050919050565b6000819050602082019050919050565b600081519050919050565b600081519050919050565b6000602082019050919050565b6000602082019050919050565b600082825260208201905092915050565b600082825260208201905092915050565b600082825260208201905092915050565b6000611ac682611aeb565b9050919050565b60008115159050919050565b6000611ae482611abb565b9050919050565b600073ffffffffffffffffffffffffffffffffffffffff82169050919050565b6000819050919050565b6000611b2082611b4b565b9050919050565b6000611b3282611b39565b9050919050565b6000611b4482611aeb565b9050919050565b6000611b5682611b5d565b9050919050565b6000611b6882611aeb565b9050919050565b611b7881611abb565b8114611b8357600080fd5b50565b611b8f81611acd565b8114611b9a57600080fd5b50565b611ba681611ad9565b8114611bb157600080fd5b50565b611bbd81611b0b565b8114611bc857600080fd5b5056fe4f776e61626c653a206e6577206f776e657220697320746865207a65726f2061646472657373a2646970667358221220f76350ef54f4d62e44032b8280780ff16d3444a1690e42c3106e3d07b8f022c264736f6c63430007040033",
  "immutableReferences": {},
  "source": "// SPDX-License-Identifier: GPL-3.0-or-later\n// https://cheemsco.in/locks\npragma solidity ^0.7.4;\npragma experimental ABIEncoderV2;\n\nimport \"@openzeppelin/contracts/access/Ownable.sol\";\nimport \"@openzeppelin/contracts/token/ERC20/IERC20.sol\";\nimport \"@openzeppelin/contracts/math/SafeMath.sol\";\n\nstruct lock {\n  IERC20 token;\n  uint256 amount;\n  uint256 requestTime;\n}\n\nstruct request {\n  IERC20 token;\n  uint256 amount;\n  uint256 unlockTime;\n  address recipient;\n}\n\nuint256 constant BUFFER = 3 days;\n\n/// @title ERC20 token locker\n/// @author kowasaur\n/// @notice Owner can lock tokens for specified period of time (lock meaning they can't withdraw)\n/// @notice There's a 3 day buffer between requesting to unlock and being able to\n/// @dev all time in this contract is in seconds\ncontract TokenLock is Ownable {\n  using SafeMath for uint256;\n\n  /// @notice After the lock duration, these can be added to requests\n  lock[] public locks;\n  /// @notice These can be withdrawn as long as the buffer has past\n  request[] public requests;\n\n  event LockCreated(IERC20 token, uint256 amount, uint256 requestTime);\n  event UnlockRequested(IERC20 token, uint256 amount, uint256 unlockTime, address recipient);\n  event TokenUnlocked(IERC20 token, uint256 amount, address recipient);\n  event LockTimeExtended(\n    IERC20 token,\n    uint256 amount,\n    uint256 durationExtension,\n    uint256 newRequestTime\n  );\n\n  /// @notice Locks a token for the specified duration\n  /// @param token an ERC20 token\n  /// @param amount amount of token to be locked in wei\n  /// @param duration how long the lock will last for\n  function createLock(\n    IERC20 token,\n    uint256 amount,\n    uint256 duration\n  ) external onlyOwner {\n    token.transferFrom(msg.sender, address(this), amount);\n    uint256 requestTime = block.timestamp.add(duration);\n    locks.push(lock(token, amount, requestTime));\n    emit LockCreated(token, amount, requestTime);\n  }\n\n  /// @notice If the lock duration is over, requests the tokens be moved to the recipient\n  /// This can then be be done with unlock() after 3 days\n  /// @param lockIndex index of the lock in locks\n  /// @param recipient address that will receive the tokens\n  function requestLock(uint256 lockIndex, address recipient) external onlyOwner {\n    lock memory l = locks[lockIndex];\n    require(block.timestamp >= l.requestTime, \"Can not request early\");\n\n    uint256 unlockTime = block.timestamp.add(BUFFER);\n    requests.push(request(l.token, l.amount, unlockTime, recipient));\n    delete locks[lockIndex];\n    emit UnlockRequested(l.token, l.amount, unlockTime, recipient);\n  }\n\n  /// @notice Enacts the request if at least 3 days has passed\n  /// @param requestIndex index of the request in locks\n  function unlock(uint256 requestIndex) external onlyOwner {\n    request memory r = requests[requestIndex];\n    require(block.timestamp >= r.unlockTime, \"Can not unlock early\");\n\n    r.token.transfer(r.recipient, r.amount);\n    delete requests[requestIndex];\n    emit TokenUnlocked(r.token, r.amount, r.recipient);\n  }\n\n  /// @notice Adds time to a lock\n  /// @param lockIndex index of the lock in locks\n  /// @param durationExtension time to be added to the lock\n  function extendLock(uint256 lockIndex, uint256 durationExtension) external onlyOwner {\n    lock memory l = locks[lockIndex];\n    uint256 newRequestTime = l.requestTime.add(durationExtension);\n\n    locks[lockIndex].requestTime = newRequestTime;\n    emit LockTimeExtended(l.token, l.amount, durationExtension, newRequestTime);\n  }\n\n  /// @dev These are needed since the default getter for arrays get indivdual elements\n\n  function getLocks() external view returns (lock[] memory) {\n    return locks;\n  }\n\n  function getRequests() external view returns (request[] memory) {\n    return requests;\n  }\n}\n",
  "sourcePath": "/Users/kaikurosawa/Desktop/code/cheemscoin/contracts/TokenLock.sol",
  "compiler": {
    "name": "solc",
    "version": "0.7.4+commit.3f05b770.Emscripten.clang"
  },
  "schemaVersion": "3.3.3",
  "updatedAt": "2021-04-06T23:47:06.219Z",
  "devdoc": {
    "author": "kowasaur",
    "details": "all time in this contract is in seconds",
    "kind": "dev",
    "methods": {
      "createLock(address,uint256,uint256)": {
        "params": {
          "amount": "amount of token to be locked in wei",
          "duration": "how long the lock will last for",
          "token": "an ERC20 token"
        }
      },
      "extendLock(uint256,uint256)": {
        "params": {
          "durationExtension": "time to be added to the lock",
          "lockIndex": "index of the lock in locks"
        }
      },
      "getLocks()": {
        "details": "These are needed since the default getter for arrays get indivdual elements"
      },
      "owner()": {
        "details": "Returns the address of the current owner."
      },
      "renounceOwnership()": {
        "details": "Leaves the contract without owner. It will not be possible to call `onlyOwner` functions anymore. Can only be called by the current owner. NOTE: Renouncing ownership will leave the contract without an owner, thereby removing any functionality that is only available to the owner."
      },
      "requestLock(uint256,address)": {
        "params": {
          "lockIndex": "index of the lock in locks",
          "recipient": "address that will receive the tokens"
        }
      },
      "transferOwnership(address)": {
        "details": "Transfers ownership of the contract to a new account (`newOwner`). Can only be called by the current owner."
      },
      "unlock(uint256)": {
        "params": {
          "requestIndex": "index of the request in locks"
        }
      }
    },
    "title": "ERC20 token locker",
    "version": 1
  },
  "userdoc": {
    "kind": "user",
    "methods": {
      "createLock(address,uint256,uint256)": {
        "notice": "Locks a token for the specified duration"
      },
      "extendLock(uint256,uint256)": {
        "notice": "Adds time to a lock"
      },
      "locks(uint256)": {
        "notice": "After the lock duration, these can be added to requests"
      },
      "requestLock(uint256,address)": {
        "notice": "If the lock duration is over, requests the tokens be moved to the recipient This can then be be done with unlock() after 3 days"
      },
      "requests(uint256)": {
        "notice": "These can be withdrawn as long as the buffer has past"
      },
      "unlock(uint256)": {
        "notice": "Enacts the request if at least 3 days has passed"
      }
    },
    "notice": "Owner can lock tokens for specified period of time (lock meaning they can't withdraw)There's a 3 day buffer between requesting to unlock and being able to",
    "version": 1
  }
}